{
	"docs.chain.link/samples/CCIP/Sender.sol": {
		"Sender": {
			"abi": [
				{
					"inputs": [
						{
							"internalType": "address",
							"name": "_router",
							"type": "address"
						},
						{
							"internalType": "address",
							"name": "_link",
							"type": "address"
						}
					],
					"stateMutability": "nonpayable",
					"type": "constructor"
				},
				{
					"inputs": [
						{
							"internalType": "uint256",
							"name": "currentBalance",
							"type": "uint256"
						},
						{
							"internalType": "uint256",
							"name": "calculatedFees",
							"type": "uint256"
						}
					],
					"name": "NotEnoughBalance",
					"type": "error"
				},
				{
					"anonymous": false,
					"inputs": [
						{
							"indexed": true,
							"internalType": "bytes32",
							"name": "messageId",
							"type": "bytes32"
						},
						{
							"indexed": true,
							"internalType": "uint64",
							"name": "destinationChainSelector",
							"type": "uint64"
						},
						{
							"indexed": false,
							"internalType": "address",
							"name": "receiver",
							"type": "address"
						},
						{
							"components": [
								{
									"internalType": "string",
									"name": "patientName",
									"type": "string"
								},
								{
									"internalType": "uint256",
									"name": "patientAge",
									"type": "uint256"
								},
								{
									"internalType": "string",
									"name": "bloodGroup",
									"type": "string"
								},
								{
									"internalType": "string",
									"name": "medicalHistory",
									"type": "string"
								},
								{
									"internalType": "uint256",
									"name": "timestamp",
									"type": "uint256"
								}
							],
							"indexed": false,
							"internalType": "struct Sender.PatientInfo",
							"name": "patientInfo",
							"type": "tuple"
						},
						{
							"indexed": false,
							"internalType": "address",
							"name": "feeToken",
							"type": "address"
						},
						{
							"indexed": false,
							"internalType": "uint256",
							"name": "fees",
							"type": "uint256"
						}
					],
					"name": "MessageSent",
					"type": "event"
				},
				{
					"anonymous": false,
					"inputs": [
						{
							"indexed": true,
							"internalType": "address",
							"name": "from",
							"type": "address"
						},
						{
							"indexed": true,
							"internalType": "address",
							"name": "to",
							"type": "address"
						}
					],
					"name": "OwnershipTransferRequested",
					"type": "event"
				},
				{
					"anonymous": false,
					"inputs": [
						{
							"indexed": true,
							"internalType": "address",
							"name": "from",
							"type": "address"
						},
						{
							"indexed": true,
							"internalType": "address",
							"name": "to",
							"type": "address"
						}
					],
					"name": "OwnershipTransferred",
					"type": "event"
				},
				{
					"inputs": [],
					"name": "acceptOwnership",
					"outputs": [],
					"stateMutability": "nonpayable",
					"type": "function"
				},
				{
					"inputs": [],
					"name": "owner",
					"outputs": [
						{
							"internalType": "address",
							"name": "",
							"type": "address"
						}
					],
					"stateMutability": "view",
					"type": "function"
				},
				{
					"inputs": [
						{
							"internalType": "uint64",
							"name": "destinationChainSelector",
							"type": "uint64"
						},
						{
							"internalType": "address",
							"name": "receiver",
							"type": "address"
						},
						{
							"internalType": "string",
							"name": "patientName",
							"type": "string"
						},
						{
							"internalType": "uint256",
							"name": "patientAge",
							"type": "uint256"
						},
						{
							"internalType": "string",
							"name": "bloodGroup",
							"type": "string"
						},
						{
							"internalType": "string",
							"name": "medicalHistory",
							"type": "string"
						}
					],
					"name": "sendMessage",
					"outputs": [
						{
							"internalType": "bytes32",
							"name": "messageId",
							"type": "bytes32"
						}
					],
					"stateMutability": "nonpayable",
					"type": "function"
				},
				{
					"inputs": [
						{
							"internalType": "address",
							"name": "to",
							"type": "address"
						}
					],
					"name": "transferOwnership",
					"outputs": [],
					"stateMutability": "nonpayable",
					"type": "function"
				}
			],
			"devdoc": {
				"kind": "dev",
				"methods": {},
				"version": 1
			},
			"evm": {
				"assembly": "    /* \"docs.chain.link/samples/CCIP/Sender.sol\":474:2858  contract Sender is OwnerIsCreator {... */\n  mstore(0x40, 0x80)\n    /* \"docs.chain.link/samples/CCIP/Sender.sol\":1066:1209  constructor(address _router, address _link) {... */\n  callvalue\n  dup1\n  iszero\n  tag_1\n  jumpi\n  0x00\n  dup1\n  revert\ntag_1:\n  pop\n  mload(0x40)\n  sub(codesize, bytecodeSize)\n  dup1\n  bytecodeSize\n  dup4\n  codecopy\n  dup2\n  dup2\n  add\n  0x40\n  mstore\n  dup2\n  add\n  swap1\n  tag_2\n  swap2\n  swap1\n  tag_3\n  jump\t// in\ntag_2:\n    /* \"@chainlink/contracts-ccip@1.5.0/src/v0.8/shared/access/OwnerIsCreator.sol\":291:301  msg.sender */\n  caller\n    /* \"@chainlink/contracts-ccip@1.5.0/src/v0.8/shared/access/ConfirmedOwner.sol\":355:363  newOwner */\n  dup1\n    /* \"@chainlink/contracts-ccip@1.5.0/src/v0.8/shared/access/ConfirmedOwner.sol\":373:374  0 */\n  0x00\n    /* \"@chainlink/contracts-ccip@1.5.0/src/v0.8/shared/access/ConfirmedOwnerWithProposal.sol\":618:619  0 */\n  dup1\n    /* \"@chainlink/contracts-ccip@1.5.0/src/v0.8/shared/access/ConfirmedOwnerWithProposal.sol\":598:620  newOwner != address(0) */\n  0xffffffffffffffffffffffffffffffffffffffff\n  and\n    /* \"@chainlink/contracts-ccip@1.5.0/src/v0.8/shared/access/ConfirmedOwnerWithProposal.sol\":598:606  newOwner */\n  dup3\n    /* \"@chainlink/contracts-ccip@1.5.0/src/v0.8/shared/access/ConfirmedOwnerWithProposal.sol\":598:620  newOwner != address(0) */\n  0xffffffffffffffffffffffffffffffffffffffff\n  and\n  sub\n    /* \"@chainlink/contracts-ccip@1.5.0/src/v0.8/shared/access/ConfirmedOwnerWithProposal.sol\":590:649  require(newOwner != address(0), \"Cannot set owner to zero\") */\n  tag_9\n  jumpi\n  mload(0x40)\n  0x08c379a000000000000000000000000000000000000000000000000000000000\n  dup2\n  mstore\n  0x04\n  add\n  tag_10\n  swap1\n  tag_11\n  jump\t// in\ntag_10:\n  mload(0x40)\n  dup1\n  swap2\n  sub\n  swap1\n  revert\ntag_9:\n    /* \"@chainlink/contracts-ccip@1.5.0/src/v0.8/shared/access/ConfirmedOwnerWithProposal.sol\":666:674  newOwner */\n  dup2\n    /* \"@chainlink/contracts-ccip@1.5.0/src/v0.8/shared/access/ConfirmedOwnerWithProposal.sol\":656:663  s_owner */\n  0x00\n  dup1\n    /* \"@chainlink/contracts-ccip@1.5.0/src/v0.8/shared/access/ConfirmedOwnerWithProposal.sol\":656:674  s_owner = newOwner */\n  0x0100\n  exp\n  dup2\n  sload\n  dup2\n  0xffffffffffffffffffffffffffffffffffffffff\n  mul\n  not\n  and\n  swap1\n  dup4\n  0xffffffffffffffffffffffffffffffffffffffff\n  and\n  mul\n  or\n  swap1\n  sstore\n  pop\n    /* \"@chainlink/contracts-ccip@1.5.0/src/v0.8/shared/access/ConfirmedOwnerWithProposal.sol\":708:709  0 */\n  0x00\n    /* \"@chainlink/contracts-ccip@1.5.0/src/v0.8/shared/access/ConfirmedOwnerWithProposal.sol\":684:710  pendingOwner != address(0) */\n  0xffffffffffffffffffffffffffffffffffffffff\n  and\n    /* \"@chainlink/contracts-ccip@1.5.0/src/v0.8/shared/access/ConfirmedOwnerWithProposal.sol\":684:696  pendingOwner */\n  dup2\n    /* \"@chainlink/contracts-ccip@1.5.0/src/v0.8/shared/access/ConfirmedOwnerWithProposal.sol\":684:710  pendingOwner != address(0) */\n  0xffffffffffffffffffffffffffffffffffffffff\n  and\n  eq\n    /* \"@chainlink/contracts-ccip@1.5.0/src/v0.8/shared/access/ConfirmedOwnerWithProposal.sol\":680:759  if (pendingOwner != address(0)) {... */\n  tag_12\n  jumpi\n    /* \"@chainlink/contracts-ccip@1.5.0/src/v0.8/shared/access/ConfirmedOwnerWithProposal.sol\":720:752  _transferOwnership(pendingOwner) */\n  tag_13\n    /* \"@chainlink/contracts-ccip@1.5.0/src/v0.8/shared/access/ConfirmedOwnerWithProposal.sol\":739:751  pendingOwner */\n  dup2\n    /* \"@chainlink/contracts-ccip@1.5.0/src/v0.8/shared/access/ConfirmedOwnerWithProposal.sol\":720:738  _transferOwnership */\n  shl(0x20, tag_14)\n    /* \"@chainlink/contracts-ccip@1.5.0/src/v0.8/shared/access/ConfirmedOwnerWithProposal.sol\":720:752  _transferOwnership(pendingOwner) */\n  0x20\n  shr\n  jump\t// in\ntag_13:\n    /* \"@chainlink/contracts-ccip@1.5.0/src/v0.8/shared/access/ConfirmedOwnerWithProposal.sol\":680:759  if (pendingOwner != address(0)) {... */\ntag_12:\n    /* \"@chainlink/contracts-ccip@1.5.0/src/v0.8/shared/access/ConfirmedOwnerWithProposal.sol\":481:763  constructor(address newOwner, address pendingOwner) {... */\n  pop\n  pop\n    /* \"@chainlink/contracts-ccip@1.5.0/src/v0.8/shared/access/ConfirmedOwner.sol\":298:379  constructor(address newOwner) ConfirmedOwnerWithProposal(newOwner, address(0)) {} */\n  pop\n    /* \"docs.chain.link/samples/CCIP/Sender.sol\":1145:1152  _router */\n  dup2\n    /* \"docs.chain.link/samples/CCIP/Sender.sol\":1120:1128  s_router */\n  0x02\n  0x00\n    /* \"docs.chain.link/samples/CCIP/Sender.sol\":1120:1153  s_router = IRouterClient(_router) */\n  0x0100\n  exp\n  dup2\n  sload\n  dup2\n  0xffffffffffffffffffffffffffffffffffffffff\n  mul\n  not\n  and\n  swap1\n  dup4\n  0xffffffffffffffffffffffffffffffffffffffff\n  and\n  mul\n  or\n  swap1\n  sstore\n  pop\n    /* \"docs.chain.link/samples/CCIP/Sender.sol\":1196:1201  _link */\n  dup1\n    /* \"docs.chain.link/samples/CCIP/Sender.sol\":1163:1174  s_linkToken */\n  0x03\n  0x00\n    /* \"docs.chain.link/samples/CCIP/Sender.sol\":1163:1202  s_linkToken = LinkTokenInterface(_link) */\n  0x0100\n  exp\n  dup2\n  sload\n  dup2\n  0xffffffffffffffffffffffffffffffffffffffff\n  mul\n  not\n  and\n  swap1\n  dup4\n  0xffffffffffffffffffffffffffffffffffffffff\n  and\n  mul\n  or\n  swap1\n  sstore\n  pop\n    /* \"docs.chain.link/samples/CCIP/Sender.sol\":1066:1209  constructor(address _router, address _link) {... */\n  pop\n  pop\n    /* \"docs.chain.link/samples/CCIP/Sender.sol\":474:2858  contract Sender is OwnerIsCreator {... */\n  jump(tag_18)\n    /* \"@chainlink/contracts-ccip@1.5.0/src/v0.8/shared/access/ConfirmedOwnerWithProposal.sol\":1536:1775  function _transferOwnership(address to) private {... */\ntag_14:\n    /* \"@chainlink/contracts-ccip@1.5.0/src/v0.8/shared/access/ConfirmedOwnerWithProposal.sol\":1655:1665  msg.sender */\n  caller\n    /* \"@chainlink/contracts-ccip@1.5.0/src/v0.8/shared/access/ConfirmedOwnerWithProposal.sol\":1649:1665  to != msg.sender */\n  0xffffffffffffffffffffffffffffffffffffffff\n  and\n    /* \"@chainlink/contracts-ccip@1.5.0/src/v0.8/shared/access/ConfirmedOwnerWithProposal.sol\":1649:1651  to */\n  dup2\n    /* \"@chainlink/contracts-ccip@1.5.0/src/v0.8/shared/access/ConfirmedOwnerWithProposal.sol\":1649:1665  to != msg.sender */\n  0xffffffffffffffffffffffffffffffffffffffff\n  and\n  sub\n    /* \"@chainlink/contracts-ccip@1.5.0/src/v0.8/shared/access/ConfirmedOwnerWithProposal.sol\":1641:1693  require(to != msg.sender, \"Cannot transfer to self\") */\n  tag_20\n  jumpi\n  mload(0x40)\n  0x08c379a000000000000000000000000000000000000000000000000000000000\n  dup2\n  mstore\n  0x04\n  add\n  tag_21\n  swap1\n  tag_22\n  jump\t// in\ntag_21:\n  mload(0x40)\n  dup1\n  swap2\n  sub\n  swap1\n  revert\ntag_20:\n    /* \"@chainlink/contracts-ccip@1.5.0/src/v0.8/shared/access/ConfirmedOwnerWithProposal.sol\":1717:1719  to */\n  dup1\n    /* \"@chainlink/contracts-ccip@1.5.0/src/v0.8/shared/access/ConfirmedOwnerWithProposal.sol\":1700:1714  s_pendingOwner */\n  0x01\n  0x00\n    /* \"@chainlink/contracts-ccip@1.5.0/src/v0.8/shared/access/ConfirmedOwnerWithProposal.sol\":1700:1719  s_pendingOwner = to */\n  0x0100\n  exp\n  dup2\n  sload\n  dup2\n  0xffffffffffffffffffffffffffffffffffffffff\n  mul\n  not\n  and\n  swap1\n  dup4\n  0xffffffffffffffffffffffffffffffffffffffff\n  and\n  mul\n  or\n  swap1\n  sstore\n  pop\n    /* \"@chainlink/contracts-ccip@1.5.0/src/v0.8/shared/access/ConfirmedOwnerWithProposal.sol\":1767:1769  to */\n  dup1\n    /* \"@chainlink/contracts-ccip@1.5.0/src/v0.8/shared/access/ConfirmedOwnerWithProposal.sol\":1731:1770  OwnershipTransferRequested(s_owner, to) */\n  0xffffffffffffffffffffffffffffffffffffffff\n  and\n    /* \"@chainlink/contracts-ccip@1.5.0/src/v0.8/shared/access/ConfirmedOwnerWithProposal.sol\":1758:1765  s_owner */\n  0x00\n  dup1\n  sload\n  swap1\n  0x0100\n  exp\n  swap1\n  div\n  0xffffffffffffffffffffffffffffffffffffffff\n  and\n    /* \"@chainlink/contracts-ccip@1.5.0/src/v0.8/shared/access/ConfirmedOwnerWithProposal.sol\":1731:1770  OwnershipTransferRequested(s_owner, to) */\n  0xffffffffffffffffffffffffffffffffffffffff\n  and\n  0xed8889f560326eb138920d842192f0eb3dd22b4f139c87a2c57538e05bae1278\n  mload(0x40)\n  mload(0x40)\n  dup1\n  swap2\n  sub\n  swap1\n  log3\n    /* \"@chainlink/contracts-ccip@1.5.0/src/v0.8/shared/access/ConfirmedOwnerWithProposal.sol\":1536:1775  function _transferOwnership(address to) private {... */\n  pop\n  jump\t// out\n    /* \"#utility.yul\":88:205   */\ntag_24:\n    /* \"#utility.yul\":197:198   */\n  0x00\n    /* \"#utility.yul\":194:195   */\n  dup1\n    /* \"#utility.yul\":187:199   */\n  revert\n    /* \"#utility.yul\":334:460   */\ntag_26:\n    /* \"#utility.yul\":371:378   */\n  0x00\n    /* \"#utility.yul\":411:453   */\n  0xffffffffffffffffffffffffffffffffffffffff\n    /* \"#utility.yul\":404:409   */\n  dup3\n    /* \"#utility.yul\":400:454   */\n  and\n    /* \"#utility.yul\":389:454   */\n  swap1\n  pop\n    /* \"#utility.yul\":334:460   */\n  swap2\n  swap1\n  pop\n  jump\t// out\n    /* \"#utility.yul\":466:562   */\ntag_27:\n    /* \"#utility.yul\":503:510   */\n  0x00\n    /* \"#utility.yul\":532:556   */\n  tag_41\n    /* \"#utility.yul\":550:555   */\n  dup3\n    /* \"#utility.yul\":532:556   */\n  tag_26\n  jump\t// in\ntag_41:\n    /* \"#utility.yul\":521:556   */\n  swap1\n  pop\n    /* \"#utility.yul\":466:562   */\n  swap2\n  swap1\n  pop\n  jump\t// out\n    /* \"#utility.yul\":568:690   */\ntag_28:\n    /* \"#utility.yul\":641:665   */\n  tag_43\n    /* \"#utility.yul\":659:664   */\n  dup2\n    /* \"#utility.yul\":641:665   */\n  tag_27\n  jump\t// in\ntag_43:\n    /* \"#utility.yul\":634:639   */\n  dup2\n    /* \"#utility.yul\":631:666   */\n  eq\n    /* \"#utility.yul\":621:684   */\n  tag_44\n  jumpi\n    /* \"#utility.yul\":680:681   */\n  0x00\n    /* \"#utility.yul\":677:678   */\n  dup1\n    /* \"#utility.yul\":670:682   */\n  revert\n    /* \"#utility.yul\":621:684   */\ntag_44:\n    /* \"#utility.yul\":568:690   */\n  pop\n  jump\t// out\n    /* \"#utility.yul\":696:839   */\ntag_29:\n    /* \"#utility.yul\":753:758   */\n  0x00\n    /* \"#utility.yul\":784:790   */\n  dup2\n    /* \"#utility.yul\":778:791   */\n  mload\n    /* \"#utility.yul\":769:791   */\n  swap1\n  pop\n    /* \"#utility.yul\":800:833   */\n  tag_46\n    /* \"#utility.yul\":827:832   */\n  dup2\n    /* \"#utility.yul\":800:833   */\n  tag_28\n  jump\t// in\ntag_46:\n    /* \"#utility.yul\":696:839   */\n  swap3\n  swap2\n  pop\n  pop\n  jump\t// out\n    /* \"#utility.yul\":845:1352   */\ntag_3:\n    /* \"#utility.yul\":924:930   */\n  0x00\n    /* \"#utility.yul\":932:938   */\n  dup1\n    /* \"#utility.yul\":981:983   */\n  0x40\n    /* \"#utility.yul\":969:978   */\n  dup4\n    /* \"#utility.yul\":960:967   */\n  dup6\n    /* \"#utility.yul\":956:979   */\n  sub\n    /* \"#utility.yul\":952:984   */\n  slt\n    /* \"#utility.yul\":949:1068   */\n  iszero\n  tag_48\n  jumpi\n    /* \"#utility.yul\":987:1066   */\n  tag_49\n  tag_24\n  jump\t// in\ntag_49:\n    /* \"#utility.yul\":949:1068   */\ntag_48:\n    /* \"#utility.yul\":1107:1108   */\n  0x00\n    /* \"#utility.yul\":1132:1196   */\n  tag_50\n    /* \"#utility.yul\":1188:1195   */\n  dup6\n    /* \"#utility.yul\":1179:1185   */\n  dup3\n    /* \"#utility.yul\":1168:1177   */\n  dup7\n    /* \"#utility.yul\":1164:1186   */\n  add\n    /* \"#utility.yul\":1132:1196   */\n  tag_29\n  jump\t// in\ntag_50:\n    /* \"#utility.yul\":1122:1196   */\n  swap3\n  pop\n    /* \"#utility.yul\":1078:1206   */\n  pop\n    /* \"#utility.yul\":1245:1247   */\n  0x20\n    /* \"#utility.yul\":1271:1335   */\n  tag_51\n    /* \"#utility.yul\":1327:1334   */\n  dup6\n    /* \"#utility.yul\":1318:1324   */\n  dup3\n    /* \"#utility.yul\":1307:1316   */\n  dup7\n    /* \"#utility.yul\":1303:1325   */\n  add\n    /* \"#utility.yul\":1271:1335   */\n  tag_29\n  jump\t// in\ntag_51:\n    /* \"#utility.yul\":1261:1335   */\n  swap2\n  pop\n    /* \"#utility.yul\":1216:1345   */\n  pop\n    /* \"#utility.yul\":845:1352   */\n  swap3\n  pop\n  swap3\n  swap1\n  pop\n  jump\t// out\n    /* \"#utility.yul\":1358:1527   */\ntag_30:\n    /* \"#utility.yul\":1442:1453   */\n  0x00\n    /* \"#utility.yul\":1476:1482   */\n  dup3\n    /* \"#utility.yul\":1471:1474   */\n  dup3\n    /* \"#utility.yul\":1464:1483   */\n  mstore\n    /* \"#utility.yul\":1516:1520   */\n  0x20\n    /* \"#utility.yul\":1511:1514   */\n  dup3\n    /* \"#utility.yul\":1507:1521   */\n  add\n    /* \"#utility.yul\":1492:1521   */\n  swap1\n  pop\n    /* \"#utility.yul\":1358:1527   */\n  swap3\n  swap2\n  pop\n  pop\n  jump\t// out\n    /* \"#utility.yul\":1533:1707   */\ntag_31:\n    /* \"#utility.yul\":1673:1699   */\n  0x43616e6e6f7420736574206f776e657220746f207a65726f0000000000000000\n    /* \"#utility.yul\":1669:1670   */\n  0x00\n    /* \"#utility.yul\":1661:1667   */\n  dup3\n    /* \"#utility.yul\":1657:1671   */\n  add\n    /* \"#utility.yul\":1650:1700   */\n  mstore\n    /* \"#utility.yul\":1533:1707   */\n  pop\n  jump\t// out\n    /* \"#utility.yul\":1713:2079   */\ntag_32:\n    /* \"#utility.yul\":1855:1858   */\n  0x00\n    /* \"#utility.yul\":1876:1943   */\n  tag_55\n    /* \"#utility.yul\":1940:1942   */\n  0x18\n    /* \"#utility.yul\":1935:1938   */\n  dup4\n    /* \"#utility.yul\":1876:1943   */\n  tag_30\n  jump\t// in\ntag_55:\n    /* \"#utility.yul\":1869:1943   */\n  swap2\n  pop\n    /* \"#utility.yul\":1952:2045   */\n  tag_56\n    /* \"#utility.yul\":2041:2044   */\n  dup3\n    /* \"#utility.yul\":1952:2045   */\n  tag_31\n  jump\t// in\ntag_56:\n    /* \"#utility.yul\":2070:2072   */\n  0x20\n    /* \"#utility.yul\":2065:2068   */\n  dup3\n    /* \"#utility.yul\":2061:2073   */\n  add\n    /* \"#utility.yul\":2054:2073   */\n  swap1\n  pop\n    /* \"#utility.yul\":1713:2079   */\n  swap2\n  swap1\n  pop\n  jump\t// out\n    /* \"#utility.yul\":2085:2504   */\ntag_11:\n    /* \"#utility.yul\":2251:2255   */\n  0x00\n    /* \"#utility.yul\":2289:2291   */\n  0x20\n    /* \"#utility.yul\":2278:2287   */\n  dup3\n    /* \"#utility.yul\":2274:2292   */\n  add\n    /* \"#utility.yul\":2266:2292   */\n  swap1\n  pop\n    /* \"#utility.yul\":2338:2347   */\n  dup2\n    /* \"#utility.yul\":2332:2336   */\n  dup2\n    /* \"#utility.yul\":2328:2348   */\n  sub\n    /* \"#utility.yul\":2324:2325   */\n  0x00\n    /* \"#utility.yul\":2313:2322   */\n  dup4\n    /* \"#utility.yul\":2309:2326   */\n  add\n    /* \"#utility.yul\":2302:2349   */\n  mstore\n    /* \"#utility.yul\":2366:2497   */\n  tag_58\n    /* \"#utility.yul\":2492:2496   */\n  dup2\n    /* \"#utility.yul\":2366:2497   */\n  tag_32\n  jump\t// in\ntag_58:\n    /* \"#utility.yul\":2358:2497   */\n  swap1\n  pop\n    /* \"#utility.yul\":2085:2504   */\n  swap2\n  swap1\n  pop\n  jump\t// out\n    /* \"#utility.yul\":2510:2683   */\ntag_33:\n    /* \"#utility.yul\":2650:2675   */\n  0x43616e6e6f74207472616e7366657220746f2073656c66000000000000000000\n    /* \"#utility.yul\":2646:2647   */\n  0x00\n    /* \"#utility.yul\":2638:2644   */\n  dup3\n    /* \"#utility.yul\":2634:2648   */\n  add\n    /* \"#utility.yul\":2627:2676   */\n  mstore\n    /* \"#utility.yul\":2510:2683   */\n  pop\n  jump\t// out\n    /* \"#utility.yul\":2689:3055   */\ntag_34:\n    /* \"#utility.yul\":2831:2834   */\n  0x00\n    /* \"#utility.yul\":2852:2919   */\n  tag_61\n    /* \"#utility.yul\":2916:2918   */\n  0x17\n    /* \"#utility.yul\":2911:2914   */\n  dup4\n    /* \"#utility.yul\":2852:2919   */\n  tag_30\n  jump\t// in\ntag_61:\n    /* \"#utility.yul\":2845:2919   */\n  swap2\n  pop\n    /* \"#utility.yul\":2928:3021   */\n  tag_62\n    /* \"#utility.yul\":3017:3020   */\n  dup3\n    /* \"#utility.yul\":2928:3021   */\n  tag_33\n  jump\t// in\ntag_62:\n    /* \"#utility.yul\":3046:3048   */\n  0x20\n    /* \"#utility.yul\":3041:3044   */\n  dup3\n    /* \"#utility.yul\":3037:3049   */\n  add\n    /* \"#utility.yul\":3030:3049   */\n  swap1\n  pop\n    /* \"#utility.yul\":2689:3055   */\n  swap2\n  swap1\n  pop\n  jump\t// out\n    /* \"#utility.yul\":3061:3480   */\ntag_22:\n    /* \"#utility.yul\":3227:3231   */\n  0x00\n    /* \"#utility.yul\":3265:3267   */\n  0x20\n    /* \"#utility.yul\":3254:3263   */\n  dup3\n    /* \"#utility.yul\":3250:3268   */\n  add\n    /* \"#utility.yul\":3242:3268   */\n  swap1\n  pop\n    /* \"#utility.yul\":3314:3323   */\n  dup2\n    /* \"#utility.yul\":3308:3312   */\n  dup2\n    /* \"#utility.yul\":3304:3324   */\n  sub\n    /* \"#utility.yul\":3300:3301   */\n  0x00\n    /* \"#utility.yul\":3289:3298   */\n  dup4\n    /* \"#utility.yul\":3285:3302   */\n  add\n    /* \"#utility.yul\":3278:3325   */\n  mstore\n    /* \"#utility.yul\":3342:3473   */\n  tag_64\n    /* \"#utility.yul\":3468:3472   */\n  dup2\n    /* \"#utility.yul\":3342:3473   */\n  tag_34\n  jump\t// in\ntag_64:\n    /* \"#utility.yul\":3334:3473   */\n  swap1\n  pop\n    /* \"#utility.yul\":3061:3480   */\n  swap2\n  swap1\n  pop\n  jump\t// out\n    /* \"docs.chain.link/samples/CCIP/Sender.sol\":474:2858  contract Sender is OwnerIsCreator {... */\ntag_18:\n  dataSize(sub_0)\n  dup1\n  dataOffset(sub_0)\n  0x00\n  codecopy\n  0x00\n  return\nstop\n\nsub_0: assembly {\n        /* \"docs.chain.link/samples/CCIP/Sender.sol\":474:2858  contract Sender is OwnerIsCreator {... */\n      mstore(0x40, 0x80)\n      callvalue\n      dup1\n      iszero\n      tag_1\n      jumpi\n      0x00\n      dup1\n      revert\n    tag_1:\n      pop\n      jumpi(tag_2, lt(calldatasize, 0x04))\n      shr(0xe0, calldataload(0x00))\n      dup1\n      0x3bd0a821\n      eq\n      tag_3\n      jumpi\n      dup1\n      0x79ba5097\n      eq\n      tag_4\n      jumpi\n      dup1\n      0x8da5cb5b\n      eq\n      tag_5\n      jumpi\n      dup1\n      0xf2fde38b\n      eq\n      tag_6\n      jumpi\n    tag_2:\n      0x00\n      dup1\n      revert\n        /* \"docs.chain.link/samples/CCIP/Sender.sol\":1215:2856  function sendMessage(... */\n    tag_3:\n      tag_7\n      0x04\n      dup1\n      calldatasize\n      sub\n      dup2\n      add\n      swap1\n      tag_8\n      swap2\n      swap1\n      tag_9\n      jump\t// in\n    tag_8:\n      tag_10\n      jump\t// in\n    tag_7:\n      mload(0x40)\n      tag_11\n      swap2\n      swap1\n      tag_12\n      jump\t// in\n    tag_11:\n      mload(0x40)\n      dup1\n      swap2\n      sub\n      swap1\n      return\n        /* \"@chainlink/contracts-ccip@1.5.0/src/v0.8/shared/access/ConfirmedOwnerWithProposal.sol\":1026:1342  function acceptOwnership() external override {... */\n    tag_4:\n      tag_13\n      tag_14\n      jump\t// in\n    tag_13:\n      stop\n        /* \"@chainlink/contracts-ccip@1.5.0/src/v0.8/shared/access/ConfirmedOwnerWithProposal.sol\":1382:1463  function owner() public view override returns (address) {... */\n    tag_5:\n      tag_15\n      tag_16\n      jump\t// in\n    tag_15:\n      mload(0x40)\n      tag_17\n      swap2\n      swap1\n      tag_18\n      jump\t// in\n    tag_17:\n      mload(0x40)\n      dup1\n      swap2\n      sub\n      swap1\n      return\n        /* \"@chainlink/contracts-ccip@1.5.0/src/v0.8/shared/access/ConfirmedOwnerWithProposal.sol\":847:945  function transferOwnership(address to) public override onlyOwner {... */\n    tag_6:\n      tag_19\n      0x04\n      dup1\n      calldatasize\n      sub\n      dup2\n      add\n      swap1\n      tag_20\n      swap2\n      swap1\n      tag_21\n      jump\t// in\n    tag_20:\n      tag_22\n      jump\t// in\n    tag_19:\n      stop\n        /* \"docs.chain.link/samples/CCIP/Sender.sol\":1215:2856  function sendMessage(... */\n    tag_10:\n        /* \"docs.chain.link/samples/CCIP/Sender.sol\":1478:1495  bytes32 messageId */\n      0x00\n        /* \"@chainlink/contracts-ccip@1.5.0/src/v0.8/shared/access/ConfirmedOwnerWithProposal.sol\":2075:2095  _validateOwnership() */\n      tag_24\n        /* \"@chainlink/contracts-ccip@1.5.0/src/v0.8/shared/access/ConfirmedOwnerWithProposal.sol\":2075:2093  _validateOwnership */\n      tag_25\n        /* \"@chainlink/contracts-ccip@1.5.0/src/v0.8/shared/access/ConfirmedOwnerWithProposal.sol\":2075:2095  _validateOwnership() */\n      jump\t// in\n    tag_24:\n        /* \"docs.chain.link/samples/CCIP/Sender.sol\":1507:1533  PatientInfo memory patient */\n      0x00\n        /* \"docs.chain.link/samples/CCIP/Sender.sol\":1536:1753  PatientInfo({... */\n      mload(0x40)\n      dup1\n      0xa0\n      add\n      0x40\n      mstore\n      dup1\n        /* \"docs.chain.link/samples/CCIP/Sender.sol\":1575:1586  patientName */\n      dup11\n      dup11\n        /* \"docs.chain.link/samples/CCIP/Sender.sol\":1536:1753  PatientInfo({... */\n      dup1\n      dup1\n      0x1f\n      add\n      0x20\n      dup1\n      swap2\n      div\n      mul\n      0x20\n      add\n      mload(0x40)\n      swap1\n      dup2\n      add\n      0x40\n      mstore\n      dup1\n      swap4\n      swap3\n      swap2\n      swap1\n      dup2\n      dup2\n      mstore\n      0x20\n      add\n      dup4\n      dup4\n      dup1\n      dup3\n      dup5\n      calldatacopy\n      0x00\n      dup2\n      dup5\n      add\n      mstore\n      not(0x1f)\n      0x1f\n      dup3\n      add\n      and\n      swap1\n      pop\n      dup1\n      dup4\n      add\n      swap3\n      pop\n      pop\n      pop\n      pop\n      pop\n      pop\n      pop\n      dup2\n      mstore\n      0x20\n      add\n        /* \"docs.chain.link/samples/CCIP/Sender.sol\":1612:1622  patientAge */\n      dup9\n        /* \"docs.chain.link/samples/CCIP/Sender.sol\":1536:1753  PatientInfo({... */\n      dup2\n      mstore\n      0x20\n      add\n        /* \"docs.chain.link/samples/CCIP/Sender.sol\":1648:1658  bloodGroup */\n      dup8\n      dup8\n        /* \"docs.chain.link/samples/CCIP/Sender.sol\":1536:1753  PatientInfo({... */\n      dup1\n      dup1\n      0x1f\n      add\n      0x20\n      dup1\n      swap2\n      div\n      mul\n      0x20\n      add\n      mload(0x40)\n      swap1\n      dup2\n      add\n      0x40\n      mstore\n      dup1\n      swap4\n      swap3\n      swap2\n      swap1\n      dup2\n      dup2\n      mstore\n      0x20\n      add\n      dup4\n      dup4\n      dup1\n      dup3\n      dup5\n      calldatacopy\n      0x00\n      dup2\n      dup5\n      add\n      mstore\n      not(0x1f)\n      0x1f\n      dup3\n      add\n      and\n      swap1\n      pop\n      dup1\n      dup4\n      add\n      swap3\n      pop\n      pop\n      pop\n      pop\n      pop\n      pop\n      pop\n      dup2\n      mstore\n      0x20\n      add\n        /* \"docs.chain.link/samples/CCIP/Sender.sol\":1688:1702  medicalHistory */\n      dup6\n      dup6\n        /* \"docs.chain.link/samples/CCIP/Sender.sol\":1536:1753  PatientInfo({... */\n      dup1\n      dup1\n      0x1f\n      add\n      0x20\n      dup1\n      swap2\n      div\n      mul\n      0x20\n      add\n      mload(0x40)\n      swap1\n      dup2\n      add\n      0x40\n      mstore\n      dup1\n      swap4\n      swap3\n      swap2\n      swap1\n      dup2\n      dup2\n      mstore\n      0x20\n      add\n      dup4\n      dup4\n      dup1\n      dup3\n      dup5\n      calldatacopy\n      0x00\n      dup2\n      dup5\n      add\n      mstore\n      not(0x1f)\n      0x1f\n      dup3\n      add\n      and\n      swap1\n      pop\n      dup1\n      dup4\n      add\n      swap3\n      pop\n      pop\n      pop\n      pop\n      pop\n      pop\n      pop\n      dup2\n      mstore\n      0x20\n      add\n        /* \"docs.chain.link/samples/CCIP/Sender.sol\":1727:1742  block.timestamp */\n      timestamp\n        /* \"docs.chain.link/samples/CCIP/Sender.sol\":1536:1753  PatientInfo({... */\n      dup2\n      mstore\n      pop\n        /* \"docs.chain.link/samples/CCIP/Sender.sol\":1507:1753  PatientInfo memory patient = PatientInfo({... */\n      swap1\n      pop\n        /* \"docs.chain.link/samples/CCIP/Sender.sol\":1764:1807  Client.EVM2AnyMessage memory evm2AnyMessage */\n      0x00\n        /* \"docs.chain.link/samples/CCIP/Sender.sol\":1810:2236  Client.EVM2AnyMessage({... */\n      mload(0x40)\n      dup1\n      0xa0\n      add\n      0x40\n      mstore\n      dup1\n        /* \"docs.chain.link/samples/CCIP/Sender.sol\":1867:1875  receiver */\n      dup13\n        /* \"docs.chain.link/samples/CCIP/Sender.sol\":1856:1876  abi.encode(receiver) */\n      add(0x20, mload(0x40))\n      tag_27\n      swap2\n      swap1\n      tag_18\n      jump\t// in\n    tag_27:\n      mload(0x40)\n      0x20\n      dup2\n      dup4\n      sub\n      sub\n      dup2\n      mstore\n      swap1\n      0x40\n      mstore\n        /* \"docs.chain.link/samples/CCIP/Sender.sol\":1810:2236  Client.EVM2AnyMessage({... */\n      dup2\n      mstore\n      0x20\n      add\n        /* \"docs.chain.link/samples/CCIP/Sender.sol\":1907:1914  patient */\n      dup4\n        /* \"docs.chain.link/samples/CCIP/Sender.sol\":1896:1915  abi.encode(patient) */\n      add(0x20, mload(0x40))\n      tag_28\n      swap2\n      swap1\n      tag_29\n      jump\t// in\n    tag_28:\n      mload(0x40)\n      0x20\n      dup2\n      dup4\n      sub\n      sub\n      dup2\n      mstore\n      swap1\n      0x40\n      mstore\n        /* \"docs.chain.link/samples/CCIP/Sender.sol\":1810:2236  Client.EVM2AnyMessage({... */\n      dup2\n      mstore\n      0x20\n      add\n        /* \"docs.chain.link/samples/CCIP/Sender.sol\":1971:1972  0 */\n      0x00\n        /* \"docs.chain.link/samples/CCIP/Sender.sol\":1943:1973  new Client.EVMTokenAmount[](0) */\n      0xffffffffffffffff\n      dup2\n      gt\n      iszero\n      tag_30\n      jumpi\n      tag_31\n      tag_32\n      jump\t// in\n    tag_31:\n    tag_30:\n      mload(0x40)\n      swap1\n      dup1\n      dup3\n      mstore\n      dup1\n      0x20\n      mul\n      0x20\n      add\n      dup3\n      add\n      0x40\n      mstore\n      dup1\n      iszero\n      tag_33\n      jumpi\n      dup2\n      0x20\n      add\n    tag_34:\n      tag_35\n      tag_36\n      jump\t// in\n    tag_35:\n      dup2\n      mstore\n      0x20\n      add\n      swap1\n      0x01\n      swap1\n      sub\n      swap1\n      dup2\n      tag_34\n      jumpi\n      swap1\n      pop\n    tag_33:\n      pop\n        /* \"docs.chain.link/samples/CCIP/Sender.sol\":1810:2236  Client.EVM2AnyMessage({... */\n      dup2\n      mstore\n      0x20\n      add\n        /* \"docs.chain.link/samples/CCIP/Sender.sol\":2213:2224  s_linkToken */\n      0x03\n      0x00\n      swap1\n      sload\n      swap1\n      0x0100\n      exp\n      swap1\n      div\n      0xffffffffffffffffffffffffffffffffffffffff\n      and\n        /* \"docs.chain.link/samples/CCIP/Sender.sol\":1810:2236  Client.EVM2AnyMessage({... */\n      0xffffffffffffffffffffffffffffffffffffffff\n      and\n      dup2\n      mstore\n      0x20\n      add\n        /* \"docs.chain.link/samples/CCIP/Sender.sol\":1998:2181  Client._argsToBytes(... */\n      tag_37\n        /* \"docs.chain.link/samples/CCIP/Sender.sol\":2035:2167  Client.EVMExtraArgsV2({... */\n      mload(0x40)\n      dup1\n      0x40\n      add\n      0x40\n      mstore\n      dup1\n        /* \"docs.chain.link/samples/CCIP/Sender.sol\":2089:2096  200_000 */\n      0x030d40\n        /* \"docs.chain.link/samples/CCIP/Sender.sol\":2035:2167  Client.EVMExtraArgsV2({... */\n      dup2\n      mstore\n      0x20\n      add\n        /* \"docs.chain.link/samples/CCIP/Sender.sol\":2144:2148  true */\n      0x01\n        /* \"docs.chain.link/samples/CCIP/Sender.sol\":2035:2167  Client.EVMExtraArgsV2({... */\n      iszero\n      iszero\n      dup2\n      mstore\n      pop\n        /* \"docs.chain.link/samples/CCIP/Sender.sol\":1998:2017  Client._argsToBytes */\n      tag_38\n        /* \"docs.chain.link/samples/CCIP/Sender.sol\":1998:2181  Client._argsToBytes(... */\n      jump\t// in\n    tag_37:\n        /* \"docs.chain.link/samples/CCIP/Sender.sol\":1810:2236  Client.EVM2AnyMessage({... */\n      dup2\n      mstore\n      pop\n        /* \"docs.chain.link/samples/CCIP/Sender.sol\":1764:2236  Client.EVM2AnyMessage memory evm2AnyMessage = Client.EVM2AnyMessage({... */\n      swap1\n      pop\n        /* \"docs.chain.link/samples/CCIP/Sender.sol\":2247:2259  uint256 fees */\n      0x00\n        /* \"docs.chain.link/samples/CCIP/Sender.sol\":2262:2270  s_router */\n      0x02\n      0x00\n      swap1\n      sload\n      swap1\n      0x0100\n      exp\n      swap1\n      div\n      0xffffffffffffffffffffffffffffffffffffffff\n      and\n        /* \"docs.chain.link/samples/CCIP/Sender.sol\":2262:2277  s_router.getFee */\n      0xffffffffffffffffffffffffffffffffffffffff\n      and\n      0x20487ded\n        /* \"docs.chain.link/samples/CCIP/Sender.sol\":2291:2315  destinationChainSelector */\n      dup15\n        /* \"docs.chain.link/samples/CCIP/Sender.sol\":2329:2343  evm2AnyMessage */\n      dup5\n        /* \"docs.chain.link/samples/CCIP/Sender.sol\":2262:2353  s_router.getFee(... */\n      mload(0x40)\n      dup4\n      0xffffffff\n      and\n      0xe0\n      shl\n      dup2\n      mstore\n      0x04\n      add\n      tag_39\n      swap3\n      swap2\n      swap1\n      tag_40\n      jump\t// in\n    tag_39:\n      0x20\n      mload(0x40)\n      dup1\n      dup4\n      sub\n      dup2\n      dup7\n      gas\n      staticcall\n      iszero\n      dup1\n      iszero\n      tag_42\n      jumpi\n      returndatasize\n      0x00\n      dup1\n      returndatacopy\n      revert(0x00, returndatasize)\n    tag_42:\n      pop\n      pop\n      pop\n      pop\n      mload(0x40)\n      returndatasize\n      not(0x1f)\n      0x1f\n      dup3\n      add\n      and\n      dup3\n      add\n      dup1\n      0x40\n      mstore\n      pop\n      dup2\n      add\n      swap1\n      tag_43\n      swap2\n      swap1\n      tag_44\n      jump\t// in\n    tag_43:\n        /* \"docs.chain.link/samples/CCIP/Sender.sol\":2247:2353  uint256 fees = s_router.getFee(... */\n      swap1\n      pop\n        /* \"docs.chain.link/samples/CCIP/Sender.sol\":2375:2386  s_linkToken */\n      0x03\n      0x00\n      swap1\n      sload\n      swap1\n      0x0100\n      exp\n      swap1\n      div\n      0xffffffffffffffffffffffffffffffffffffffff\n      and\n        /* \"docs.chain.link/samples/CCIP/Sender.sol\":2375:2396  s_linkToken.balanceOf */\n      0xffffffffffffffffffffffffffffffffffffffff\n      and\n      0x70a08231\n        /* \"docs.chain.link/samples/CCIP/Sender.sol\":2405:2409  this */\n      address\n        /* \"docs.chain.link/samples/CCIP/Sender.sol\":2375:2411  s_linkToken.balanceOf(address(this)) */\n      mload(0x40)\n      dup3\n      0xffffffff\n      and\n      0xe0\n      shl\n      dup2\n      mstore\n      0x04\n      add\n      tag_45\n      swap2\n      swap1\n      tag_18\n      jump\t// in\n    tag_45:\n      0x20\n      mload(0x40)\n      dup1\n      dup4\n      sub\n      dup2\n      dup7\n      gas\n      staticcall\n      iszero\n      dup1\n      iszero\n      tag_47\n      jumpi\n      returndatasize\n      0x00\n      dup1\n      returndatacopy\n      revert(0x00, returndatasize)\n    tag_47:\n      pop\n      pop\n      pop\n      pop\n      mload(0x40)\n      returndatasize\n      not(0x1f)\n      0x1f\n      dup3\n      add\n      and\n      dup3\n      add\n      dup1\n      0x40\n      mstore\n      pop\n      dup2\n      add\n      swap1\n      tag_48\n      swap2\n      swap1\n      tag_44\n      jump\t// in\n    tag_48:\n        /* \"docs.chain.link/samples/CCIP/Sender.sol\":2368:2372  fees */\n      dup2\n        /* \"docs.chain.link/samples/CCIP/Sender.sol\":2368:2411  fees > s_linkToken.balanceOf(address(this)) */\n      gt\n        /* \"docs.chain.link/samples/CCIP/Sender.sol\":2364:2492  if (fees > s_linkToken.balanceOf(address(this)))... */\n      iszero\n      tag_49\n      jumpi\n        /* \"docs.chain.link/samples/CCIP/Sender.sol\":2449:2460  s_linkToken */\n      0x03\n      0x00\n      swap1\n      sload\n      swap1\n      0x0100\n      exp\n      swap1\n      div\n      0xffffffffffffffffffffffffffffffffffffffff\n      and\n        /* \"docs.chain.link/samples/CCIP/Sender.sol\":2449:2470  s_linkToken.balanceOf */\n      0xffffffffffffffffffffffffffffffffffffffff\n      and\n      0x70a08231\n        /* \"docs.chain.link/samples/CCIP/Sender.sol\":2479:2483  this */\n      address\n        /* \"docs.chain.link/samples/CCIP/Sender.sol\":2449:2485  s_linkToken.balanceOf(address(this)) */\n      mload(0x40)\n      dup3\n      0xffffffff\n      and\n      0xe0\n      shl\n      dup2\n      mstore\n      0x04\n      add\n      tag_50\n      swap2\n      swap1\n      tag_18\n      jump\t// in\n    tag_50:\n      0x20\n      mload(0x40)\n      dup1\n      dup4\n      sub\n      dup2\n      dup7\n      gas\n      staticcall\n      iszero\n      dup1\n      iszero\n      tag_52\n      jumpi\n      returndatasize\n      0x00\n      dup1\n      returndatacopy\n      revert(0x00, returndatasize)\n    tag_52:\n      pop\n      pop\n      pop\n      pop\n      mload(0x40)\n      returndatasize\n      not(0x1f)\n      0x1f\n      dup3\n      add\n      and\n      dup3\n      add\n      dup1\n      0x40\n      mstore\n      pop\n      dup2\n      add\n      swap1\n      tag_53\n      swap2\n      swap1\n      tag_44\n      jump\t// in\n    tag_53:\n        /* \"docs.chain.link/samples/CCIP/Sender.sol\":2487:2491  fees */\n      dup2\n        /* \"docs.chain.link/samples/CCIP/Sender.sol\":2432:2492  NotEnoughBalance(s_linkToken.balanceOf(address(this)), fees) */\n      mload(0x40)\n      0x8f0f420600000000000000000000000000000000000000000000000000000000\n      dup2\n      mstore\n      0x04\n      add\n      tag_54\n      swap3\n      swap2\n      swap1\n      tag_55\n      jump\t// in\n    tag_54:\n      mload(0x40)\n      dup1\n      swap2\n      sub\n      swap1\n      revert\n        /* \"docs.chain.link/samples/CCIP/Sender.sol\":2364:2492  if (fees > s_linkToken.balanceOf(address(this)))... */\n    tag_49:\n        /* \"docs.chain.link/samples/CCIP/Sender.sol\":2503:2514  s_linkToken */\n      0x03\n      0x00\n      swap1\n      sload\n      swap1\n      0x0100\n      exp\n      swap1\n      div\n      0xffffffffffffffffffffffffffffffffffffffff\n      and\n        /* \"docs.chain.link/samples/CCIP/Sender.sol\":2503:2522  s_linkToken.approve */\n      0xffffffffffffffffffffffffffffffffffffffff\n      and\n      0x095ea7b3\n        /* \"docs.chain.link/samples/CCIP/Sender.sol\":2531:2539  s_router */\n      0x02\n      0x00\n      swap1\n      sload\n      swap1\n      0x0100\n      exp\n      swap1\n      div\n      0xffffffffffffffffffffffffffffffffffffffff\n      and\n        /* \"docs.chain.link/samples/CCIP/Sender.sol\":2542:2546  fees */\n      dup4\n        /* \"docs.chain.link/samples/CCIP/Sender.sol\":2503:2547  s_linkToken.approve(address(s_router), fees) */\n      mload(0x40)\n      dup4\n      0xffffffff\n      and\n      0xe0\n      shl\n      dup2\n      mstore\n      0x04\n      add\n      tag_56\n      swap3\n      swap2\n      swap1\n      tag_57\n      jump\t// in\n    tag_56:\n      0x20\n      mload(0x40)\n      dup1\n      dup4\n      sub\n      dup2\n      0x00\n      dup8\n      gas\n      call\n      iszero\n      dup1\n      iszero\n      tag_59\n      jumpi\n      returndatasize\n      0x00\n      dup1\n      returndatacopy\n      revert(0x00, returndatasize)\n    tag_59:\n      pop\n      pop\n      pop\n      pop\n      mload(0x40)\n      returndatasize\n      not(0x1f)\n      0x1f\n      dup3\n      add\n      and\n      dup3\n      add\n      dup1\n      0x40\n      mstore\n      pop\n      dup2\n      add\n      swap1\n      tag_60\n      swap2\n      swap1\n      tag_61\n      jump\t// in\n    tag_60:\n      pop\n        /* \"docs.chain.link/samples/CCIP/Sender.sol\":2570:2578  s_router */\n      0x02\n      0x00\n      swap1\n      sload\n      swap1\n      0x0100\n      exp\n      swap1\n      div\n      0xffffffffffffffffffffffffffffffffffffffff\n      and\n        /* \"docs.chain.link/samples/CCIP/Sender.sol\":2570:2587  s_router.ccipSend */\n      0xffffffffffffffffffffffffffffffffffffffff\n      and\n      0x96f4e9f9\n        /* \"docs.chain.link/samples/CCIP/Sender.sol\":2588:2612  destinationChainSelector */\n      dup15\n        /* \"docs.chain.link/samples/CCIP/Sender.sol\":2614:2628  evm2AnyMessage */\n      dup5\n        /* \"docs.chain.link/samples/CCIP/Sender.sol\":2570:2629  s_router.ccipSend(destinationChainSelector, evm2AnyMessage) */\n      mload(0x40)\n      dup4\n      0xffffffff\n      and\n      0xe0\n      shl\n      dup2\n      mstore\n      0x04\n      add\n      tag_62\n      swap3\n      swap2\n      swap1\n      tag_40\n      jump\t// in\n    tag_62:\n      0x20\n      mload(0x40)\n      dup1\n      dup4\n      sub\n      dup2\n      0x00\n      dup8\n      gas\n      call\n      iszero\n      dup1\n      iszero\n      tag_64\n      jumpi\n      returndatasize\n      0x00\n      dup1\n      returndatacopy\n      revert(0x00, returndatasize)\n    tag_64:\n      pop\n      pop\n      pop\n      pop\n      mload(0x40)\n      returndatasize\n      not(0x1f)\n      0x1f\n      dup3\n      add\n      and\n      dup3\n      add\n      dup1\n      0x40\n      mstore\n      pop\n      dup2\n      add\n      swap1\n      tag_65\n      swap2\n      swap1\n      tag_66\n      jump\t// in\n    tag_65:\n        /* \"docs.chain.link/samples/CCIP/Sender.sol\":2558:2629  messageId = s_router.ccipSend(destinationChainSelector, evm2AnyMessage) */\n      swap4\n      pop\n        /* \"docs.chain.link/samples/CCIP/Sender.sol\":2693:2717  destinationChainSelector */\n      dup13\n        /* \"docs.chain.link/samples/CCIP/Sender.sol\":2645:2822  MessageSent(... */\n      0xffffffffffffffff\n      and\n        /* \"docs.chain.link/samples/CCIP/Sender.sol\":2670:2679  messageId */\n      dup5\n        /* \"docs.chain.link/samples/CCIP/Sender.sol\":2645:2822  MessageSent(... */\n      0xdc760d575797bec6428e86e510569b89b22d6b842b392fadd8fe46421e272362\n        /* \"docs.chain.link/samples/CCIP/Sender.sol\":2731:2739  receiver */\n      dup15\n        /* \"docs.chain.link/samples/CCIP/Sender.sol\":2753:2760  patient */\n      dup7\n        /* \"docs.chain.link/samples/CCIP/Sender.sol\":2782:2793  s_linkToken */\n      0x03\n      0x00\n      swap1\n      sload\n      swap1\n      0x0100\n      exp\n      swap1\n      div\n      0xffffffffffffffffffffffffffffffffffffffff\n      and\n        /* \"docs.chain.link/samples/CCIP/Sender.sol\":2808:2812  fees */\n      dup7\n        /* \"docs.chain.link/samples/CCIP/Sender.sol\":2645:2822  MessageSent(... */\n      mload(0x40)\n      tag_67\n      swap5\n      swap4\n      swap3\n      swap2\n      swap1\n      tag_68\n      jump\t// in\n    tag_67:\n      mload(0x40)\n      dup1\n      swap2\n      sub\n      swap1\n      log3\n        /* \"docs.chain.link/samples/CCIP/Sender.sol\":2833:2849  return messageId */\n      pop\n      pop\n      pop\n        /* \"docs.chain.link/samples/CCIP/Sender.sol\":1215:2856  function sendMessage(... */\n      swap10\n      swap9\n      pop\n      pop\n      pop\n      pop\n      pop\n      pop\n      pop\n      pop\n      pop\n      jump\t// out\n        /* \"@chainlink/contracts-ccip@1.5.0/src/v0.8/shared/access/ConfirmedOwnerWithProposal.sol\":1026:1342  function acceptOwnership() external override {... */\n    tag_14:\n        /* \"@chainlink/contracts-ccip@1.5.0/src/v0.8/shared/access/ConfirmedOwnerWithProposal.sol\":1150:1164  s_pendingOwner */\n      0x01\n      0x00\n      swap1\n      sload\n      swap1\n      0x0100\n      exp\n      swap1\n      div\n      0xffffffffffffffffffffffffffffffffffffffff\n      and\n        /* \"@chainlink/contracts-ccip@1.5.0/src/v0.8/shared/access/ConfirmedOwnerWithProposal.sol\":1136:1164  msg.sender == s_pendingOwner */\n      0xffffffffffffffffffffffffffffffffffffffff\n      and\n        /* \"@chainlink/contracts-ccip@1.5.0/src/v0.8/shared/access/ConfirmedOwnerWithProposal.sol\":1136:1146  msg.sender */\n      caller\n        /* \"@chainlink/contracts-ccip@1.5.0/src/v0.8/shared/access/ConfirmedOwnerWithProposal.sol\":1136:1164  msg.sender == s_pendingOwner */\n      0xffffffffffffffffffffffffffffffffffffffff\n      and\n      eq\n        /* \"@chainlink/contracts-ccip@1.5.0/src/v0.8/shared/access/ConfirmedOwnerWithProposal.sol\":1128:1191  require(msg.sender == s_pendingOwner, \"Must be proposed owner\") */\n      tag_70\n      jumpi\n      mload(0x40)\n      0x08c379a000000000000000000000000000000000000000000000000000000000\n      dup2\n      mstore\n      0x04\n      add\n      tag_71\n      swap1\n      tag_72\n      jump\t// in\n    tag_71:\n      mload(0x40)\n      dup1\n      swap2\n      sub\n      swap1\n      revert\n    tag_70:\n        /* \"@chainlink/contracts-ccip@1.5.0/src/v0.8/shared/access/ConfirmedOwnerWithProposal.sol\":1198:1214  address oldOwner */\n      0x00\n        /* \"@chainlink/contracts-ccip@1.5.0/src/v0.8/shared/access/ConfirmedOwnerWithProposal.sol\":1217:1224  s_owner */\n      dup1\n      0x00\n      swap1\n      sload\n      swap1\n      0x0100\n      exp\n      swap1\n      div\n      0xffffffffffffffffffffffffffffffffffffffff\n      and\n        /* \"@chainlink/contracts-ccip@1.5.0/src/v0.8/shared/access/ConfirmedOwnerWithProposal.sol\":1198:1224  address oldOwner = s_owner */\n      swap1\n      pop\n        /* \"@chainlink/contracts-ccip@1.5.0/src/v0.8/shared/access/ConfirmedOwnerWithProposal.sol\":1240:1250  msg.sender */\n      caller\n        /* \"@chainlink/contracts-ccip@1.5.0/src/v0.8/shared/access/ConfirmedOwnerWithProposal.sol\":1230:1237  s_owner */\n      0x00\n      dup1\n        /* \"@chainlink/contracts-ccip@1.5.0/src/v0.8/shared/access/ConfirmedOwnerWithProposal.sol\":1230:1250  s_owner = msg.sender */\n      0x0100\n      exp\n      dup2\n      sload\n      dup2\n      0xffffffffffffffffffffffffffffffffffffffff\n      mul\n      not\n      and\n      swap1\n      dup4\n      0xffffffffffffffffffffffffffffffffffffffff\n      and\n      mul\n      or\n      swap1\n      sstore\n      pop\n        /* \"@chainlink/contracts-ccip@1.5.0/src/v0.8/shared/access/ConfirmedOwnerWithProposal.sol\":1281:1282  0 */\n      0x00\n        /* \"@chainlink/contracts-ccip@1.5.0/src/v0.8/shared/access/ConfirmedOwnerWithProposal.sol\":1256:1270  s_pendingOwner */\n      0x01\n      0x00\n        /* \"@chainlink/contracts-ccip@1.5.0/src/v0.8/shared/access/ConfirmedOwnerWithProposal.sol\":1256:1283  s_pendingOwner = address(0) */\n      0x0100\n      exp\n      dup2\n      sload\n      dup2\n      0xffffffffffffffffffffffffffffffffffffffff\n      mul\n      not\n      and\n      swap1\n      dup4\n      0xffffffffffffffffffffffffffffffffffffffff\n      and\n      mul\n      or\n      swap1\n      sstore\n      pop\n        /* \"@chainlink/contracts-ccip@1.5.0/src/v0.8/shared/access/ConfirmedOwnerWithProposal.sol\":1326:1336  msg.sender */\n      caller\n        /* \"@chainlink/contracts-ccip@1.5.0/src/v0.8/shared/access/ConfirmedOwnerWithProposal.sol\":1295:1337  OwnershipTransferred(oldOwner, msg.sender) */\n      0xffffffffffffffffffffffffffffffffffffffff\n      and\n        /* \"@chainlink/contracts-ccip@1.5.0/src/v0.8/shared/access/ConfirmedOwnerWithProposal.sol\":1316:1324  oldOwner */\n      dup2\n        /* \"@chainlink/contracts-ccip@1.5.0/src/v0.8/shared/access/ConfirmedOwnerWithProposal.sol\":1295:1337  OwnershipTransferred(oldOwner, msg.sender) */\n      0xffffffffffffffffffffffffffffffffffffffff\n      and\n      0x8be0079c531659141344cd1fd0a4f28419497f9722a3daafe3b4186f6b6457e0\n      mload(0x40)\n      mload(0x40)\n      dup1\n      swap2\n      sub\n      swap1\n      log3\n        /* \"@chainlink/contracts-ccip@1.5.0/src/v0.8/shared/access/ConfirmedOwnerWithProposal.sol\":1071:1342  {... */\n      pop\n        /* \"@chainlink/contracts-ccip@1.5.0/src/v0.8/shared/access/ConfirmedOwnerWithProposal.sol\":1026:1342  function acceptOwnership() external override {... */\n      jump\t// out\n        /* \"@chainlink/contracts-ccip@1.5.0/src/v0.8/shared/access/ConfirmedOwnerWithProposal.sol\":1382:1463  function owner() public view override returns (address) {... */\n    tag_16:\n        /* \"@chainlink/contracts-ccip@1.5.0/src/v0.8/shared/access/ConfirmedOwnerWithProposal.sol\":1429:1436  address */\n      0x00\n        /* \"@chainlink/contracts-ccip@1.5.0/src/v0.8/shared/access/ConfirmedOwnerWithProposal.sol\":1451:1458  s_owner */\n      dup1\n      0x00\n      swap1\n      sload\n      swap1\n      0x0100\n      exp\n      swap1\n      div\n      0xffffffffffffffffffffffffffffffffffffffff\n      and\n        /* \"@chainlink/contracts-ccip@1.5.0/src/v0.8/shared/access/ConfirmedOwnerWithProposal.sol\":1444:1458  return s_owner */\n      swap1\n      pop\n        /* \"@chainlink/contracts-ccip@1.5.0/src/v0.8/shared/access/ConfirmedOwnerWithProposal.sol\":1382:1463  function owner() public view override returns (address) {... */\n      swap1\n      jump\t// out\n        /* \"@chainlink/contracts-ccip@1.5.0/src/v0.8/shared/access/ConfirmedOwnerWithProposal.sol\":847:945  function transferOwnership(address to) public override onlyOwner {... */\n    tag_22:\n        /* \"@chainlink/contracts-ccip@1.5.0/src/v0.8/shared/access/ConfirmedOwnerWithProposal.sol\":2075:2095  _validateOwnership() */\n      tag_75\n        /* \"@chainlink/contracts-ccip@1.5.0/src/v0.8/shared/access/ConfirmedOwnerWithProposal.sol\":2075:2093  _validateOwnership */\n      tag_25\n        /* \"@chainlink/contracts-ccip@1.5.0/src/v0.8/shared/access/ConfirmedOwnerWithProposal.sol\":2075:2095  _validateOwnership() */\n      jump\t// in\n    tag_75:\n        /* \"@chainlink/contracts-ccip@1.5.0/src/v0.8/shared/access/ConfirmedOwnerWithProposal.sol\":918:940  _transferOwnership(to) */\n      tag_77\n        /* \"@chainlink/contracts-ccip@1.5.0/src/v0.8/shared/access/ConfirmedOwnerWithProposal.sol\":937:939  to */\n      dup2\n        /* \"@chainlink/contracts-ccip@1.5.0/src/v0.8/shared/access/ConfirmedOwnerWithProposal.sol\":918:936  _transferOwnership */\n      tag_78\n        /* \"@chainlink/contracts-ccip@1.5.0/src/v0.8/shared/access/ConfirmedOwnerWithProposal.sol\":918:940  _transferOwnership(to) */\n      jump\t// in\n    tag_77:\n        /* \"@chainlink/contracts-ccip@1.5.0/src/v0.8/shared/access/ConfirmedOwnerWithProposal.sol\":847:945  function transferOwnership(address to) public override onlyOwner {... */\n      pop\n      jump\t// out\n        /* \"@chainlink/contracts-ccip@1.5.0/src/v0.8/shared/access/ConfirmedOwnerWithProposal.sol\":1809:1971  function _validateOwnership() internal view {... */\n    tag_25:\n        /* \"@chainlink/contracts-ccip@1.5.0/src/v0.8/shared/access/ConfirmedOwnerWithProposal.sol\":1932:1939  s_owner */\n      0x00\n      dup1\n      sload\n      swap1\n      0x0100\n      exp\n      swap1\n      div\n      0xffffffffffffffffffffffffffffffffffffffff\n      and\n        /* \"@chainlink/contracts-ccip@1.5.0/src/v0.8/shared/access/ConfirmedOwnerWithProposal.sol\":1918:1939  msg.sender == s_owner */\n      0xffffffffffffffffffffffffffffffffffffffff\n      and\n        /* \"@chainlink/contracts-ccip@1.5.0/src/v0.8/shared/access/ConfirmedOwnerWithProposal.sol\":1918:1928  msg.sender */\n      caller\n        /* \"@chainlink/contracts-ccip@1.5.0/src/v0.8/shared/access/ConfirmedOwnerWithProposal.sol\":1918:1939  msg.sender == s_owner */\n      0xffffffffffffffffffffffffffffffffffffffff\n      and\n      eq\n        /* \"@chainlink/contracts-ccip@1.5.0/src/v0.8/shared/access/ConfirmedOwnerWithProposal.sol\":1910:1966  require(msg.sender == s_owner, \"Only callable by owner\") */\n      tag_80\n      jumpi\n      mload(0x40)\n      0x08c379a000000000000000000000000000000000000000000000000000000000\n      dup2\n      mstore\n      0x04\n      add\n      tag_81\n      swap1\n      tag_82\n      jump\t// in\n    tag_81:\n      mload(0x40)\n      dup1\n      swap2\n      sub\n      swap1\n      revert\n    tag_80:\n        /* \"@chainlink/contracts-ccip@1.5.0/src/v0.8/shared/access/ConfirmedOwnerWithProposal.sol\":1809:1971  function _validateOwnership() internal view {... */\n      jump\t// out\n        /* \"@chainlink/contracts-ccip@1.5.0/src/v0.8/ccip/libraries/Client.sol\":2062:2232  function _argsToBytes(EVMExtraArgsV2 memory extraArgs) internal pure returns (bytes memory bts) {... */\n    tag_38:\n        /* \"@chainlink/contracts-ccip@1.5.0/src/v0.8/ccip/libraries/Client.sol\":2140:2156  bytes memory bts */\n      0x60\n        /* \"@chainlink/contracts-ccip@1.5.0/src/v0.8/ccip/libraries/Client.sol\":1554:1564  0x181dcf10 */\n      0x181dcf10\n        /* \"@chainlink/contracts-ccip@1.5.0/src/v0.8/ccip/libraries/Client.sol\":2194:2215  EVM_EXTRA_ARGS_V2_TAG */\n      0xe0\n      shl\n        /* \"@chainlink/contracts-ccip@1.5.0/src/v0.8/ccip/libraries/Client.sol\":2217:2226  extraArgs */\n      dup3\n        /* \"@chainlink/contracts-ccip@1.5.0/src/v0.8/ccip/libraries/Client.sol\":2171:2227  abi.encodeWithSelector(EVM_EXTRA_ARGS_V2_TAG, extraArgs) */\n      add(0x24, mload(0x40))\n      tag_84\n      swap2\n      swap1\n      tag_85\n      jump\t// in\n    tag_84:\n      mload(0x40)\n      0x20\n      dup2\n      dup4\n      sub\n      sub\n      dup2\n      mstore\n      swap1\n      0x40\n      mstore\n      swap1\n      not(0xffffffffffffffffffffffffffffffffffffffffffffffffffffffff)\n      and\n      0x20\n      dup3\n      add\n      dup1\n      mload\n      0xffffffffffffffffffffffffffffffffffffffffffffffffffffffff\n      dup4\n      dup2\n      dup4\n      and\n      or\n      dup4\n      mstore\n      pop\n      pop\n      pop\n      pop\n        /* \"@chainlink/contracts-ccip@1.5.0/src/v0.8/ccip/libraries/Client.sol\":2164:2227  return abi.encodeWithSelector(EVM_EXTRA_ARGS_V2_TAG, extraArgs) */\n      swap1\n      pop\n        /* \"@chainlink/contracts-ccip@1.5.0/src/v0.8/ccip/libraries/Client.sol\":2062:2232  function _argsToBytes(EVMExtraArgsV2 memory extraArgs) internal pure returns (bytes memory bts) {... */\n      swap2\n      swap1\n      pop\n      jump\t// out\n        /* \"@chainlink/contracts-ccip@1.5.0/src/v0.8/shared/access/ConfirmedOwnerWithProposal.sol\":1536:1775  function _transferOwnership(address to) private {... */\n    tag_78:\n        /* \"@chainlink/contracts-ccip@1.5.0/src/v0.8/shared/access/ConfirmedOwnerWithProposal.sol\":1655:1665  msg.sender */\n      caller\n        /* \"@chainlink/contracts-ccip@1.5.0/src/v0.8/shared/access/ConfirmedOwnerWithProposal.sol\":1649:1665  to != msg.sender */\n      0xffffffffffffffffffffffffffffffffffffffff\n      and\n        /* \"@chainlink/contracts-ccip@1.5.0/src/v0.8/shared/access/ConfirmedOwnerWithProposal.sol\":1649:1651  to */\n      dup2\n        /* \"@chainlink/contracts-ccip@1.5.0/src/v0.8/shared/access/ConfirmedOwnerWithProposal.sol\":1649:1665  to != msg.sender */\n      0xffffffffffffffffffffffffffffffffffffffff\n      and\n      sub\n        /* \"@chainlink/contracts-ccip@1.5.0/src/v0.8/shared/access/ConfirmedOwnerWithProposal.sol\":1641:1693  require(to != msg.sender, \"Cannot transfer to self\") */\n      tag_87\n      jumpi\n      mload(0x40)\n      0x08c379a000000000000000000000000000000000000000000000000000000000\n      dup2\n      mstore\n      0x04\n      add\n      tag_88\n      swap1\n      tag_89\n      jump\t// in\n    tag_88:\n      mload(0x40)\n      dup1\n      swap2\n      sub\n      swap1\n      revert\n    tag_87:\n        /* \"@chainlink/contracts-ccip@1.5.0/src/v0.8/shared/access/ConfirmedOwnerWithProposal.sol\":1717:1719  to */\n      dup1\n        /* \"@chainlink/contracts-ccip@1.5.0/src/v0.8/shared/access/ConfirmedOwnerWithProposal.sol\":1700:1714  s_pendingOwner */\n      0x01\n      0x00\n        /* \"@chainlink/contracts-ccip@1.5.0/src/v0.8/shared/access/ConfirmedOwnerWithProposal.sol\":1700:1719  s_pendingOwner = to */\n      0x0100\n      exp\n      dup2\n      sload\n      dup2\n      0xffffffffffffffffffffffffffffffffffffffff\n      mul\n      not\n      and\n      swap1\n      dup4\n      0xffffffffffffffffffffffffffffffffffffffff\n      and\n      mul\n      or\n      swap1\n      sstore\n      pop\n        /* \"@chainlink/contracts-ccip@1.5.0/src/v0.8/shared/access/ConfirmedOwnerWithProposal.sol\":1767:1769  to */\n      dup1\n        /* \"@chainlink/contracts-ccip@1.5.0/src/v0.8/shared/access/ConfirmedOwnerWithProposal.sol\":1731:1770  OwnershipTransferRequested(s_owner, to) */\n      0xffffffffffffffffffffffffffffffffffffffff\n      and\n        /* \"@chainlink/contracts-ccip@1.5.0/src/v0.8/shared/access/ConfirmedOwnerWithProposal.sol\":1758:1765  s_owner */\n      0x00\n      dup1\n      sload\n      swap1\n      0x0100\n      exp\n      swap1\n      div\n      0xffffffffffffffffffffffffffffffffffffffff\n      and\n        /* \"@chainlink/contracts-ccip@1.5.0/src/v0.8/shared/access/ConfirmedOwnerWithProposal.sol\":1731:1770  OwnershipTransferRequested(s_owner, to) */\n      0xffffffffffffffffffffffffffffffffffffffff\n      and\n      0xed8889f560326eb138920d842192f0eb3dd22b4f139c87a2c57538e05bae1278\n      mload(0x40)\n      mload(0x40)\n      dup1\n      swap2\n      sub\n      swap1\n      log3\n        /* \"@chainlink/contracts-ccip@1.5.0/src/v0.8/shared/access/ConfirmedOwnerWithProposal.sol\":1536:1775  function _transferOwnership(address to) private {... */\n      pop\n      jump\t// out\n    tag_36:\n      mload(0x40)\n      dup1\n      0x40\n      add\n      0x40\n      mstore\n      dup1\n      and(0xffffffffffffffffffffffffffffffffffffffff, 0x00)\n      dup2\n      mstore\n      0x20\n      add\n      0x00\n      dup2\n      mstore\n      pop\n      swap1\n      jump\t// out\n        /* \"#utility.yul\":88:205   */\n    tag_91:\n        /* \"#utility.yul\":197:198   */\n      0x00\n        /* \"#utility.yul\":194:195   */\n      dup1\n        /* \"#utility.yul\":187:199   */\n      revert\n        /* \"#utility.yul\":211:328   */\n    tag_92:\n        /* \"#utility.yul\":320:321   */\n      0x00\n        /* \"#utility.yul\":317:318   */\n      dup1\n        /* \"#utility.yul\":310:322   */\n      revert\n        /* \"#utility.yul\":334:435   */\n    tag_93:\n        /* \"#utility.yul\":370:377   */\n      0x00\n        /* \"#utility.yul\":410:428   */\n      0xffffffffffffffff\n        /* \"#utility.yul\":403:408   */\n      dup3\n        /* \"#utility.yul\":399:429   */\n      and\n        /* \"#utility.yul\":388:429   */\n      swap1\n      pop\n        /* \"#utility.yul\":334:435   */\n      swap2\n      swap1\n      pop\n      jump\t// out\n        /* \"#utility.yul\":441:561   */\n    tag_94:\n        /* \"#utility.yul\":513:536   */\n      tag_152\n        /* \"#utility.yul\":530:535   */\n      dup2\n        /* \"#utility.yul\":513:536   */\n      tag_93\n      jump\t// in\n    tag_152:\n        /* \"#utility.yul\":506:511   */\n      dup2\n        /* \"#utility.yul\":503:537   */\n      eq\n        /* \"#utility.yul\":493:555   */\n      tag_153\n      jumpi\n        /* \"#utility.yul\":551:552   */\n      0x00\n        /* \"#utility.yul\":548:549   */\n      dup1\n        /* \"#utility.yul\":541:553   */\n      revert\n        /* \"#utility.yul\":493:555   */\n    tag_153:\n        /* \"#utility.yul\":441:561   */\n      pop\n      jump\t// out\n        /* \"#utility.yul\":567:704   */\n    tag_95:\n        /* \"#utility.yul\":612:617   */\n      0x00\n        /* \"#utility.yul\":650:656   */\n      dup2\n        /* \"#utility.yul\":637:657   */\n      calldataload\n        /* \"#utility.yul\":628:657   */\n      swap1\n      pop\n        /* \"#utility.yul\":666:698   */\n      tag_155\n        /* \"#utility.yul\":692:697   */\n      dup2\n        /* \"#utility.yul\":666:698   */\n      tag_94\n      jump\t// in\n    tag_155:\n        /* \"#utility.yul\":567:704   */\n      swap3\n      swap2\n      pop\n      pop\n      jump\t// out\n        /* \"#utility.yul\":710:836   */\n    tag_96:\n        /* \"#utility.yul\":747:754   */\n      0x00\n        /* \"#utility.yul\":787:829   */\n      0xffffffffffffffffffffffffffffffffffffffff\n        /* \"#utility.yul\":780:785   */\n      dup3\n        /* \"#utility.yul\":776:830   */\n      and\n        /* \"#utility.yul\":765:830   */\n      swap1\n      pop\n        /* \"#utility.yul\":710:836   */\n      swap2\n      swap1\n      pop\n      jump\t// out\n        /* \"#utility.yul\":842:938   */\n    tag_97:\n        /* \"#utility.yul\":879:886   */\n      0x00\n        /* \"#utility.yul\":908:932   */\n      tag_158\n        /* \"#utility.yul\":926:931   */\n      dup3\n        /* \"#utility.yul\":908:932   */\n      tag_96\n      jump\t// in\n    tag_158:\n        /* \"#utility.yul\":897:932   */\n      swap1\n      pop\n        /* \"#utility.yul\":842:938   */\n      swap2\n      swap1\n      pop\n      jump\t// out\n        /* \"#utility.yul\":944:1066   */\n    tag_98:\n        /* \"#utility.yul\":1017:1041   */\n      tag_160\n        /* \"#utility.yul\":1035:1040   */\n      dup2\n        /* \"#utility.yul\":1017:1041   */\n      tag_97\n      jump\t// in\n    tag_160:\n        /* \"#utility.yul\":1010:1015   */\n      dup2\n        /* \"#utility.yul\":1007:1042   */\n      eq\n        /* \"#utility.yul\":997:1060   */\n      tag_161\n      jumpi\n        /* \"#utility.yul\":1056:1057   */\n      0x00\n        /* \"#utility.yul\":1053:1054   */\n      dup1\n        /* \"#utility.yul\":1046:1058   */\n      revert\n        /* \"#utility.yul\":997:1060   */\n    tag_161:\n        /* \"#utility.yul\":944:1066   */\n      pop\n      jump\t// out\n        /* \"#utility.yul\":1072:1211   */\n    tag_99:\n        /* \"#utility.yul\":1118:1123   */\n      0x00\n        /* \"#utility.yul\":1156:1162   */\n      dup2\n        /* \"#utility.yul\":1143:1163   */\n      calldataload\n        /* \"#utility.yul\":1134:1163   */\n      swap1\n      pop\n        /* \"#utility.yul\":1172:1205   */\n      tag_163\n        /* \"#utility.yul\":1199:1204   */\n      dup2\n        /* \"#utility.yul\":1172:1205   */\n      tag_98\n      jump\t// in\n    tag_163:\n        /* \"#utility.yul\":1072:1211   */\n      swap3\n      swap2\n      pop\n      pop\n      jump\t// out\n        /* \"#utility.yul\":1217:1334   */\n    tag_100:\n        /* \"#utility.yul\":1326:1327   */\n      0x00\n        /* \"#utility.yul\":1323:1324   */\n      dup1\n        /* \"#utility.yul\":1316:1328   */\n      revert\n        /* \"#utility.yul\":1340:1457   */\n    tag_101:\n        /* \"#utility.yul\":1449:1450   */\n      0x00\n        /* \"#utility.yul\":1446:1447   */\n      dup1\n        /* \"#utility.yul\":1439:1451   */\n      revert\n        /* \"#utility.yul\":1463:1580   */\n    tag_102:\n        /* \"#utility.yul\":1572:1573   */\n      0x00\n        /* \"#utility.yul\":1569:1570   */\n      dup1\n        /* \"#utility.yul\":1562:1574   */\n      revert\n        /* \"#utility.yul\":1600:2153   */\n    tag_103:\n        /* \"#utility.yul\":1658:1666   */\n      0x00\n        /* \"#utility.yul\":1668:1674   */\n      dup1\n        /* \"#utility.yul\":1718:1721   */\n      dup4\n        /* \"#utility.yul\":1711:1715   */\n      0x1f\n        /* \"#utility.yul\":1703:1709   */\n      dup5\n        /* \"#utility.yul\":1699:1716   */\n      add\n        /* \"#utility.yul\":1695:1722   */\n      slt\n        /* \"#utility.yul\":1685:1807   */\n      tag_168\n      jumpi\n        /* \"#utility.yul\":1726:1805   */\n      tag_169\n      tag_100\n      jump\t// in\n    tag_169:\n        /* \"#utility.yul\":1685:1807   */\n    tag_168:\n        /* \"#utility.yul\":1839:1845   */\n      dup3\n        /* \"#utility.yul\":1826:1846   */\n      calldataload\n        /* \"#utility.yul\":1816:1846   */\n      swap1\n      pop\n        /* \"#utility.yul\":1869:1887   */\n      0xffffffffffffffff\n        /* \"#utility.yul\":1861:1867   */\n      dup2\n        /* \"#utility.yul\":1858:1888   */\n      gt\n        /* \"#utility.yul\":1855:1972   */\n      iszero\n      tag_170\n      jumpi\n        /* \"#utility.yul\":1891:1970   */\n      tag_171\n      tag_101\n      jump\t// in\n    tag_171:\n        /* \"#utility.yul\":1855:1972   */\n    tag_170:\n        /* \"#utility.yul\":2005:2009   */\n      0x20\n        /* \"#utility.yul\":1997:2003   */\n      dup4\n        /* \"#utility.yul\":1993:2010   */\n      add\n        /* \"#utility.yul\":1981:2010   */\n      swap2\n      pop\n        /* \"#utility.yul\":2059:2062   */\n      dup4\n        /* \"#utility.yul\":2051:2055   */\n      0x01\n        /* \"#utility.yul\":2043:2049   */\n      dup3\n        /* \"#utility.yul\":2039:2056   */\n      mul\n        /* \"#utility.yul\":2029:2037   */\n      dup4\n        /* \"#utility.yul\":2025:2057   */\n      add\n        /* \"#utility.yul\":2022:2063   */\n      gt\n        /* \"#utility.yul\":2019:2147   */\n      iszero\n      tag_172\n      jumpi\n        /* \"#utility.yul\":2066:2145   */\n      tag_173\n      tag_102\n      jump\t// in\n    tag_173:\n        /* \"#utility.yul\":2019:2147   */\n    tag_172:\n        /* \"#utility.yul\":1600:2153   */\n      swap3\n      pop\n      swap3\n      swap1\n      pop\n      jump\t// out\n        /* \"#utility.yul\":2159:2236   */\n    tag_104:\n        /* \"#utility.yul\":2196:2203   */\n      0x00\n        /* \"#utility.yul\":2225:2230   */\n      dup2\n        /* \"#utility.yul\":2214:2230   */\n      swap1\n      pop\n        /* \"#utility.yul\":2159:2236   */\n      swap2\n      swap1\n      pop\n      jump\t// out\n        /* \"#utility.yul\":2242:2364   */\n    tag_105:\n        /* \"#utility.yul\":2315:2339   */\n      tag_176\n        /* \"#utility.yul\":2333:2338   */\n      dup2\n        /* \"#utility.yul\":2315:2339   */\n      tag_104\n      jump\t// in\n    tag_176:\n        /* \"#utility.yul\":2308:2313   */\n      dup2\n        /* \"#utility.yul\":2305:2340   */\n      eq\n        /* \"#utility.yul\":2295:2358   */\n      tag_177\n      jumpi\n        /* \"#utility.yul\":2354:2355   */\n      0x00\n        /* \"#utility.yul\":2351:2352   */\n      dup1\n        /* \"#utility.yul\":2344:2356   */\n      revert\n        /* \"#utility.yul\":2295:2358   */\n    tag_177:\n        /* \"#utility.yul\":2242:2364   */\n      pop\n      jump\t// out\n        /* \"#utility.yul\":2370:2509   */\n    tag_106:\n        /* \"#utility.yul\":2416:2421   */\n      0x00\n        /* \"#utility.yul\":2454:2460   */\n      dup2\n        /* \"#utility.yul\":2441:2461   */\n      calldataload\n        /* \"#utility.yul\":2432:2461   */\n      swap1\n      pop\n        /* \"#utility.yul\":2470:2503   */\n      tag_179\n        /* \"#utility.yul\":2497:2502   */\n      dup2\n        /* \"#utility.yul\":2470:2503   */\n      tag_105\n      jump\t// in\n    tag_179:\n        /* \"#utility.yul\":2370:2509   */\n      swap3\n      swap2\n      pop\n      pop\n      jump\t// out\n        /* \"#utility.yul\":2515:4170   */\n    tag_9:\n        /* \"#utility.yul\":2654:2660   */\n      0x00\n        /* \"#utility.yul\":2662:2668   */\n      dup1\n        /* \"#utility.yul\":2670:2676   */\n      0x00\n        /* \"#utility.yul\":2678:2684   */\n      dup1\n        /* \"#utility.yul\":2686:2692   */\n      0x00\n        /* \"#utility.yul\":2694:2700   */\n      dup1\n        /* \"#utility.yul\":2702:2708   */\n      0x00\n        /* \"#utility.yul\":2710:2716   */\n      dup1\n        /* \"#utility.yul\":2718:2724   */\n      0x00\n        /* \"#utility.yul\":2767:2770   */\n      0xc0\n        /* \"#utility.yul\":2755:2764   */\n      dup11\n        /* \"#utility.yul\":2746:2753   */\n      dup13\n        /* \"#utility.yul\":2742:2765   */\n      sub\n        /* \"#utility.yul\":2738:2771   */\n      slt\n        /* \"#utility.yul\":2735:2855   */\n      iszero\n      tag_181\n      jumpi\n        /* \"#utility.yul\":2774:2853   */\n      tag_182\n      tag_91\n      jump\t// in\n    tag_182:\n        /* \"#utility.yul\":2735:2855   */\n    tag_181:\n        /* \"#utility.yul\":2894:2895   */\n      0x00\n        /* \"#utility.yul\":2919:2971   */\n      tag_183\n        /* \"#utility.yul\":2963:2970   */\n      dup13\n        /* \"#utility.yul\":2954:2960   */\n      dup3\n        /* \"#utility.yul\":2943:2952   */\n      dup14\n        /* \"#utility.yul\":2939:2961   */\n      add\n        /* \"#utility.yul\":2919:2971   */\n      tag_95\n      jump\t// in\n    tag_183:\n        /* \"#utility.yul\":2909:2971   */\n      swap10\n      pop\n        /* \"#utility.yul\":2865:2981   */\n      pop\n        /* \"#utility.yul\":3020:3022   */\n      0x20\n        /* \"#utility.yul\":3046:3099   */\n      tag_184\n        /* \"#utility.yul\":3091:3098   */\n      dup13\n        /* \"#utility.yul\":3082:3088   */\n      dup3\n        /* \"#utility.yul\":3071:3080   */\n      dup14\n        /* \"#utility.yul\":3067:3089   */\n      add\n        /* \"#utility.yul\":3046:3099   */\n      tag_99\n      jump\t// in\n    tag_184:\n        /* \"#utility.yul\":3036:3099   */\n      swap9\n      pop\n        /* \"#utility.yul\":2991:3109   */\n      pop\n        /* \"#utility.yul\":3176:3178   */\n      0x40\n        /* \"#utility.yul\":3165:3174   */\n      dup11\n        /* \"#utility.yul\":3161:3179   */\n      add\n        /* \"#utility.yul\":3148:3180   */\n      calldataload\n        /* \"#utility.yul\":3207:3225   */\n      0xffffffffffffffff\n        /* \"#utility.yul\":3199:3205   */\n      dup2\n        /* \"#utility.yul\":3196:3226   */\n      gt\n        /* \"#utility.yul\":3193:3310   */\n      iszero\n      tag_185\n      jumpi\n        /* \"#utility.yul\":3229:3308   */\n      tag_186\n      tag_92\n      jump\t// in\n    tag_186:\n        /* \"#utility.yul\":3193:3310   */\n    tag_185:\n        /* \"#utility.yul\":3342:3407   */\n      tag_187\n        /* \"#utility.yul\":3399:3406   */\n      dup13\n        /* \"#utility.yul\":3390:3396   */\n      dup3\n        /* \"#utility.yul\":3379:3388   */\n      dup14\n        /* \"#utility.yul\":3375:3397   */\n      add\n        /* \"#utility.yul\":3342:3407   */\n      tag_103\n      jump\t// in\n    tag_187:\n        /* \"#utility.yul\":3324:3407   */\n      swap8\n      pop\n      swap8\n      pop\n        /* \"#utility.yul\":3119:3417   */\n      pop\n        /* \"#utility.yul\":3456:3458   */\n      0x60\n        /* \"#utility.yul\":3482:3535   */\n      tag_188\n        /* \"#utility.yul\":3527:3534   */\n      dup13\n        /* \"#utility.yul\":3518:3524   */\n      dup3\n        /* \"#utility.yul\":3507:3516   */\n      dup14\n        /* \"#utility.yul\":3503:3525   */\n      add\n        /* \"#utility.yul\":3482:3535   */\n      tag_106\n      jump\t// in\n    tag_188:\n        /* \"#utility.yul\":3472:3535   */\n      swap6\n      pop\n        /* \"#utility.yul\":3427:3545   */\n      pop\n        /* \"#utility.yul\":3612:3615   */\n      0x80\n        /* \"#utility.yul\":3601:3610   */\n      dup11\n        /* \"#utility.yul\":3597:3616   */\n      add\n        /* \"#utility.yul\":3584:3617   */\n      calldataload\n        /* \"#utility.yul\":3644:3662   */\n      0xffffffffffffffff\n        /* \"#utility.yul\":3636:3642   */\n      dup2\n        /* \"#utility.yul\":3633:3663   */\n      gt\n        /* \"#utility.yul\":3630:3747   */\n      iszero\n      tag_189\n      jumpi\n        /* \"#utility.yul\":3666:3745   */\n      tag_190\n      tag_92\n      jump\t// in\n    tag_190:\n        /* \"#utility.yul\":3630:3747   */\n    tag_189:\n        /* \"#utility.yul\":3779:3844   */\n      tag_191\n        /* \"#utility.yul\":3836:3843   */\n      dup13\n        /* \"#utility.yul\":3827:3833   */\n      dup3\n        /* \"#utility.yul\":3816:3825   */\n      dup14\n        /* \"#utility.yul\":3812:3834   */\n      add\n        /* \"#utility.yul\":3779:3844   */\n      tag_103\n      jump\t// in\n    tag_191:\n        /* \"#utility.yul\":3761:3844   */\n      swap5\n      pop\n      swap5\n      pop\n        /* \"#utility.yul\":3555:3854   */\n      pop\n        /* \"#utility.yul\":3921:3924   */\n      0xa0\n        /* \"#utility.yul\":3910:3919   */\n      dup11\n        /* \"#utility.yul\":3906:3925   */\n      add\n        /* \"#utility.yul\":3893:3926   */\n      calldataload\n        /* \"#utility.yul\":3953:3971   */\n      0xffffffffffffffff\n        /* \"#utility.yul\":3945:3951   */\n      dup2\n        /* \"#utility.yul\":3942:3972   */\n      gt\n        /* \"#utility.yul\":3939:4056   */\n      iszero\n      tag_192\n      jumpi\n        /* \"#utility.yul\":3975:4054   */\n      tag_193\n      tag_92\n      jump\t// in\n    tag_193:\n        /* \"#utility.yul\":3939:4056   */\n    tag_192:\n        /* \"#utility.yul\":4088:4153   */\n      tag_194\n        /* \"#utility.yul\":4145:4152   */\n      dup13\n        /* \"#utility.yul\":4136:4142   */\n      dup3\n        /* \"#utility.yul\":4125:4134   */\n      dup14\n        /* \"#utility.yul\":4121:4143   */\n      add\n        /* \"#utility.yul\":4088:4153   */\n      tag_103\n      jump\t// in\n    tag_194:\n        /* \"#utility.yul\":4070:4153   */\n      swap3\n      pop\n      swap3\n      pop\n        /* \"#utility.yul\":3864:4163   */\n      pop\n        /* \"#utility.yul\":2515:4170   */\n      swap3\n      swap6\n      swap9\n      pop\n      swap3\n      swap6\n      swap9\n      pop\n      swap3\n      swap6\n      swap9\n      jump\t// out\n        /* \"#utility.yul\":4176:4253   */\n    tag_107:\n        /* \"#utility.yul\":4213:4220   */\n      0x00\n        /* \"#utility.yul\":4242:4247   */\n      dup2\n        /* \"#utility.yul\":4231:4247   */\n      swap1\n      pop\n        /* \"#utility.yul\":4176:4253   */\n      swap2\n      swap1\n      pop\n      jump\t// out\n        /* \"#utility.yul\":4259:4377   */\n    tag_108:\n        /* \"#utility.yul\":4346:4370   */\n      tag_197\n        /* \"#utility.yul\":4364:4369   */\n      dup2\n        /* \"#utility.yul\":4346:4370   */\n      tag_107\n      jump\t// in\n    tag_197:\n        /* \"#utility.yul\":4341:4344   */\n      dup3\n        /* \"#utility.yul\":4334:4371   */\n      mstore\n        /* \"#utility.yul\":4259:4377   */\n      pop\n      pop\n      jump\t// out\n        /* \"#utility.yul\":4383:4605   */\n    tag_12:\n        /* \"#utility.yul\":4476:4480   */\n      0x00\n        /* \"#utility.yul\":4514:4516   */\n      0x20\n        /* \"#utility.yul\":4503:4512   */\n      dup3\n        /* \"#utility.yul\":4499:4517   */\n      add\n        /* \"#utility.yul\":4491:4517   */\n      swap1\n      pop\n        /* \"#utility.yul\":4527:4598   */\n      tag_199\n        /* \"#utility.yul\":4595:4596   */\n      0x00\n        /* \"#utility.yul\":4584:4593   */\n      dup4\n        /* \"#utility.yul\":4580:4597   */\n      add\n        /* \"#utility.yul\":4571:4577   */\n      dup5\n        /* \"#utility.yul\":4527:4598   */\n      tag_108\n      jump\t// in\n    tag_199:\n        /* \"#utility.yul\":4383:4605   */\n      swap3\n      swap2\n      pop\n      pop\n      jump\t// out\n        /* \"#utility.yul\":4611:4729   */\n    tag_109:\n        /* \"#utility.yul\":4698:4722   */\n      tag_201\n        /* \"#utility.yul\":4716:4721   */\n      dup2\n        /* \"#utility.yul\":4698:4722   */\n      tag_97\n      jump\t// in\n    tag_201:\n        /* \"#utility.yul\":4693:4696   */\n      dup3\n        /* \"#utility.yul\":4686:4723   */\n      mstore\n        /* \"#utility.yul\":4611:4729   */\n      pop\n      pop\n      jump\t// out\n        /* \"#utility.yul\":4735:4957   */\n    tag_18:\n        /* \"#utility.yul\":4828:4832   */\n      0x00\n        /* \"#utility.yul\":4866:4868   */\n      0x20\n        /* \"#utility.yul\":4855:4864   */\n      dup3\n        /* \"#utility.yul\":4851:4869   */\n      add\n        /* \"#utility.yul\":4843:4869   */\n      swap1\n      pop\n        /* \"#utility.yul\":4879:4950   */\n      tag_203\n        /* \"#utility.yul\":4947:4948   */\n      0x00\n        /* \"#utility.yul\":4936:4945   */\n      dup4\n        /* \"#utility.yul\":4932:4949   */\n      add\n        /* \"#utility.yul\":4923:4929   */\n      dup5\n        /* \"#utility.yul\":4879:4950   */\n      tag_109\n      jump\t// in\n    tag_203:\n        /* \"#utility.yul\":4735:4957   */\n      swap3\n      swap2\n      pop\n      pop\n      jump\t// out\n        /* \"#utility.yul\":4963:5292   */\n    tag_21:\n        /* \"#utility.yul\":5022:5028   */\n      0x00\n        /* \"#utility.yul\":5071:5073   */\n      0x20\n        /* \"#utility.yul\":5059:5068   */\n      dup3\n        /* \"#utility.yul\":5050:5057   */\n      dup5\n        /* \"#utility.yul\":5046:5069   */\n      sub\n        /* \"#utility.yul\":5042:5074   */\n      slt\n        /* \"#utility.yul\":5039:5158   */\n      iszero\n      tag_205\n      jumpi\n        /* \"#utility.yul\":5077:5156   */\n      tag_206\n      tag_91\n      jump\t// in\n    tag_206:\n        /* \"#utility.yul\":5039:5158   */\n    tag_205:\n        /* \"#utility.yul\":5197:5198   */\n      0x00\n        /* \"#utility.yul\":5222:5275   */\n      tag_207\n        /* \"#utility.yul\":5267:5274   */\n      dup5\n        /* \"#utility.yul\":5258:5264   */\n      dup3\n        /* \"#utility.yul\":5247:5256   */\n      dup6\n        /* \"#utility.yul\":5243:5265   */\n      add\n        /* \"#utility.yul\":5222:5275   */\n      tag_99\n      jump\t// in\n    tag_207:\n        /* \"#utility.yul\":5212:5275   */\n      swap2\n      pop\n        /* \"#utility.yul\":5168:5285   */\n      pop\n        /* \"#utility.yul\":4963:5292   */\n      swap3\n      swap2\n      pop\n      pop\n      jump\t// out\n        /* \"#utility.yul\":5298:5397   */\n    tag_110:\n        /* \"#utility.yul\":5350:5356   */\n      0x00\n        /* \"#utility.yul\":5384:5389   */\n      dup2\n        /* \"#utility.yul\":5378:5390   */\n      mload\n        /* \"#utility.yul\":5368:5390   */\n      swap1\n      pop\n        /* \"#utility.yul\":5298:5397   */\n      swap2\n      swap1\n      pop\n      jump\t// out\n        /* \"#utility.yul\":5403:5562   */\n    tag_111:\n        /* \"#utility.yul\":5477:5488   */\n      0x00\n        /* \"#utility.yul\":5511:5517   */\n      dup3\n        /* \"#utility.yul\":5506:5509   */\n      dup3\n        /* \"#utility.yul\":5499:5518   */\n      mstore\n        /* \"#utility.yul\":5551:5555   */\n      0x20\n        /* \"#utility.yul\":5546:5549   */\n      dup3\n        /* \"#utility.yul\":5542:5556   */\n      add\n        /* \"#utility.yul\":5527:5556   */\n      swap1\n      pop\n        /* \"#utility.yul\":5403:5562   */\n      swap3\n      swap2\n      pop\n      pop\n      jump\t// out\n        /* \"#utility.yul\":5568:5814   */\n    tag_112:\n        /* \"#utility.yul\":5649:5650   */\n      0x00\n        /* \"#utility.yul\":5659:5772   */\n    tag_211:\n        /* \"#utility.yul\":5673:5679   */\n      dup4\n        /* \"#utility.yul\":5670:5671   */\n      dup2\n        /* \"#utility.yul\":5667:5680   */\n      lt\n        /* \"#utility.yul\":5659:5772   */\n      iszero\n      tag_213\n      jumpi\n        /* \"#utility.yul\":5758:5759   */\n      dup1\n        /* \"#utility.yul\":5753:5756   */\n      dup3\n        /* \"#utility.yul\":5749:5760   */\n      add\n        /* \"#utility.yul\":5743:5761   */\n      mload\n        /* \"#utility.yul\":5739:5740   */\n      dup2\n        /* \"#utility.yul\":5734:5737   */\n      dup5\n        /* \"#utility.yul\":5730:5741   */\n      add\n        /* \"#utility.yul\":5723:5762   */\n      mstore\n        /* \"#utility.yul\":5695:5697   */\n      0x20\n        /* \"#utility.yul\":5692:5693   */\n      dup2\n        /* \"#utility.yul\":5688:5698   */\n      add\n        /* \"#utility.yul\":5683:5698   */\n      swap1\n      pop\n        /* \"#utility.yul\":5659:5772   */\n      jump(tag_211)\n    tag_213:\n        /* \"#utility.yul\":5806:5807   */\n      0x00\n        /* \"#utility.yul\":5797:5803   */\n      dup5\n        /* \"#utility.yul\":5792:5795   */\n      dup5\n        /* \"#utility.yul\":5788:5804   */\n      add\n        /* \"#utility.yul\":5781:5808   */\n      mstore\n        /* \"#utility.yul\":5630:5814   */\n      pop\n        /* \"#utility.yul\":5568:5814   */\n      pop\n      pop\n      pop\n      jump\t// out\n        /* \"#utility.yul\":5820:5922   */\n    tag_113:\n        /* \"#utility.yul\":5861:5867   */\n      0x00\n        /* \"#utility.yul\":5912:5914   */\n      0x1f\n        /* \"#utility.yul\":5908:5915   */\n      not\n        /* \"#utility.yul\":5903:5905   */\n      0x1f\n        /* \"#utility.yul\":5896:5901   */\n      dup4\n        /* \"#utility.yul\":5892:5906   */\n      add\n        /* \"#utility.yul\":5888:5916   */\n      and\n        /* \"#utility.yul\":5878:5916   */\n      swap1\n      pop\n        /* \"#utility.yul\":5820:5922   */\n      swap2\n      swap1\n      pop\n      jump\t// out\n        /* \"#utility.yul\":5928:6285   */\n    tag_114:\n        /* \"#utility.yul\":6006:6009   */\n      0x00\n        /* \"#utility.yul\":6034:6073   */\n      tag_216\n        /* \"#utility.yul\":6067:6072   */\n      dup3\n        /* \"#utility.yul\":6034:6073   */\n      tag_110\n      jump\t// in\n    tag_216:\n        /* \"#utility.yul\":6089:6150   */\n      tag_217\n        /* \"#utility.yul\":6143:6149   */\n      dup2\n        /* \"#utility.yul\":6138:6141   */\n      dup6\n        /* \"#utility.yul\":6089:6150   */\n      tag_111\n      jump\t// in\n    tag_217:\n        /* \"#utility.yul\":6082:6150   */\n      swap4\n      pop\n        /* \"#utility.yul\":6159:6224   */\n      tag_218\n        /* \"#utility.yul\":6217:6223   */\n      dup2\n        /* \"#utility.yul\":6212:6215   */\n      dup6\n        /* \"#utility.yul\":6205:6209   */\n      0x20\n        /* \"#utility.yul\":6198:6203   */\n      dup7\n        /* \"#utility.yul\":6194:6210   */\n      add\n        /* \"#utility.yul\":6159:6224   */\n      tag_112\n      jump\t// in\n    tag_218:\n        /* \"#utility.yul\":6249:6278   */\n      tag_219\n        /* \"#utility.yul\":6271:6277   */\n      dup2\n        /* \"#utility.yul\":6249:6278   */\n      tag_113\n      jump\t// in\n    tag_219:\n        /* \"#utility.yul\":6244:6247   */\n      dup5\n        /* \"#utility.yul\":6240:6279   */\n      add\n        /* \"#utility.yul\":6233:6279   */\n      swap2\n      pop\n        /* \"#utility.yul\":6010:6285   */\n      pop\n        /* \"#utility.yul\":5928:6285   */\n      swap3\n      swap2\n      pop\n      pop\n      jump\t// out\n        /* \"#utility.yul\":6291:6399   */\n    tag_115:\n        /* \"#utility.yul\":6368:6392   */\n      tag_221\n        /* \"#utility.yul\":6386:6391   */\n      dup2\n        /* \"#utility.yul\":6368:6392   */\n      tag_104\n      jump\t// in\n    tag_221:\n        /* \"#utility.yul\":6363:6366   */\n      dup3\n        /* \"#utility.yul\":6356:6393   */\n      mstore\n        /* \"#utility.yul\":6291:6399   */\n      pop\n      pop\n      jump\t// out\n        /* \"#utility.yul\":6467:7777   */\n    tag_116:\n        /* \"#utility.yul\":6592:6595   */\n      0x00\n        /* \"#utility.yul\":6628:6632   */\n      0xa0\n        /* \"#utility.yul\":6623:6626   */\n      dup4\n        /* \"#utility.yul\":6619:6633   */\n      add\n        /* \"#utility.yul\":6722:6726   */\n      0x00\n        /* \"#utility.yul\":6715:6720   */\n      dup4\n        /* \"#utility.yul\":6711:6727   */\n      add\n        /* \"#utility.yul\":6705:6728   */\n      mload\n        /* \"#utility.yul\":6775:6778   */\n      dup5\n        /* \"#utility.yul\":6769:6773   */\n      dup3\n        /* \"#utility.yul\":6765:6779   */\n      sub\n        /* \"#utility.yul\":6758:6762   */\n      0x00\n        /* \"#utility.yul\":6753:6756   */\n      dup7\n        /* \"#utility.yul\":6749:6763   */\n      add\n        /* \"#utility.yul\":6742:6780   */\n      mstore\n        /* \"#utility.yul\":6801:6874   */\n      tag_223\n        /* \"#utility.yul\":6869:6873   */\n      dup3\n        /* \"#utility.yul\":6855:6867   */\n      dup3\n        /* \"#utility.yul\":6801:6874   */\n      tag_114\n      jump\t// in\n    tag_223:\n        /* \"#utility.yul\":6793:6874   */\n      swap2\n      pop\n        /* \"#utility.yul\":6643:6885   */\n      pop\n        /* \"#utility.yul\":6973:6977   */\n      0x20\n        /* \"#utility.yul\":6966:6971   */\n      dup4\n        /* \"#utility.yul\":6962:6978   */\n      add\n        /* \"#utility.yul\":6956:6979   */\n      mload\n        /* \"#utility.yul\":6992:7055   */\n      tag_224\n        /* \"#utility.yul\":7049:7053   */\n      0x20\n        /* \"#utility.yul\":7044:7047   */\n      dup7\n        /* \"#utility.yul\":7040:7054   */\n      add\n        /* \"#utility.yul\":7026:7038   */\n      dup3\n        /* \"#utility.yul\":6992:7055   */\n      tag_115\n      jump\t// in\n    tag_224:\n        /* \"#utility.yul\":6895:7065   */\n      pop\n        /* \"#utility.yul\":7153:7157   */\n      0x40\n        /* \"#utility.yul\":7146:7151   */\n      dup4\n        /* \"#utility.yul\":7142:7158   */\n      add\n        /* \"#utility.yul\":7136:7159   */\n      mload\n        /* \"#utility.yul\":7206:7209   */\n      dup5\n        /* \"#utility.yul\":7200:7204   */\n      dup3\n        /* \"#utility.yul\":7196:7210   */\n      sub\n        /* \"#utility.yul\":7189:7193   */\n      0x40\n        /* \"#utility.yul\":7184:7187   */\n      dup7\n        /* \"#utility.yul\":7180:7194   */\n      add\n        /* \"#utility.yul\":7173:7211   */\n      mstore\n        /* \"#utility.yul\":7232:7305   */\n      tag_225\n        /* \"#utility.yul\":7300:7304   */\n      dup3\n        /* \"#utility.yul\":7286:7298   */\n      dup3\n        /* \"#utility.yul\":7232:7305   */\n      tag_114\n      jump\t// in\n    tag_225:\n        /* \"#utility.yul\":7224:7305   */\n      swap2\n      pop\n        /* \"#utility.yul\":7075:7316   */\n      pop\n        /* \"#utility.yul\":7408:7412   */\n      0x60\n        /* \"#utility.yul\":7401:7406   */\n      dup4\n        /* \"#utility.yul\":7397:7413   */\n      add\n        /* \"#utility.yul\":7391:7414   */\n      mload\n        /* \"#utility.yul\":7461:7464   */\n      dup5\n        /* \"#utility.yul\":7455:7459   */\n      dup3\n        /* \"#utility.yul\":7451:7465   */\n      sub\n        /* \"#utility.yul\":7444:7448   */\n      0x60\n        /* \"#utility.yul\":7439:7442   */\n      dup7\n        /* \"#utility.yul\":7435:7449   */\n      add\n        /* \"#utility.yul\":7428:7466   */\n      mstore\n        /* \"#utility.yul\":7487:7560   */\n      tag_226\n        /* \"#utility.yul\":7555:7559   */\n      dup3\n        /* \"#utility.yul\":7541:7553   */\n      dup3\n        /* \"#utility.yul\":7487:7560   */\n      tag_114\n      jump\t// in\n    tag_226:\n        /* \"#utility.yul\":7479:7560   */\n      swap2\n      pop\n        /* \"#utility.yul\":7326:7571   */\n      pop\n        /* \"#utility.yul\":7658:7662   */\n      0x80\n        /* \"#utility.yul\":7651:7656   */\n      dup4\n        /* \"#utility.yul\":7647:7663   */\n      add\n        /* \"#utility.yul\":7641:7664   */\n      mload\n        /* \"#utility.yul\":7677:7740   */\n      tag_227\n        /* \"#utility.yul\":7734:7738   */\n      0x80\n        /* \"#utility.yul\":7729:7732   */\n      dup7\n        /* \"#utility.yul\":7725:7739   */\n      add\n        /* \"#utility.yul\":7711:7723   */\n      dup3\n        /* \"#utility.yul\":7677:7740   */\n      tag_115\n      jump\t// in\n    tag_227:\n        /* \"#utility.yul\":7581:7750   */\n      pop\n        /* \"#utility.yul\":7767:7771   */\n      dup1\n        /* \"#utility.yul\":7760:7771   */\n      swap2\n      pop\n        /* \"#utility.yul\":6597:7777   */\n      pop\n        /* \"#utility.yul\":6467:7777   */\n      swap3\n      swap2\n      pop\n      pop\n      jump\t// out\n        /* \"#utility.yul\":7783:8168   */\n    tag_29:\n        /* \"#utility.yul\":7932:7936   */\n      0x00\n        /* \"#utility.yul\":7970:7972   */\n      0x20\n        /* \"#utility.yul\":7959:7968   */\n      dup3\n        /* \"#utility.yul\":7955:7973   */\n      add\n        /* \"#utility.yul\":7947:7973   */\n      swap1\n      pop\n        /* \"#utility.yul\":8019:8028   */\n      dup2\n        /* \"#utility.yul\":8013:8017   */\n      dup2\n        /* \"#utility.yul\":8009:8029   */\n      sub\n        /* \"#utility.yul\":8005:8006   */\n      0x00\n        /* \"#utility.yul\":7994:8003   */\n      dup4\n        /* \"#utility.yul\":7990:8007   */\n      add\n        /* \"#utility.yul\":7983:8030   */\n      mstore\n        /* \"#utility.yul\":8047:8161   */\n      tag_229\n        /* \"#utility.yul\":8156:8160   */\n      dup2\n        /* \"#utility.yul\":8147:8153   */\n      dup5\n        /* \"#utility.yul\":8047:8161   */\n      tag_116\n      jump\t// in\n    tag_229:\n        /* \"#utility.yul\":8039:8161   */\n      swap1\n      pop\n        /* \"#utility.yul\":7783:8168   */\n      swap3\n      swap2\n      pop\n      pop\n      jump\t// out\n        /* \"#utility.yul\":8174:8354   */\n    tag_32:\n        /* \"#utility.yul\":8222:8299   */\n      0x4e487b7100000000000000000000000000000000000000000000000000000000\n        /* \"#utility.yul\":8219:8220   */\n      0x00\n        /* \"#utility.yul\":8212:8300   */\n      mstore\n        /* \"#utility.yul\":8319:8323   */\n      0x41\n        /* \"#utility.yul\":8316:8317   */\n      0x04\n        /* \"#utility.yul\":8309:8324   */\n      mstore\n        /* \"#utility.yul\":8343:8347   */\n      0x24\n        /* \"#utility.yul\":8340:8341   */\n      0x00\n        /* \"#utility.yul\":8333:8348   */\n      revert\n        /* \"#utility.yul\":8360:8475   */\n    tag_117:\n        /* \"#utility.yul\":8445:8468   */\n      tag_232\n        /* \"#utility.yul\":8462:8467   */\n      dup2\n        /* \"#utility.yul\":8445:8468   */\n      tag_93\n      jump\t// in\n    tag_232:\n        /* \"#utility.yul\":8440:8443   */\n      dup3\n        /* \"#utility.yul\":8433:8469   */\n      mstore\n        /* \"#utility.yul\":8360:8475   */\n      pop\n      pop\n      jump\t// out\n        /* \"#utility.yul\":8481:8579   */\n    tag_118:\n        /* \"#utility.yul\":8532:8538   */\n      0x00\n        /* \"#utility.yul\":8566:8571   */\n      dup2\n        /* \"#utility.yul\":8560:8572   */\n      mload\n        /* \"#utility.yul\":8550:8572   */\n      swap1\n      pop\n        /* \"#utility.yul\":8481:8579   */\n      swap2\n      swap1\n      pop\n      jump\t// out\n        /* \"#utility.yul\":8585:8743   */\n    tag_119:\n        /* \"#utility.yul\":8658:8669   */\n      0x00\n        /* \"#utility.yul\":8692:8698   */\n      dup3\n        /* \"#utility.yul\":8687:8690   */\n      dup3\n        /* \"#utility.yul\":8680:8699   */\n      mstore\n        /* \"#utility.yul\":8732:8736   */\n      0x20\n        /* \"#utility.yul\":8727:8730   */\n      dup3\n        /* \"#utility.yul\":8723:8737   */\n      add\n        /* \"#utility.yul\":8708:8737   */\n      swap1\n      pop\n        /* \"#utility.yul\":8585:8743   */\n      swap3\n      swap2\n      pop\n      pop\n      jump\t// out\n        /* \"#utility.yul\":8749:9102   */\n    tag_120:\n        /* \"#utility.yul\":8825:8828   */\n      0x00\n        /* \"#utility.yul\":8853:8891   */\n      tag_236\n        /* \"#utility.yul\":8885:8890   */\n      dup3\n        /* \"#utility.yul\":8853:8891   */\n      tag_118\n      jump\t// in\n    tag_236:\n        /* \"#utility.yul\":8907:8967   */\n      tag_237\n        /* \"#utility.yul\":8960:8966   */\n      dup2\n        /* \"#utility.yul\":8955:8958   */\n      dup6\n        /* \"#utility.yul\":8907:8967   */\n      tag_119\n      jump\t// in\n    tag_237:\n        /* \"#utility.yul\":8900:8967   */\n      swap4\n      pop\n        /* \"#utility.yul\":8976:9041   */\n      tag_238\n        /* \"#utility.yul\":9034:9040   */\n      dup2\n        /* \"#utility.yul\":9029:9032   */\n      dup6\n        /* \"#utility.yul\":9022:9026   */\n      0x20\n        /* \"#utility.yul\":9015:9020   */\n      dup7\n        /* \"#utility.yul\":9011:9027   */\n      add\n        /* \"#utility.yul\":8976:9041   */\n      tag_112\n      jump\t// in\n    tag_238:\n        /* \"#utility.yul\":9066:9095   */\n      tag_239\n        /* \"#utility.yul\":9088:9094   */\n      dup2\n        /* \"#utility.yul\":9066:9095   */\n      tag_113\n      jump\t// in\n    tag_239:\n        /* \"#utility.yul\":9061:9064   */\n      dup5\n        /* \"#utility.yul\":9057:9096   */\n      add\n        /* \"#utility.yul\":9050:9096   */\n      swap2\n      pop\n        /* \"#utility.yul\":8829:9102   */\n      pop\n        /* \"#utility.yul\":8749:9102   */\n      swap3\n      swap2\n      pop\n      pop\n      jump\t// out\n        /* \"#utility.yul\":9108:9252   */\n    tag_121:\n        /* \"#utility.yul\":9205:9211   */\n      0x00\n        /* \"#utility.yul\":9239:9244   */\n      dup2\n        /* \"#utility.yul\":9233:9245   */\n      mload\n        /* \"#utility.yul\":9223:9245   */\n      swap1\n      pop\n        /* \"#utility.yul\":9108:9252   */\n      swap2\n      swap1\n      pop\n      jump\t// out\n        /* \"#utility.yul\":9258:9462   */\n    tag_122:\n        /* \"#utility.yul\":9377:9388   */\n      0x00\n        /* \"#utility.yul\":9411:9417   */\n      dup3\n        /* \"#utility.yul\":9406:9409   */\n      dup3\n        /* \"#utility.yul\":9399:9418   */\n      mstore\n        /* \"#utility.yul\":9451:9455   */\n      0x20\n        /* \"#utility.yul\":9446:9449   */\n      dup3\n        /* \"#utility.yul\":9442:9456   */\n      add\n        /* \"#utility.yul\":9427:9456   */\n      swap1\n      pop\n        /* \"#utility.yul\":9258:9462   */\n      swap3\n      swap2\n      pop\n      pop\n      jump\t// out\n        /* \"#utility.yul\":9468:9630   */\n    tag_123:\n        /* \"#utility.yul\":9565:9569   */\n      0x00\n        /* \"#utility.yul\":9588:9591   */\n      dup2\n        /* \"#utility.yul\":9580:9591   */\n      swap1\n      pop\n        /* \"#utility.yul\":9618:9622   */\n      0x20\n        /* \"#utility.yul\":9613:9616   */\n      dup3\n        /* \"#utility.yul\":9609:9623   */\n      add\n        /* \"#utility.yul\":9601:9623   */\n      swap1\n      pop\n        /* \"#utility.yul\":9468:9630   */\n      swap2\n      swap1\n      pop\n      jump\t// out\n        /* \"#utility.yul\":9636:9744   */\n    tag_124:\n        /* \"#utility.yul\":9713:9737   */\n      tag_244\n        /* \"#utility.yul\":9731:9736   */\n      dup2\n        /* \"#utility.yul\":9713:9737   */\n      tag_97\n      jump\t// in\n    tag_244:\n        /* \"#utility.yul\":9708:9711   */\n      dup3\n        /* \"#utility.yul\":9701:9738   */\n      mstore\n        /* \"#utility.yul\":9636:9744   */\n      pop\n      pop\n      jump\t// out\n        /* \"#utility.yul\":9818:10328   */\n    tag_125:\n        /* \"#utility.yul\":9965:9969   */\n      0x40\n        /* \"#utility.yul\":9960:9963   */\n      dup3\n        /* \"#utility.yul\":9956:9970   */\n      add\n        /* \"#utility.yul\":10053:10057   */\n      0x00\n        /* \"#utility.yul\":10046:10051   */\n      dup3\n        /* \"#utility.yul\":10042:10058   */\n      add\n        /* \"#utility.yul\":10036:10059   */\n      mload\n        /* \"#utility.yul\":10072:10135   */\n      tag_246\n        /* \"#utility.yul\":10129:10133   */\n      0x00\n        /* \"#utility.yul\":10124:10127   */\n      dup6\n        /* \"#utility.yul\":10120:10134   */\n      add\n        /* \"#utility.yul\":10106:10118   */\n      dup3\n        /* \"#utility.yul\":10072:10135   */\n      tag_124\n      jump\t// in\n    tag_246:\n        /* \"#utility.yul\":9980:10145   */\n      pop\n        /* \"#utility.yul\":10229:10233   */\n      0x20\n        /* \"#utility.yul\":10222:10227   */\n      dup3\n        /* \"#utility.yul\":10218:10234   */\n      add\n        /* \"#utility.yul\":10212:10235   */\n      mload\n        /* \"#utility.yul\":10248:10311   */\n      tag_247\n        /* \"#utility.yul\":10305:10309   */\n      0x20\n        /* \"#utility.yul\":10300:10303   */\n      dup6\n        /* \"#utility.yul\":10296:10310   */\n      add\n        /* \"#utility.yul\":10282:10294   */\n      dup3\n        /* \"#utility.yul\":10248:10311   */\n      tag_115\n      jump\t// in\n    tag_247:\n        /* \"#utility.yul\":10155:10321   */\n      pop\n        /* \"#utility.yul\":9934:10328   */\n      pop\n        /* \"#utility.yul\":9818:10328   */\n      pop\n      pop\n      jump\t// out\n        /* \"#utility.yul\":10334:10633   */\n    tag_126:\n        /* \"#utility.yul\":10463:10473   */\n      0x00\n        /* \"#utility.yul\":10484:10590   */\n      tag_249\n        /* \"#utility.yul\":10586:10589   */\n      dup4\n        /* \"#utility.yul\":10578:10584   */\n      dup4\n        /* \"#utility.yul\":10484:10590   */\n      tag_125\n      jump\t// in\n    tag_249:\n        /* \"#utility.yul\":10622:10626   */\n      0x40\n        /* \"#utility.yul\":10617:10620   */\n      dup4\n        /* \"#utility.yul\":10613:10627   */\n      add\n        /* \"#utility.yul\":10599:10627   */\n      swap1\n      pop\n        /* \"#utility.yul\":10334:10633   */\n      swap3\n      swap2\n      pop\n      pop\n      jump\t// out\n        /* \"#utility.yul\":10639:10782   */\n    tag_127:\n        /* \"#utility.yul\":10739:10743   */\n      0x00\n        /* \"#utility.yul\":10771:10775   */\n      0x20\n        /* \"#utility.yul\":10766:10769   */\n      dup3\n        /* \"#utility.yul\":10762:10776   */\n      add\n        /* \"#utility.yul\":10754:10776   */\n      swap1\n      pop\n        /* \"#utility.yul\":10639:10782   */\n      swap2\n      swap1\n      pop\n      jump\t// out\n        /* \"#utility.yul\":10860:11812   */\n    tag_128:\n        /* \"#utility.yul\":11029:11032   */\n      0x00\n        /* \"#utility.yul\":11058:11142   */\n      tag_252\n        /* \"#utility.yul\":11136:11141   */\n      dup3\n        /* \"#utility.yul\":11058:11142   */\n      tag_121\n      jump\t// in\n    tag_252:\n        /* \"#utility.yul\":11158:11264   */\n      tag_253\n        /* \"#utility.yul\":11257:11263   */\n      dup2\n        /* \"#utility.yul\":11252:11255   */\n      dup6\n        /* \"#utility.yul\":11158:11264   */\n      tag_122\n      jump\t// in\n    tag_253:\n        /* \"#utility.yul\":11151:11264   */\n      swap4\n      pop\n        /* \"#utility.yul\":11288:11374   */\n      tag_254\n        /* \"#utility.yul\":11368:11373   */\n      dup4\n        /* \"#utility.yul\":11288:11374   */\n      tag_123\n      jump\t// in\n    tag_254:\n        /* \"#utility.yul\":11397:11404   */\n      dup1\n        /* \"#utility.yul\":11428:11429   */\n      0x00\n        /* \"#utility.yul\":11413:11787   */\n    tag_255:\n        /* \"#utility.yul\":11438:11444   */\n      dup4\n        /* \"#utility.yul\":11435:11436   */\n      dup2\n        /* \"#utility.yul\":11432:11445   */\n      lt\n        /* \"#utility.yul\":11413:11787   */\n      iszero\n      tag_257\n      jumpi\n        /* \"#utility.yul\":11514:11520   */\n      dup2\n        /* \"#utility.yul\":11508:11521   */\n      mload\n        /* \"#utility.yul\":11541:11664   */\n      tag_258\n        /* \"#utility.yul\":11660:11663   */\n      dup9\n        /* \"#utility.yul\":11645:11658   */\n      dup3\n        /* \"#utility.yul\":11541:11664   */\n      tag_126\n      jump\t// in\n    tag_258:\n        /* \"#utility.yul\":11534:11664   */\n      swap8\n      pop\n        /* \"#utility.yul\":11687:11777   */\n      tag_259\n        /* \"#utility.yul\":11770:11776   */\n      dup4\n        /* \"#utility.yul\":11687:11777   */\n      tag_127\n      jump\t// in\n    tag_259:\n        /* \"#utility.yul\":11677:11777   */\n      swap3\n      pop\n        /* \"#utility.yul\":11473:11787   */\n      pop\n        /* \"#utility.yul\":11460:11461   */\n      0x01\n        /* \"#utility.yul\":11457:11458   */\n      dup2\n        /* \"#utility.yul\":11453:11462   */\n      add\n        /* \"#utility.yul\":11448:11462   */\n      swap1\n      pop\n        /* \"#utility.yul\":11413:11787   */\n      jump(tag_255)\n    tag_257:\n        /* \"#utility.yul\":11417:11431   */\n      pop\n        /* \"#utility.yul\":11803:11806   */\n      dup6\n        /* \"#utility.yul\":11796:11806   */\n      swap4\n      pop\n        /* \"#utility.yul\":11034:11812   */\n      pop\n      pop\n      pop\n        /* \"#utility.yul\":10860:11812   */\n      swap3\n      swap2\n      pop\n      pop\n      jump\t// out\n        /* \"#utility.yul\":11886:13342   */\n    tag_129:\n        /* \"#utility.yul\":12015:12018   */\n      0x00\n        /* \"#utility.yul\":12051:12055   */\n      0xa0\n        /* \"#utility.yul\":12046:12049   */\n      dup4\n        /* \"#utility.yul\":12042:12056   */\n      add\n        /* \"#utility.yul\":12142:12146   */\n      0x00\n        /* \"#utility.yul\":12135:12140   */\n      dup4\n        /* \"#utility.yul\":12131:12147   */\n      add\n        /* \"#utility.yul\":12125:12148   */\n      mload\n        /* \"#utility.yul\":12195:12198   */\n      dup5\n        /* \"#utility.yul\":12189:12193   */\n      dup3\n        /* \"#utility.yul\":12185:12199   */\n      sub\n        /* \"#utility.yul\":12178:12182   */\n      0x00\n        /* \"#utility.yul\":12173:12176   */\n      dup7\n        /* \"#utility.yul\":12169:12183   */\n      add\n        /* \"#utility.yul\":12162:12200   */\n      mstore\n        /* \"#utility.yul\":12221:12292   */\n      tag_261\n        /* \"#utility.yul\":12287:12291   */\n      dup3\n        /* \"#utility.yul\":12273:12285   */\n      dup3\n        /* \"#utility.yul\":12221:12292   */\n      tag_120\n      jump\t// in\n    tag_261:\n        /* \"#utility.yul\":12213:12292   */\n      swap2\n      pop\n        /* \"#utility.yul\":12066:12303   */\n      pop\n        /* \"#utility.yul\":12385:12389   */\n      0x20\n        /* \"#utility.yul\":12378:12383   */\n      dup4\n        /* \"#utility.yul\":12374:12390   */\n      add\n        /* \"#utility.yul\":12368:12391   */\n      mload\n        /* \"#utility.yul\":12438:12441   */\n      dup5\n        /* \"#utility.yul\":12432:12436   */\n      dup3\n        /* \"#utility.yul\":12428:12442   */\n      sub\n        /* \"#utility.yul\":12421:12425   */\n      0x20\n        /* \"#utility.yul\":12416:12419   */\n      dup7\n        /* \"#utility.yul\":12412:12426   */\n      add\n        /* \"#utility.yul\":12405:12443   */\n      mstore\n        /* \"#utility.yul\":12464:12535   */\n      tag_262\n        /* \"#utility.yul\":12530:12534   */\n      dup3\n        /* \"#utility.yul\":12516:12528   */\n      dup3\n        /* \"#utility.yul\":12464:12535   */\n      tag_120\n      jump\t// in\n    tag_262:\n        /* \"#utility.yul\":12456:12535   */\n      swap2\n      pop\n        /* \"#utility.yul\":12313:12546   */\n      pop\n        /* \"#utility.yul\":12636:12640   */\n      0x40\n        /* \"#utility.yul\":12629:12634   */\n      dup4\n        /* \"#utility.yul\":12625:12641   */\n      add\n        /* \"#utility.yul\":12619:12642   */\n      mload\n        /* \"#utility.yul\":12689:12692   */\n      dup5\n        /* \"#utility.yul\":12683:12687   */\n      dup3\n        /* \"#utility.yul\":12679:12693   */\n      sub\n        /* \"#utility.yul\":12672:12676   */\n      0x40\n        /* \"#utility.yul\":12667:12670   */\n      dup7\n        /* \"#utility.yul\":12663:12677   */\n      add\n        /* \"#utility.yul\":12656:12694   */\n      mstore\n        /* \"#utility.yul\":12715:12878   */\n      tag_263\n        /* \"#utility.yul\":12873:12877   */\n      dup3\n        /* \"#utility.yul\":12859:12871   */\n      dup3\n        /* \"#utility.yul\":12715:12878   */\n      tag_128\n      jump\t// in\n    tag_263:\n        /* \"#utility.yul\":12707:12878   */\n      swap2\n      pop\n        /* \"#utility.yul\":12556:12889   */\n      pop\n        /* \"#utility.yul\":12975:12979   */\n      0x60\n        /* \"#utility.yul\":12968:12973   */\n      dup4\n        /* \"#utility.yul\":12964:12980   */\n      add\n        /* \"#utility.yul\":12958:12981   */\n      mload\n        /* \"#utility.yul\":12994:13057   */\n      tag_264\n        /* \"#utility.yul\":13051:13055   */\n      0x60\n        /* \"#utility.yul\":13046:13049   */\n      dup7\n        /* \"#utility.yul\":13042:13056   */\n      add\n        /* \"#utility.yul\":13028:13040   */\n      dup3\n        /* \"#utility.yul\":12994:13057   */\n      tag_124\n      jump\t// in\n    tag_264:\n        /* \"#utility.yul\":12899:13067   */\n      pop\n        /* \"#utility.yul\":13154:13158   */\n      0x80\n        /* \"#utility.yul\":13147:13152   */\n      dup4\n        /* \"#utility.yul\":13143:13159   */\n      add\n        /* \"#utility.yul\":13137:13160   */\n      mload\n        /* \"#utility.yul\":13207:13210   */\n      dup5\n        /* \"#utility.yul\":13201:13205   */\n      dup3\n        /* \"#utility.yul\":13197:13211   */\n      sub\n        /* \"#utility.yul\":13190:13194   */\n      0x80\n        /* \"#utility.yul\":13185:13188   */\n      dup7\n        /* \"#utility.yul\":13181:13195   */\n      add\n        /* \"#utility.yul\":13174:13212   */\n      mstore\n        /* \"#utility.yul\":13233:13304   */\n      tag_265\n        /* \"#utility.yul\":13299:13303   */\n      dup3\n        /* \"#utility.yul\":13285:13297   */\n      dup3\n        /* \"#utility.yul\":13233:13304   */\n      tag_120\n      jump\t// in\n    tag_265:\n        /* \"#utility.yul\":13225:13304   */\n      swap2\n      pop\n        /* \"#utility.yul\":13077:13315   */\n      pop\n        /* \"#utility.yul\":13332:13336   */\n      dup1\n        /* \"#utility.yul\":13325:13336   */\n      swap2\n      pop\n        /* \"#utility.yul\":12020:13342   */\n      pop\n        /* \"#utility.yul\":11886:13342   */\n      swap3\n      swap2\n      pop\n      pop\n      jump\t// out\n        /* \"#utility.yul\":13348:13847   */\n    tag_40:\n        /* \"#utility.yul\":13527:13531   */\n      0x00\n        /* \"#utility.yul\":13565:13567   */\n      0x40\n        /* \"#utility.yul\":13554:13563   */\n      dup3\n        /* \"#utility.yul\":13550:13568   */\n      add\n        /* \"#utility.yul\":13542:13568   */\n      swap1\n      pop\n        /* \"#utility.yul\":13578:13647   */\n      tag_267\n        /* \"#utility.yul\":13644:13645   */\n      0x00\n        /* \"#utility.yul\":13633:13642   */\n      dup4\n        /* \"#utility.yul\":13629:13646   */\n      add\n        /* \"#utility.yul\":13620:13626   */\n      dup6\n        /* \"#utility.yul\":13578:13647   */\n      tag_117\n      jump\t// in\n    tag_267:\n        /* \"#utility.yul\":13694:13703   */\n      dup2\n        /* \"#utility.yul\":13688:13692   */\n      dup2\n        /* \"#utility.yul\":13684:13704   */\n      sub\n        /* \"#utility.yul\":13679:13681   */\n      0x20\n        /* \"#utility.yul\":13668:13677   */\n      dup4\n        /* \"#utility.yul\":13664:13682   */\n      add\n        /* \"#utility.yul\":13657:13705   */\n      mstore\n        /* \"#utility.yul\":13722:13840   */\n      tag_268\n        /* \"#utility.yul\":13835:13839   */\n      dup2\n        /* \"#utility.yul\":13826:13832   */\n      dup5\n        /* \"#utility.yul\":13722:13840   */\n      tag_129\n      jump\t// in\n    tag_268:\n        /* \"#utility.yul\":13714:13840   */\n      swap1\n      pop\n        /* \"#utility.yul\":13348:13847   */\n      swap4\n      swap3\n      pop\n      pop\n      pop\n      jump\t// out\n        /* \"#utility.yul\":13853:13996   */\n    tag_130:\n        /* \"#utility.yul\":13910:13915   */\n      0x00\n        /* \"#utility.yul\":13941:13947   */\n      dup2\n        /* \"#utility.yul\":13935:13948   */\n      mload\n        /* \"#utility.yul\":13926:13948   */\n      swap1\n      pop\n        /* \"#utility.yul\":13957:13990   */\n      tag_270\n        /* \"#utility.yul\":13984:13989   */\n      dup2\n        /* \"#utility.yul\":13957:13990   */\n      tag_105\n      jump\t// in\n    tag_270:\n        /* \"#utility.yul\":13853:13996   */\n      swap3\n      swap2\n      pop\n      pop\n      jump\t// out\n        /* \"#utility.yul\":14002:14353   */\n    tag_44:\n        /* \"#utility.yul\":14072:14078   */\n      0x00\n        /* \"#utility.yul\":14121:14123   */\n      0x20\n        /* \"#utility.yul\":14109:14118   */\n      dup3\n        /* \"#utility.yul\":14100:14107   */\n      dup5\n        /* \"#utility.yul\":14096:14119   */\n      sub\n        /* \"#utility.yul\":14092:14124   */\n      slt\n        /* \"#utility.yul\":14089:14208   */\n      iszero\n      tag_272\n      jumpi\n        /* \"#utility.yul\":14127:14206   */\n      tag_273\n      tag_91\n      jump\t// in\n    tag_273:\n        /* \"#utility.yul\":14089:14208   */\n    tag_272:\n        /* \"#utility.yul\":14247:14248   */\n      0x00\n        /* \"#utility.yul\":14272:14336   */\n      tag_274\n        /* \"#utility.yul\":14328:14335   */\n      dup5\n        /* \"#utility.yul\":14319:14325   */\n      dup3\n        /* \"#utility.yul\":14308:14317   */\n      dup6\n        /* \"#utility.yul\":14304:14326   */\n      add\n        /* \"#utility.yul\":14272:14336   */\n      tag_130\n      jump\t// in\n    tag_274:\n        /* \"#utility.yul\":14262:14336   */\n      swap2\n      pop\n        /* \"#utility.yul\":14218:14346   */\n      pop\n        /* \"#utility.yul\":14002:14353   */\n      swap3\n      swap2\n      pop\n      pop\n      jump\t// out\n        /* \"#utility.yul\":14359:14477   */\n    tag_131:\n        /* \"#utility.yul\":14446:14470   */\n      tag_276\n        /* \"#utility.yul\":14464:14469   */\n      dup2\n        /* \"#utility.yul\":14446:14470   */\n      tag_104\n      jump\t// in\n    tag_276:\n        /* \"#utility.yul\":14441:14444   */\n      dup3\n        /* \"#utility.yul\":14434:14471   */\n      mstore\n        /* \"#utility.yul\":14359:14477   */\n      pop\n      pop\n      jump\t// out\n        /* \"#utility.yul\":14483:14815   */\n    tag_55:\n        /* \"#utility.yul\":14604:14608   */\n      0x00\n        /* \"#utility.yul\":14642:14644   */\n      0x40\n        /* \"#utility.yul\":14631:14640   */\n      dup3\n        /* \"#utility.yul\":14627:14645   */\n      add\n        /* \"#utility.yul\":14619:14645   */\n      swap1\n      pop\n        /* \"#utility.yul\":14655:14726   */\n      tag_278\n        /* \"#utility.yul\":14723:14724   */\n      0x00\n        /* \"#utility.yul\":14712:14721   */\n      dup4\n        /* \"#utility.yul\":14708:14725   */\n      add\n        /* \"#utility.yul\":14699:14705   */\n      dup6\n        /* \"#utility.yul\":14655:14726   */\n      tag_131\n      jump\t// in\n    tag_278:\n        /* \"#utility.yul\":14736:14808   */\n      tag_279\n        /* \"#utility.yul\":14804:14806   */\n      0x20\n        /* \"#utility.yul\":14793:14802   */\n      dup4\n        /* \"#utility.yul\":14789:14807   */\n      add\n        /* \"#utility.yul\":14780:14786   */\n      dup5\n        /* \"#utility.yul\":14736:14808   */\n      tag_131\n      jump\t// in\n    tag_279:\n        /* \"#utility.yul\":14483:14815   */\n      swap4\n      swap3\n      pop\n      pop\n      pop\n      jump\t// out\n        /* \"#utility.yul\":14821:15153   */\n    tag_57:\n        /* \"#utility.yul\":14942:14946   */\n      0x00\n        /* \"#utility.yul\":14980:14982   */\n      0x40\n        /* \"#utility.yul\":14969:14978   */\n      dup3\n        /* \"#utility.yul\":14965:14983   */\n      add\n        /* \"#utility.yul\":14957:14983   */\n      swap1\n      pop\n        /* \"#utility.yul\":14993:15064   */\n      tag_281\n        /* \"#utility.yul\":15061:15062   */\n      0x00\n        /* \"#utility.yul\":15050:15059   */\n      dup4\n        /* \"#utility.yul\":15046:15063   */\n      add\n        /* \"#utility.yul\":15037:15043   */\n      dup6\n        /* \"#utility.yul\":14993:15064   */\n      tag_109\n      jump\t// in\n    tag_281:\n        /* \"#utility.yul\":15074:15146   */\n      tag_282\n        /* \"#utility.yul\":15142:15144   */\n      0x20\n        /* \"#utility.yul\":15131:15140   */\n      dup4\n        /* \"#utility.yul\":15127:15145   */\n      add\n        /* \"#utility.yul\":15118:15124   */\n      dup5\n        /* \"#utility.yul\":15074:15146   */\n      tag_131\n      jump\t// in\n    tag_282:\n        /* \"#utility.yul\":14821:15153   */\n      swap4\n      swap3\n      pop\n      pop\n      pop\n      jump\t// out\n        /* \"#utility.yul\":15159:15249   */\n    tag_132:\n        /* \"#utility.yul\":15193:15200   */\n      0x00\n        /* \"#utility.yul\":15236:15241   */\n      dup2\n        /* \"#utility.yul\":15229:15242   */\n      iszero\n        /* \"#utility.yul\":15222:15243   */\n      iszero\n        /* \"#utility.yul\":15211:15243   */\n      swap1\n      pop\n        /* \"#utility.yul\":15159:15249   */\n      swap2\n      swap1\n      pop\n      jump\t// out\n        /* \"#utility.yul\":15255:15371   */\n    tag_133:\n        /* \"#utility.yul\":15325:15346   */\n      tag_285\n        /* \"#utility.yul\":15340:15345   */\n      dup2\n        /* \"#utility.yul\":15325:15346   */\n      tag_132\n      jump\t// in\n    tag_285:\n        /* \"#utility.yul\":15318:15323   */\n      dup2\n        /* \"#utility.yul\":15315:15347   */\n      eq\n        /* \"#utility.yul\":15305:15365   */\n      tag_286\n      jumpi\n        /* \"#utility.yul\":15361:15362   */\n      0x00\n        /* \"#utility.yul\":15358:15359   */\n      dup1\n        /* \"#utility.yul\":15351:15363   */\n      revert\n        /* \"#utility.yul\":15305:15365   */\n    tag_286:\n        /* \"#utility.yul\":15255:15371   */\n      pop\n      jump\t// out\n        /* \"#utility.yul\":15377:15514   */\n    tag_134:\n        /* \"#utility.yul\":15431:15436   */\n      0x00\n        /* \"#utility.yul\":15462:15468   */\n      dup2\n        /* \"#utility.yul\":15456:15469   */\n      mload\n        /* \"#utility.yul\":15447:15469   */\n      swap1\n      pop\n        /* \"#utility.yul\":15478:15508   */\n      tag_288\n        /* \"#utility.yul\":15502:15507   */\n      dup2\n        /* \"#utility.yul\":15478:15508   */\n      tag_133\n      jump\t// in\n    tag_288:\n        /* \"#utility.yul\":15377:15514   */\n      swap3\n      swap2\n      pop\n      pop\n      jump\t// out\n        /* \"#utility.yul\":15520:15865   */\n    tag_61:\n        /* \"#utility.yul\":15587:15593   */\n      0x00\n        /* \"#utility.yul\":15636:15638   */\n      0x20\n        /* \"#utility.yul\":15624:15633   */\n      dup3\n        /* \"#utility.yul\":15615:15622   */\n      dup5\n        /* \"#utility.yul\":15611:15634   */\n      sub\n        /* \"#utility.yul\":15607:15639   */\n      slt\n        /* \"#utility.yul\":15604:15723   */\n      iszero\n      tag_290\n      jumpi\n        /* \"#utility.yul\":15642:15721   */\n      tag_291\n      tag_91\n      jump\t// in\n    tag_291:\n        /* \"#utility.yul\":15604:15723   */\n    tag_290:\n        /* \"#utility.yul\":15762:15763   */\n      0x00\n        /* \"#utility.yul\":15787:15848   */\n      tag_292\n        /* \"#utility.yul\":15840:15847   */\n      dup5\n        /* \"#utility.yul\":15831:15837   */\n      dup3\n        /* \"#utility.yul\":15820:15829   */\n      dup6\n        /* \"#utility.yul\":15816:15838   */\n      add\n        /* \"#utility.yul\":15787:15848   */\n      tag_134\n      jump\t// in\n    tag_292:\n        /* \"#utility.yul\":15777:15848   */\n      swap2\n      pop\n        /* \"#utility.yul\":15733:15858   */\n      pop\n        /* \"#utility.yul\":15520:15865   */\n      swap3\n      swap2\n      pop\n      pop\n      jump\t// out\n        /* \"#utility.yul\":15871:15993   */\n    tag_135:\n        /* \"#utility.yul\":15944:15968   */\n      tag_294\n        /* \"#utility.yul\":15962:15967   */\n      dup2\n        /* \"#utility.yul\":15944:15968   */\n      tag_107\n      jump\t// in\n    tag_294:\n        /* \"#utility.yul\":15937:15942   */\n      dup2\n        /* \"#utility.yul\":15934:15969   */\n      eq\n        /* \"#utility.yul\":15924:15987   */\n      tag_295\n      jumpi\n        /* \"#utility.yul\":15983:15984   */\n      0x00\n        /* \"#utility.yul\":15980:15981   */\n      dup1\n        /* \"#utility.yul\":15973:15985   */\n      revert\n        /* \"#utility.yul\":15924:15987   */\n    tag_295:\n        /* \"#utility.yul\":15871:15993   */\n      pop\n      jump\t// out\n        /* \"#utility.yul\":15999:16142   */\n    tag_136:\n        /* \"#utility.yul\":16056:16061   */\n      0x00\n        /* \"#utility.yul\":16087:16093   */\n      dup2\n        /* \"#utility.yul\":16081:16094   */\n      mload\n        /* \"#utility.yul\":16072:16094   */\n      swap1\n      pop\n        /* \"#utility.yul\":16103:16136   */\n      tag_297\n        /* \"#utility.yul\":16130:16135   */\n      dup2\n        /* \"#utility.yul\":16103:16136   */\n      tag_135\n      jump\t// in\n    tag_297:\n        /* \"#utility.yul\":15999:16142   */\n      swap3\n      swap2\n      pop\n      pop\n      jump\t// out\n        /* \"#utility.yul\":16148:16499   */\n    tag_66:\n        /* \"#utility.yul\":16218:16224   */\n      0x00\n        /* \"#utility.yul\":16267:16269   */\n      0x20\n        /* \"#utility.yul\":16255:16264   */\n      dup3\n        /* \"#utility.yul\":16246:16253   */\n      dup5\n        /* \"#utility.yul\":16242:16265   */\n      sub\n        /* \"#utility.yul\":16238:16270   */\n      slt\n        /* \"#utility.yul\":16235:16354   */\n      iszero\n      tag_299\n      jumpi\n        /* \"#utility.yul\":16273:16352   */\n      tag_300\n      tag_91\n      jump\t// in\n    tag_300:\n        /* \"#utility.yul\":16235:16354   */\n    tag_299:\n        /* \"#utility.yul\":16393:16394   */\n      0x00\n        /* \"#utility.yul\":16418:16482   */\n      tag_301\n        /* \"#utility.yul\":16474:16481   */\n      dup5\n        /* \"#utility.yul\":16465:16471   */\n      dup3\n        /* \"#utility.yul\":16454:16463   */\n      dup6\n        /* \"#utility.yul\":16450:16472   */\n      add\n        /* \"#utility.yul\":16418:16482   */\n      tag_136\n      jump\t// in\n    tag_301:\n        /* \"#utility.yul\":16408:16482   */\n      swap2\n      pop\n        /* \"#utility.yul\":16364:16492   */\n      pop\n        /* \"#utility.yul\":16148:16499   */\n      swap3\n      swap2\n      pop\n      pop\n      jump\t// out\n        /* \"#utility.yul\":16505:17221   */\n    tag_68:\n        /* \"#utility.yul\":16738:16742   */\n      0x00\n        /* \"#utility.yul\":16776:16779   */\n      0x80\n        /* \"#utility.yul\":16765:16774   */\n      dup3\n        /* \"#utility.yul\":16761:16780   */\n      add\n        /* \"#utility.yul\":16753:16780   */\n      swap1\n      pop\n        /* \"#utility.yul\":16790:16861   */\n      tag_303\n        /* \"#utility.yul\":16858:16859   */\n      0x00\n        /* \"#utility.yul\":16847:16856   */\n      dup4\n        /* \"#utility.yul\":16843:16860   */\n      add\n        /* \"#utility.yul\":16834:16840   */\n      dup8\n        /* \"#utility.yul\":16790:16861   */\n      tag_109\n      jump\t// in\n    tag_303:\n        /* \"#utility.yul\":16908:16917   */\n      dup2\n        /* \"#utility.yul\":16902:16906   */\n      dup2\n        /* \"#utility.yul\":16898:16918   */\n      sub\n        /* \"#utility.yul\":16893:16895   */\n      0x20\n        /* \"#utility.yul\":16882:16891   */\n      dup4\n        /* \"#utility.yul\":16878:16896   */\n      add\n        /* \"#utility.yul\":16871:16919   */\n      mstore\n        /* \"#utility.yul\":16936:17050   */\n      tag_304\n        /* \"#utility.yul\":17045:17049   */\n      dup2\n        /* \"#utility.yul\":17036:17042   */\n      dup7\n        /* \"#utility.yul\":16936:17050   */\n      tag_116\n      jump\t// in\n    tag_304:\n        /* \"#utility.yul\":16928:17050   */\n      swap1\n      pop\n        /* \"#utility.yul\":17060:17132   */\n      tag_305\n        /* \"#utility.yul\":17128:17130   */\n      0x40\n        /* \"#utility.yul\":17117:17126   */\n      dup4\n        /* \"#utility.yul\":17113:17131   */\n      add\n        /* \"#utility.yul\":17104:17110   */\n      dup6\n        /* \"#utility.yul\":17060:17132   */\n      tag_109\n      jump\t// in\n    tag_305:\n        /* \"#utility.yul\":17142:17214   */\n      tag_306\n        /* \"#utility.yul\":17210:17212   */\n      0x60\n        /* \"#utility.yul\":17199:17208   */\n      dup4\n        /* \"#utility.yul\":17195:17213   */\n      add\n        /* \"#utility.yul\":17186:17192   */\n      dup5\n        /* \"#utility.yul\":17142:17214   */\n      tag_131\n      jump\t// in\n    tag_306:\n        /* \"#utility.yul\":16505:17221   */\n      swap6\n      swap5\n      pop\n      pop\n      pop\n      pop\n      pop\n      jump\t// out\n        /* \"#utility.yul\":17227:17396   */\n    tag_137:\n        /* \"#utility.yul\":17311:17322   */\n      0x00\n        /* \"#utility.yul\":17345:17351   */\n      dup3\n        /* \"#utility.yul\":17340:17343   */\n      dup3\n        /* \"#utility.yul\":17333:17352   */\n      mstore\n        /* \"#utility.yul\":17385:17389   */\n      0x20\n        /* \"#utility.yul\":17380:17383   */\n      dup3\n        /* \"#utility.yul\":17376:17390   */\n      add\n        /* \"#utility.yul\":17361:17390   */\n      swap1\n      pop\n        /* \"#utility.yul\":17227:17396   */\n      swap3\n      swap2\n      pop\n      pop\n      jump\t// out\n        /* \"#utility.yul\":17402:17574   */\n    tag_138:\n        /* \"#utility.yul\":17542:17566   */\n      0x4d7573742062652070726f706f736564206f776e657200000000000000000000\n        /* \"#utility.yul\":17538:17539   */\n      0x00\n        /* \"#utility.yul\":17530:17536   */\n      dup3\n        /* \"#utility.yul\":17526:17540   */\n      add\n        /* \"#utility.yul\":17519:17567   */\n      mstore\n        /* \"#utility.yul\":17402:17574   */\n      pop\n      jump\t// out\n        /* \"#utility.yul\":17580:17946   */\n    tag_139:\n        /* \"#utility.yul\":17722:17725   */\n      0x00\n        /* \"#utility.yul\":17743:17810   */\n      tag_310\n        /* \"#utility.yul\":17807:17809   */\n      0x16\n        /* \"#utility.yul\":17802:17805   */\n      dup4\n        /* \"#utility.yul\":17743:17810   */\n      tag_137\n      jump\t// in\n    tag_310:\n        /* \"#utility.yul\":17736:17810   */\n      swap2\n      pop\n        /* \"#utility.yul\":17819:17912   */\n      tag_311\n        /* \"#utility.yul\":17908:17911   */\n      dup3\n        /* \"#utility.yul\":17819:17912   */\n      tag_138\n      jump\t// in\n    tag_311:\n        /* \"#utility.yul\":17937:17939   */\n      0x20\n        /* \"#utility.yul\":17932:17935   */\n      dup3\n        /* \"#utility.yul\":17928:17940   */\n      add\n        /* \"#utility.yul\":17921:17940   */\n      swap1\n      pop\n        /* \"#utility.yul\":17580:17946   */\n      swap2\n      swap1\n      pop\n      jump\t// out\n        /* \"#utility.yul\":17952:18371   */\n    tag_72:\n        /* \"#utility.yul\":18118:18122   */\n      0x00\n        /* \"#utility.yul\":18156:18158   */\n      0x20\n        /* \"#utility.yul\":18145:18154   */\n      dup3\n        /* \"#utility.yul\":18141:18159   */\n      add\n        /* \"#utility.yul\":18133:18159   */\n      swap1\n      pop\n        /* \"#utility.yul\":18205:18214   */\n      dup2\n        /* \"#utility.yul\":18199:18203   */\n      dup2\n        /* \"#utility.yul\":18195:18215   */\n      sub\n        /* \"#utility.yul\":18191:18192   */\n      0x00\n        /* \"#utility.yul\":18180:18189   */\n      dup4\n        /* \"#utility.yul\":18176:18193   */\n      add\n        /* \"#utility.yul\":18169:18216   */\n      mstore\n        /* \"#utility.yul\":18233:18364   */\n      tag_313\n        /* \"#utility.yul\":18359:18363   */\n      dup2\n        /* \"#utility.yul\":18233:18364   */\n      tag_139\n      jump\t// in\n    tag_313:\n        /* \"#utility.yul\":18225:18364   */\n      swap1\n      pop\n        /* \"#utility.yul\":17952:18371   */\n      swap2\n      swap1\n      pop\n      jump\t// out\n        /* \"#utility.yul\":18377:18549   */\n    tag_140:\n        /* \"#utility.yul\":18517:18541   */\n      0x4f6e6c792063616c6c61626c65206279206f776e657200000000000000000000\n        /* \"#utility.yul\":18513:18514   */\n      0x00\n        /* \"#utility.yul\":18505:18511   */\n      dup3\n        /* \"#utility.yul\":18501:18515   */\n      add\n        /* \"#utility.yul\":18494:18542   */\n      mstore\n        /* \"#utility.yul\":18377:18549   */\n      pop\n      jump\t// out\n        /* \"#utility.yul\":18555:18921   */\n    tag_141:\n        /* \"#utility.yul\":18697:18700   */\n      0x00\n        /* \"#utility.yul\":18718:18785   */\n      tag_316\n        /* \"#utility.yul\":18782:18784   */\n      0x16\n        /* \"#utility.yul\":18777:18780   */\n      dup4\n        /* \"#utility.yul\":18718:18785   */\n      tag_137\n      jump\t// in\n    tag_316:\n        /* \"#utility.yul\":18711:18785   */\n      swap2\n      pop\n        /* \"#utility.yul\":18794:18887   */\n      tag_317\n        /* \"#utility.yul\":18883:18886   */\n      dup3\n        /* \"#utility.yul\":18794:18887   */\n      tag_140\n      jump\t// in\n    tag_317:\n        /* \"#utility.yul\":18912:18914   */\n      0x20\n        /* \"#utility.yul\":18907:18910   */\n      dup3\n        /* \"#utility.yul\":18903:18915   */\n      add\n        /* \"#utility.yul\":18896:18915   */\n      swap1\n      pop\n        /* \"#utility.yul\":18555:18921   */\n      swap2\n      swap1\n      pop\n      jump\t// out\n        /* \"#utility.yul\":18927:19346   */\n    tag_82:\n        /* \"#utility.yul\":19093:19097   */\n      0x00\n        /* \"#utility.yul\":19131:19133   */\n      0x20\n        /* \"#utility.yul\":19120:19129   */\n      dup3\n        /* \"#utility.yul\":19116:19134   */\n      add\n        /* \"#utility.yul\":19108:19134   */\n      swap1\n      pop\n        /* \"#utility.yul\":19180:19189   */\n      dup2\n        /* \"#utility.yul\":19174:19178   */\n      dup2\n        /* \"#utility.yul\":19170:19190   */\n      sub\n        /* \"#utility.yul\":19166:19167   */\n      0x00\n        /* \"#utility.yul\":19155:19164   */\n      dup4\n        /* \"#utility.yul\":19151:19168   */\n      add\n        /* \"#utility.yul\":19144:19191   */\n      mstore\n        /* \"#utility.yul\":19208:19339   */\n      tag_319\n        /* \"#utility.yul\":19334:19338   */\n      dup2\n        /* \"#utility.yul\":19208:19339   */\n      tag_141\n      jump\t// in\n    tag_319:\n        /* \"#utility.yul\":19200:19339   */\n      swap1\n      pop\n        /* \"#utility.yul\":18927:19346   */\n      swap2\n      swap1\n      pop\n      jump\t// out\n        /* \"#utility.yul\":19352:19451   */\n    tag_142:\n        /* \"#utility.yul\":19423:19444   */\n      tag_321\n        /* \"#utility.yul\":19438:19443   */\n      dup2\n        /* \"#utility.yul\":19423:19444   */\n      tag_132\n      jump\t// in\n    tag_321:\n        /* \"#utility.yul\":19418:19421   */\n      dup3\n        /* \"#utility.yul\":19411:19445   */\n      mstore\n        /* \"#utility.yul\":19352:19451   */\n      pop\n      pop\n      jump\t// out\n        /* \"#utility.yul\":19525:20062   */\n    tag_143:\n        /* \"#utility.yul\":19684:19688   */\n      0x40\n        /* \"#utility.yul\":19679:19682   */\n      dup3\n        /* \"#utility.yul\":19675:19689   */\n      add\n        /* \"#utility.yul\":19775:19779   */\n      0x00\n        /* \"#utility.yul\":19768:19773   */\n      dup3\n        /* \"#utility.yul\":19764:19780   */\n      add\n        /* \"#utility.yul\":19758:19781   */\n      mload\n        /* \"#utility.yul\":19794:19857   */\n      tag_323\n        /* \"#utility.yul\":19851:19855   */\n      0x00\n        /* \"#utility.yul\":19846:19849   */\n      dup6\n        /* \"#utility.yul\":19842:19856   */\n      add\n        /* \"#utility.yul\":19828:19840   */\n      dup3\n        /* \"#utility.yul\":19794:19857   */\n      tag_115\n      jump\t// in\n    tag_323:\n        /* \"#utility.yul\":19699:19867   */\n      pop\n        /* \"#utility.yul\":19969:19973   */\n      0x20\n        /* \"#utility.yul\":19962:19967   */\n      dup3\n        /* \"#utility.yul\":19958:19974   */\n      add\n        /* \"#utility.yul\":19952:19975   */\n      mload\n        /* \"#utility.yul\":19988:20045   */\n      tag_324\n        /* \"#utility.yul\":20039:20043   */\n      0x20\n        /* \"#utility.yul\":20034:20037   */\n      dup6\n        /* \"#utility.yul\":20030:20044   */\n      add\n        /* \"#utility.yul\":20016:20028   */\n      dup3\n        /* \"#utility.yul\":19988:20045   */\n      tag_142\n      jump\t// in\n    tag_324:\n        /* \"#utility.yul\":19877:20055   */\n      pop\n        /* \"#utility.yul\":19653:20062   */\n      pop\n        /* \"#utility.yul\":19525:20062   */\n      pop\n      pop\n      jump\t// out\n        /* \"#utility.yul\":20068:20414   */\n    tag_85:\n        /* \"#utility.yul\":20223:20227   */\n      0x00\n        /* \"#utility.yul\":20261:20263   */\n      0x40\n        /* \"#utility.yul\":20250:20259   */\n      dup3\n        /* \"#utility.yul\":20246:20264   */\n      add\n        /* \"#utility.yul\":20238:20264   */\n      swap1\n      pop\n        /* \"#utility.yul\":20274:20407   */\n      tag_326\n        /* \"#utility.yul\":20404:20405   */\n      0x00\n        /* \"#utility.yul\":20393:20402   */\n      dup4\n        /* \"#utility.yul\":20389:20406   */\n      add\n        /* \"#utility.yul\":20380:20386   */\n      dup5\n        /* \"#utility.yul\":20274:20407   */\n      tag_143\n      jump\t// in\n    tag_326:\n        /* \"#utility.yul\":20068:20414   */\n      swap3\n      swap2\n      pop\n      pop\n      jump\t// out\n        /* \"#utility.yul\":20420:20593   */\n    tag_144:\n        /* \"#utility.yul\":20560:20585   */\n      0x43616e6e6f74207472616e7366657220746f2073656c66000000000000000000\n        /* \"#utility.yul\":20556:20557   */\n      0x00\n        /* \"#utility.yul\":20548:20554   */\n      dup3\n        /* \"#utility.yul\":20544:20558   */\n      add\n        /* \"#utility.yul\":20537:20586   */\n      mstore\n        /* \"#utility.yul\":20420:20593   */\n      pop\n      jump\t// out\n        /* \"#utility.yul\":20599:20965   */\n    tag_145:\n        /* \"#utility.yul\":20741:20744   */\n      0x00\n        /* \"#utility.yul\":20762:20829   */\n      tag_329\n        /* \"#utility.yul\":20826:20828   */\n      0x17\n        /* \"#utility.yul\":20821:20824   */\n      dup4\n        /* \"#utility.yul\":20762:20829   */\n      tag_137\n      jump\t// in\n    tag_329:\n        /* \"#utility.yul\":20755:20829   */\n      swap2\n      pop\n        /* \"#utility.yul\":20838:20931   */\n      tag_330\n        /* \"#utility.yul\":20927:20930   */\n      dup3\n        /* \"#utility.yul\":20838:20931   */\n      tag_144\n      jump\t// in\n    tag_330:\n        /* \"#utility.yul\":20956:20958   */\n      0x20\n        /* \"#utility.yul\":20951:20954   */\n      dup3\n        /* \"#utility.yul\":20947:20959   */\n      add\n        /* \"#utility.yul\":20940:20959   */\n      swap1\n      pop\n        /* \"#utility.yul\":20599:20965   */\n      swap2\n      swap1\n      pop\n      jump\t// out\n        /* \"#utility.yul\":20971:21390   */\n    tag_89:\n        /* \"#utility.yul\":21137:21141   */\n      0x00\n        /* \"#utility.yul\":21175:21177   */\n      0x20\n        /* \"#utility.yul\":21164:21173   */\n      dup3\n        /* \"#utility.yul\":21160:21178   */\n      add\n        /* \"#utility.yul\":21152:21178   */\n      swap1\n      pop\n        /* \"#utility.yul\":21224:21233   */\n      dup2\n        /* \"#utility.yul\":21218:21222   */\n      dup2\n        /* \"#utility.yul\":21214:21234   */\n      sub\n        /* \"#utility.yul\":21210:21211   */\n      0x00\n        /* \"#utility.yul\":21199:21208   */\n      dup4\n        /* \"#utility.yul\":21195:21212   */\n      add\n        /* \"#utility.yul\":21188:21235   */\n      mstore\n        /* \"#utility.yul\":21252:21383   */\n      tag_332\n        /* \"#utility.yul\":21378:21382   */\n      dup2\n        /* \"#utility.yul\":21252:21383   */\n      tag_145\n      jump\t// in\n    tag_332:\n        /* \"#utility.yul\":21244:21383   */\n      swap1\n      pop\n        /* \"#utility.yul\":20971:21390   */\n      swap2\n      swap1\n      pop\n      jump\t// out\n\n    auxdata: 0xa264697066735822122009e85ffa5d444d038745c40652a41506dc1475b3b9ebd7b6e7936687911a5e2f64736f6c63430008180033\n}\n",
				"bytecode": {
					"linkReferences": {},
					"object": "608060405234801562000010575f80fd5b50604051620018e8380380620018e883398181016040528101906200003691906200034c565b33805f8073ffffffffffffffffffffffffffffffffffffffff168273ffffffffffffffffffffffffffffffffffffffff1603620000aa576040517f08c379a0000000000000000000000000000000000000000000000000000000008152600401620000a190620003ef565b60405180910390fd5b815f806101000a81548173ffffffffffffffffffffffffffffffffffffffff021916908373ffffffffffffffffffffffffffffffffffffffff1602179055505f73ffffffffffffffffffffffffffffffffffffffff168173ffffffffffffffffffffffffffffffffffffffff16146200012f576200012e81620001ba60201b60201c565b5b5050508160025f6101000a81548173ffffffffffffffffffffffffffffffffffffffff021916908373ffffffffffffffffffffffffffffffffffffffff1602179055508060035f6101000a81548173ffffffffffffffffffffffffffffffffffffffff021916908373ffffffffffffffffffffffffffffffffffffffff16021790555050506200047d565b3373ffffffffffffffffffffffffffffffffffffffff168173ffffffffffffffffffffffffffffffffffffffff16036200022b576040517f08c379a000000000000000000000000000000000000000000000000000000000815260040162000222906200045d565b60405180910390fd5b8060015f6101000a81548173ffffffffffffffffffffffffffffffffffffffff021916908373ffffffffffffffffffffffffffffffffffffffff1602179055508073ffffffffffffffffffffffffffffffffffffffff165f8054906101000a900473ffffffffffffffffffffffffffffffffffffffff1673ffffffffffffffffffffffffffffffffffffffff167fed8889f560326eb138920d842192f0eb3dd22b4f139c87a2c57538e05bae127860405160405180910390a350565b5f80fd5b5f73ffffffffffffffffffffffffffffffffffffffff82169050919050565b5f6200031682620002eb565b9050919050565b62000328816200030a565b811462000333575f80fd5b50565b5f8151905062000346816200031d565b92915050565b5f8060408385031215620003655762000364620002e7565b5b5f620003748582860162000336565b9250506020620003878582860162000336565b9150509250929050565b5f82825260208201905092915050565b7f43616e6e6f7420736574206f776e657220746f207a65726f00000000000000005f82015250565b5f620003d760188362000391565b9150620003e482620003a1565b602082019050919050565b5f6020820190508181035f8301526200040881620003c9565b9050919050565b7f43616e6e6f74207472616e7366657220746f2073656c660000000000000000005f82015250565b5f6200044560178362000391565b915062000452826200040f565b602082019050919050565b5f6020820190508181035f830152620004768162000437565b9050919050565b61145d806200048b5f395ff3fe608060405234801561000f575f80fd5b506004361061004a575f3560e01c80633bd0a8211461004e57806379ba50971461007e5780638da5cb5b14610088578063f2fde38b146100a6575b5f80fd5b61006860048036038101906100639190610c20565b6100c2565b6040516100759190610d21565b60405180910390f35b6100866106bd565b005b61009061084c565b60405161009d9190610d49565b60405180910390f35b6100c060048036038101906100bb9190610d62565b610873565b005b5f6100cb610887565b5f6040518060a001604052808a8a8080601f0160208091040260200160405190810160405280939291908181526020018383808284375f81840152601f19601f82011690508083019250505050505050815260200188815260200187878080601f0160208091040260200160405190810160405280939291908181526020018383808284375f81840152601f19601f82011690508083019250505050505050815260200185858080601f0160208091040260200160405190810160405280939291908181526020018383808284375f81840152601f19601f8201169050808301925050505050505081526020014281525090505f6040518060a001604052808c6040516020016101db9190610d49565b6040516020818303038152906040528152602001836040516020016102009190610ea7565b60405160208183030381529060405281526020015f67ffffffffffffffff81111561022e5761022d610ec7565b5b60405190808252806020026020018201604052801561026757816020015b610254610abf565b81526020019060019003908161024c5790505b50815260200160035f9054906101000a900473ffffffffffffffffffffffffffffffffffffffff1673ffffffffffffffffffffffffffffffffffffffff1681526020016102cd604051806040016040528062030d40815260200160011515815250610916565b81525090505f60025f9054906101000a900473ffffffffffffffffffffffffffffffffffffffff1673ffffffffffffffffffffffffffffffffffffffff166320487ded8e846040518363ffffffff1660e01b815260040161032f9291906110c1565b602060405180830381865afa15801561034a573d5f803e3d5ffd5b505050506040513d601f19601f8201168201806040525081019061036e9190611103565b905060035f9054906101000a900473ffffffffffffffffffffffffffffffffffffffff1673ffffffffffffffffffffffffffffffffffffffff166370a08231306040518263ffffffff1660e01b81526004016103ca9190610d49565b602060405180830381865afa1580156103e5573d5f803e3d5ffd5b505050506040513d601f19601f820116820180604052508101906104099190611103565b8111156104e75760035f9054906101000a900473ffffffffffffffffffffffffffffffffffffffff1673ffffffffffffffffffffffffffffffffffffffff166370a08231306040518263ffffffff1660e01b815260040161046a9190610d49565b602060405180830381865afa158015610485573d5f803e3d5ffd5b505050506040513d601f19601f820116820180604052508101906104a99190611103565b816040517f8f0f42060000000000000000000000000000000000000000000000000000000081526004016104de92919061113d565b60405180910390fd5b60035f9054906101000a900473ffffffffffffffffffffffffffffffffffffffff1673ffffffffffffffffffffffffffffffffffffffff1663095ea7b360025f9054906101000a900473ffffffffffffffffffffffffffffffffffffffff16836040518363ffffffff1660e01b8152600401610564929190611164565b6020604051808303815f875af1158015610580573d5f803e3d5ffd5b505050506040513d601f19601f820116820180604052508101906105a491906111c0565b5060025f9054906101000a900473ffffffffffffffffffffffffffffffffffffffff1673ffffffffffffffffffffffffffffffffffffffff166396f4e9f98e846040518363ffffffff1660e01b81526004016106019291906110c1565b6020604051808303815f875af115801561061d573d5f803e3d5ffd5b505050506040513d601f19601f820116820180604052508101906106419190611215565b93508c67ffffffffffffffff16847fdc760d575797bec6428e86e510569b89b22d6b842b392fadd8fe46421e2723628e8660035f9054906101000a900473ffffffffffffffffffffffffffffffffffffffff16866040516106a59493929190611240565b60405180910390a35050509998505050505050505050565b60015f9054906101000a900473ffffffffffffffffffffffffffffffffffffffff1673ffffffffffffffffffffffffffffffffffffffff163373ffffffffffffffffffffffffffffffffffffffff161461074c576040517f08c379a0000000000000000000000000000000000000000000000000000000008152600401610743906112e4565b60405180910390fd5b5f805f9054906101000a900473ffffffffffffffffffffffffffffffffffffffff169050335f806101000a81548173ffffffffffffffffffffffffffffffffffffffff021916908373ffffffffffffffffffffffffffffffffffffffff1602179055505f60015f6101000a81548173ffffffffffffffffffffffffffffffffffffffff021916908373ffffffffffffffffffffffffffffffffffffffff1602179055503373ffffffffffffffffffffffffffffffffffffffff168173ffffffffffffffffffffffffffffffffffffffff167f8be0079c531659141344cd1fd0a4f28419497f9722a3daafe3b4186f6b6457e060405160405180910390a350565b5f805f9054906101000a900473ffffffffffffffffffffffffffffffffffffffff16905090565b61087b610887565b61088481610995565b50565b5f8054906101000a900473ffffffffffffffffffffffffffffffffffffffff1673ffffffffffffffffffffffffffffffffffffffff163373ffffffffffffffffffffffffffffffffffffffff1614610914576040517f08c379a000000000000000000000000000000000000000000000000000000000815260040161090b9061134c565b60405180910390fd5b565b606063181dcf1060e01b8260405160240161093191906113a6565b604051602081830303815290604052907bffffffffffffffffffffffffffffffffffffffffffffffffffffffff19166020820180517bffffffffffffffffffffffffffffffffffffffffffffffffffffffff83818316178352505050509050919050565b3373ffffffffffffffffffffffffffffffffffffffff168173ffffffffffffffffffffffffffffffffffffffff1603610a03576040517f08c379a00000000000000000000000000000000000000000000000000000000081526004016109fa90611409565b60405180910390fd5b8060015f6101000a81548173ffffffffffffffffffffffffffffffffffffffff021916908373ffffffffffffffffffffffffffffffffffffffff1602179055508073ffffffffffffffffffffffffffffffffffffffff165f8054906101000a900473ffffffffffffffffffffffffffffffffffffffff1673ffffffffffffffffffffffffffffffffffffffff167fed8889f560326eb138920d842192f0eb3dd22b4f139c87a2c57538e05bae127860405160405180910390a350565b60405180604001604052805f73ffffffffffffffffffffffffffffffffffffffff1681526020015f81525090565b5f80fd5b5f80fd5b5f67ffffffffffffffff82169050919050565b610b1181610af5565b8114610b1b575f80fd5b50565b5f81359050610b2c81610b08565b92915050565b5f73ffffffffffffffffffffffffffffffffffffffff82169050919050565b5f610b5b82610b32565b9050919050565b610b6b81610b51565b8114610b75575f80fd5b50565b5f81359050610b8681610b62565b92915050565b5f80fd5b5f80fd5b5f80fd5b5f8083601f840112610bad57610bac610b8c565b5b8235905067ffffffffffffffff811115610bca57610bc9610b90565b5b602083019150836001820283011115610be657610be5610b94565b5b9250929050565b5f819050919050565b610bff81610bed565b8114610c09575f80fd5b50565b5f81359050610c1a81610bf6565b92915050565b5f805f805f805f805f60c08a8c031215610c3d57610c3c610aed565b5b5f610c4a8c828d01610b1e565b9950506020610c5b8c828d01610b78565b98505060408a013567ffffffffffffffff811115610c7c57610c7b610af1565b5b610c888c828d01610b98565b97509750506060610c9b8c828d01610c0c565b95505060808a013567ffffffffffffffff811115610cbc57610cbb610af1565b5b610cc88c828d01610b98565b945094505060a08a013567ffffffffffffffff811115610ceb57610cea610af1565b5b610cf78c828d01610b98565b92509250509295985092959850929598565b5f819050919050565b610d1b81610d09565b82525050565b5f602082019050610d345f830184610d12565b92915050565b610d4381610b51565b82525050565b5f602082019050610d5c5f830184610d3a565b92915050565b5f60208284031215610d7757610d76610aed565b5b5f610d8484828501610b78565b91505092915050565b5f81519050919050565b5f82825260208201905092915050565b5f5b83811015610dc4578082015181840152602081019050610da9565b5f8484015250505050565b5f601f19601f8301169050919050565b5f610de982610d8d565b610df38185610d97565b9350610e03818560208601610da7565b610e0c81610dcf565b840191505092915050565b610e2081610bed565b82525050565b5f60a083015f8301518482035f860152610e408282610ddf565b9150506020830151610e556020860182610e17565b5060408301518482036040860152610e6d8282610ddf565b91505060608301518482036060860152610e878282610ddf565b9150506080830151610e9c6080860182610e17565b508091505092915050565b5f6020820190508181035f830152610ebf8184610e26565b905092915050565b7f4e487b71000000000000000000000000000000000000000000000000000000005f52604160045260245ffd5b610efd81610af5565b82525050565b5f81519050919050565b5f82825260208201905092915050565b5f610f2782610f03565b610f318185610f0d565b9350610f41818560208601610da7565b610f4a81610dcf565b840191505092915050565b5f81519050919050565b5f82825260208201905092915050565b5f819050602082019050919050565b610f8781610b51565b82525050565b604082015f820151610fa15f850182610f7e565b506020820151610fb46020850182610e17565b50505050565b5f610fc58383610f8d565b60408301905092915050565b5f602082019050919050565b5f610fe782610f55565b610ff18185610f5f565b9350610ffc83610f6f565b805f5b8381101561102c5781516110138882610fba565b975061101e83610fd1565b925050600181019050610fff565b5085935050505092915050565b5f60a083015f8301518482035f8601526110538282610f1d565b9150506020830151848203602086015261106d8282610f1d565b915050604083015184820360408601526110878282610fdd565b915050606083015161109c6060860182610f7e565b50608083015184820360808601526110b48282610f1d565b9150508091505092915050565b5f6040820190506110d45f830185610ef4565b81810360208301526110e68184611039565b90509392505050565b5f815190506110fd81610bf6565b92915050565b5f6020828403121561111857611117610aed565b5b5f611125848285016110ef565b91505092915050565b61113781610bed565b82525050565b5f6040820190506111505f83018561112e565b61115d602083018461112e565b9392505050565b5f6040820190506111775f830185610d3a565b611184602083018461112e565b9392505050565b5f8115159050919050565b61119f8161118b565b81146111a9575f80fd5b50565b5f815190506111ba81611196565b92915050565b5f602082840312156111d5576111d4610aed565b5b5f6111e2848285016111ac565b91505092915050565b6111f481610d09565b81146111fe575f80fd5b50565b5f8151905061120f816111eb565b92915050565b5f6020828403121561122a57611229610aed565b5b5f61123784828501611201565b91505092915050565b5f6080820190506112535f830187610d3a565b81810360208301526112658186610e26565b90506112746040830185610d3a565b611281606083018461112e565b95945050505050565b5f82825260208201905092915050565b7f4d7573742062652070726f706f736564206f776e6572000000000000000000005f82015250565b5f6112ce60168361128a565b91506112d98261129a565b602082019050919050565b5f6020820190508181035f8301526112fb816112c2565b9050919050565b7f4f6e6c792063616c6c61626c65206279206f776e6572000000000000000000005f82015250565b5f61133660168361128a565b915061134182611302565b602082019050919050565b5f6020820190508181035f8301526113638161132a565b9050919050565b6113738161118b565b82525050565b604082015f82015161138d5f850182610e17565b5060208201516113a0602085018261136a565b50505050565b5f6040820190506113b95f830184611379565b92915050565b7f43616e6e6f74207472616e7366657220746f2073656c660000000000000000005f82015250565b5f6113f360178361128a565b91506113fe826113bf565b602082019050919050565b5f6020820190508181035f830152611420816113e7565b905091905056fea264697066735822122009e85ffa5d444d038745c40652a41506dc1475b3b9ebd7b6e7936687911a5e2f64736f6c63430008180033",
					"opcodes": "PUSH1 0x80 PUSH1 0x40 MSTORE CALLVALUE DUP1 ISZERO PUSH3 0x10 JUMPI PUSH0 DUP1 REVERT JUMPDEST POP PUSH1 0x40 MLOAD PUSH3 0x18E8 CODESIZE SUB DUP1 PUSH3 0x18E8 DUP4 CODECOPY DUP2 DUP2 ADD PUSH1 0x40 MSTORE DUP2 ADD SWAP1 PUSH3 0x36 SWAP2 SWAP1 PUSH3 0x34C JUMP JUMPDEST CALLER DUP1 PUSH0 DUP1 PUSH20 0xFFFFFFFFFFFFFFFFFFFFFFFFFFFFFFFFFFFFFFFF AND DUP3 PUSH20 0xFFFFFFFFFFFFFFFFFFFFFFFFFFFFFFFFFFFFFFFF AND SUB PUSH3 0xAA JUMPI PUSH1 0x40 MLOAD PUSH32 0x8C379A000000000000000000000000000000000000000000000000000000000 DUP2 MSTORE PUSH1 0x4 ADD PUSH3 0xA1 SWAP1 PUSH3 0x3EF JUMP JUMPDEST PUSH1 0x40 MLOAD DUP1 SWAP2 SUB SWAP1 REVERT JUMPDEST DUP2 PUSH0 DUP1 PUSH2 0x100 EXP DUP2 SLOAD DUP2 PUSH20 0xFFFFFFFFFFFFFFFFFFFFFFFFFFFFFFFFFFFFFFFF MUL NOT AND SWAP1 DUP4 PUSH20 0xFFFFFFFFFFFFFFFFFFFFFFFFFFFFFFFFFFFFFFFF AND MUL OR SWAP1 SSTORE POP PUSH0 PUSH20 0xFFFFFFFFFFFFFFFFFFFFFFFFFFFFFFFFFFFFFFFF AND DUP2 PUSH20 0xFFFFFFFFFFFFFFFFFFFFFFFFFFFFFFFFFFFFFFFF AND EQ PUSH3 0x12F JUMPI PUSH3 0x12E DUP2 PUSH3 0x1BA PUSH1 0x20 SHL PUSH1 0x20 SHR JUMP JUMPDEST JUMPDEST POP POP POP DUP2 PUSH1 0x2 PUSH0 PUSH2 0x100 EXP DUP2 SLOAD DUP2 PUSH20 0xFFFFFFFFFFFFFFFFFFFFFFFFFFFFFFFFFFFFFFFF MUL NOT AND SWAP1 DUP4 PUSH20 0xFFFFFFFFFFFFFFFFFFFFFFFFFFFFFFFFFFFFFFFF AND MUL OR SWAP1 SSTORE POP DUP1 PUSH1 0x3 PUSH0 PUSH2 0x100 EXP DUP2 SLOAD DUP2 PUSH20 0xFFFFFFFFFFFFFFFFFFFFFFFFFFFFFFFFFFFFFFFF MUL NOT AND SWAP1 DUP4 PUSH20 0xFFFFFFFFFFFFFFFFFFFFFFFFFFFFFFFFFFFFFFFF AND MUL OR SWAP1 SSTORE POP POP POP PUSH3 0x47D JUMP JUMPDEST CALLER PUSH20 0xFFFFFFFFFFFFFFFFFFFFFFFFFFFFFFFFFFFFFFFF AND DUP2 PUSH20 0xFFFFFFFFFFFFFFFFFFFFFFFFFFFFFFFFFFFFFFFF AND SUB PUSH3 0x22B JUMPI PUSH1 0x40 MLOAD PUSH32 0x8C379A000000000000000000000000000000000000000000000000000000000 DUP2 MSTORE PUSH1 0x4 ADD PUSH3 0x222 SWAP1 PUSH3 0x45D JUMP JUMPDEST PUSH1 0x40 MLOAD DUP1 SWAP2 SUB SWAP1 REVERT JUMPDEST DUP1 PUSH1 0x1 PUSH0 PUSH2 0x100 EXP DUP2 SLOAD DUP2 PUSH20 0xFFFFFFFFFFFFFFFFFFFFFFFFFFFFFFFFFFFFFFFF MUL NOT AND SWAP1 DUP4 PUSH20 0xFFFFFFFFFFFFFFFFFFFFFFFFFFFFFFFFFFFFFFFF AND MUL OR SWAP1 SSTORE POP DUP1 PUSH20 0xFFFFFFFFFFFFFFFFFFFFFFFFFFFFFFFFFFFFFFFF AND PUSH0 DUP1 SLOAD SWAP1 PUSH2 0x100 EXP SWAP1 DIV PUSH20 0xFFFFFFFFFFFFFFFFFFFFFFFFFFFFFFFFFFFFFFFF AND PUSH20 0xFFFFFFFFFFFFFFFFFFFFFFFFFFFFFFFFFFFFFFFF AND PUSH32 0xED8889F560326EB138920D842192F0EB3DD22B4F139C87A2C57538E05BAE1278 PUSH1 0x40 MLOAD PUSH1 0x40 MLOAD DUP1 SWAP2 SUB SWAP1 LOG3 POP JUMP JUMPDEST PUSH0 DUP1 REVERT JUMPDEST PUSH0 PUSH20 0xFFFFFFFFFFFFFFFFFFFFFFFFFFFFFFFFFFFFFFFF DUP3 AND SWAP1 POP SWAP2 SWAP1 POP JUMP JUMPDEST PUSH0 PUSH3 0x316 DUP3 PUSH3 0x2EB JUMP JUMPDEST SWAP1 POP SWAP2 SWAP1 POP JUMP JUMPDEST PUSH3 0x328 DUP2 PUSH3 0x30A JUMP JUMPDEST DUP2 EQ PUSH3 0x333 JUMPI PUSH0 DUP1 REVERT JUMPDEST POP JUMP JUMPDEST PUSH0 DUP2 MLOAD SWAP1 POP PUSH3 0x346 DUP2 PUSH3 0x31D JUMP JUMPDEST SWAP3 SWAP2 POP POP JUMP JUMPDEST PUSH0 DUP1 PUSH1 0x40 DUP4 DUP6 SUB SLT ISZERO PUSH3 0x365 JUMPI PUSH3 0x364 PUSH3 0x2E7 JUMP JUMPDEST JUMPDEST PUSH0 PUSH3 0x374 DUP6 DUP3 DUP7 ADD PUSH3 0x336 JUMP JUMPDEST SWAP3 POP POP PUSH1 0x20 PUSH3 0x387 DUP6 DUP3 DUP7 ADD PUSH3 0x336 JUMP JUMPDEST SWAP2 POP POP SWAP3 POP SWAP3 SWAP1 POP JUMP JUMPDEST PUSH0 DUP3 DUP3 MSTORE PUSH1 0x20 DUP3 ADD SWAP1 POP SWAP3 SWAP2 POP POP JUMP JUMPDEST PUSH32 0x43616E6E6F7420736574206F776E657220746F207A65726F0000000000000000 PUSH0 DUP3 ADD MSTORE POP JUMP JUMPDEST PUSH0 PUSH3 0x3D7 PUSH1 0x18 DUP4 PUSH3 0x391 JUMP JUMPDEST SWAP2 POP PUSH3 0x3E4 DUP3 PUSH3 0x3A1 JUMP JUMPDEST PUSH1 0x20 DUP3 ADD SWAP1 POP SWAP2 SWAP1 POP JUMP JUMPDEST PUSH0 PUSH1 0x20 DUP3 ADD SWAP1 POP DUP2 DUP2 SUB PUSH0 DUP4 ADD MSTORE PUSH3 0x408 DUP2 PUSH3 0x3C9 JUMP JUMPDEST SWAP1 POP SWAP2 SWAP1 POP JUMP JUMPDEST PUSH32 0x43616E6E6F74207472616E7366657220746F2073656C66000000000000000000 PUSH0 DUP3 ADD MSTORE POP JUMP JUMPDEST PUSH0 PUSH3 0x445 PUSH1 0x17 DUP4 PUSH3 0x391 JUMP JUMPDEST SWAP2 POP PUSH3 0x452 DUP3 PUSH3 0x40F JUMP JUMPDEST PUSH1 0x20 DUP3 ADD SWAP1 POP SWAP2 SWAP1 POP JUMP JUMPDEST PUSH0 PUSH1 0x20 DUP3 ADD SWAP1 POP DUP2 DUP2 SUB PUSH0 DUP4 ADD MSTORE PUSH3 0x476 DUP2 PUSH3 0x437 JUMP JUMPDEST SWAP1 POP SWAP2 SWAP1 POP JUMP JUMPDEST PUSH2 0x145D DUP1 PUSH3 0x48B PUSH0 CODECOPY PUSH0 RETURN INVALID PUSH1 0x80 PUSH1 0x40 MSTORE CALLVALUE DUP1 ISZERO PUSH2 0xF JUMPI PUSH0 DUP1 REVERT JUMPDEST POP PUSH1 0x4 CALLDATASIZE LT PUSH2 0x4A JUMPI PUSH0 CALLDATALOAD PUSH1 0xE0 SHR DUP1 PUSH4 0x3BD0A821 EQ PUSH2 0x4E JUMPI DUP1 PUSH4 0x79BA5097 EQ PUSH2 0x7E JUMPI DUP1 PUSH4 0x8DA5CB5B EQ PUSH2 0x88 JUMPI DUP1 PUSH4 0xF2FDE38B EQ PUSH2 0xA6 JUMPI JUMPDEST PUSH0 DUP1 REVERT JUMPDEST PUSH2 0x68 PUSH1 0x4 DUP1 CALLDATASIZE SUB DUP2 ADD SWAP1 PUSH2 0x63 SWAP2 SWAP1 PUSH2 0xC20 JUMP JUMPDEST PUSH2 0xC2 JUMP JUMPDEST PUSH1 0x40 MLOAD PUSH2 0x75 SWAP2 SWAP1 PUSH2 0xD21 JUMP JUMPDEST PUSH1 0x40 MLOAD DUP1 SWAP2 SUB SWAP1 RETURN JUMPDEST PUSH2 0x86 PUSH2 0x6BD JUMP JUMPDEST STOP JUMPDEST PUSH2 0x90 PUSH2 0x84C JUMP JUMPDEST PUSH1 0x40 MLOAD PUSH2 0x9D SWAP2 SWAP1 PUSH2 0xD49 JUMP JUMPDEST PUSH1 0x40 MLOAD DUP1 SWAP2 SUB SWAP1 RETURN JUMPDEST PUSH2 0xC0 PUSH1 0x4 DUP1 CALLDATASIZE SUB DUP2 ADD SWAP1 PUSH2 0xBB SWAP2 SWAP1 PUSH2 0xD62 JUMP JUMPDEST PUSH2 0x873 JUMP JUMPDEST STOP JUMPDEST PUSH0 PUSH2 0xCB PUSH2 0x887 JUMP JUMPDEST PUSH0 PUSH1 0x40 MLOAD DUP1 PUSH1 0xA0 ADD PUSH1 0x40 MSTORE DUP1 DUP11 DUP11 DUP1 DUP1 PUSH1 0x1F ADD PUSH1 0x20 DUP1 SWAP2 DIV MUL PUSH1 0x20 ADD PUSH1 0x40 MLOAD SWAP1 DUP2 ADD PUSH1 0x40 MSTORE DUP1 SWAP4 SWAP3 SWAP2 SWAP1 DUP2 DUP2 MSTORE PUSH1 0x20 ADD DUP4 DUP4 DUP1 DUP3 DUP5 CALLDATACOPY PUSH0 DUP2 DUP5 ADD MSTORE PUSH1 0x1F NOT PUSH1 0x1F DUP3 ADD AND SWAP1 POP DUP1 DUP4 ADD SWAP3 POP POP POP POP POP POP POP DUP2 MSTORE PUSH1 0x20 ADD DUP9 DUP2 MSTORE PUSH1 0x20 ADD DUP8 DUP8 DUP1 DUP1 PUSH1 0x1F ADD PUSH1 0x20 DUP1 SWAP2 DIV MUL PUSH1 0x20 ADD PUSH1 0x40 MLOAD SWAP1 DUP2 ADD PUSH1 0x40 MSTORE DUP1 SWAP4 SWAP3 SWAP2 SWAP1 DUP2 DUP2 MSTORE PUSH1 0x20 ADD DUP4 DUP4 DUP1 DUP3 DUP5 CALLDATACOPY PUSH0 DUP2 DUP5 ADD MSTORE PUSH1 0x1F NOT PUSH1 0x1F DUP3 ADD AND SWAP1 POP DUP1 DUP4 ADD SWAP3 POP POP POP POP POP POP POP DUP2 MSTORE PUSH1 0x20 ADD DUP6 DUP6 DUP1 DUP1 PUSH1 0x1F ADD PUSH1 0x20 DUP1 SWAP2 DIV MUL PUSH1 0x20 ADD PUSH1 0x40 MLOAD SWAP1 DUP2 ADD PUSH1 0x40 MSTORE DUP1 SWAP4 SWAP3 SWAP2 SWAP1 DUP2 DUP2 MSTORE PUSH1 0x20 ADD DUP4 DUP4 DUP1 DUP3 DUP5 CALLDATACOPY PUSH0 DUP2 DUP5 ADD MSTORE PUSH1 0x1F NOT PUSH1 0x1F DUP3 ADD AND SWAP1 POP DUP1 DUP4 ADD SWAP3 POP POP POP POP POP POP POP DUP2 MSTORE PUSH1 0x20 ADD TIMESTAMP DUP2 MSTORE POP SWAP1 POP PUSH0 PUSH1 0x40 MLOAD DUP1 PUSH1 0xA0 ADD PUSH1 0x40 MSTORE DUP1 DUP13 PUSH1 0x40 MLOAD PUSH1 0x20 ADD PUSH2 0x1DB SWAP2 SWAP1 PUSH2 0xD49 JUMP JUMPDEST PUSH1 0x40 MLOAD PUSH1 0x20 DUP2 DUP4 SUB SUB DUP2 MSTORE SWAP1 PUSH1 0x40 MSTORE DUP2 MSTORE PUSH1 0x20 ADD DUP4 PUSH1 0x40 MLOAD PUSH1 0x20 ADD PUSH2 0x200 SWAP2 SWAP1 PUSH2 0xEA7 JUMP JUMPDEST PUSH1 0x40 MLOAD PUSH1 0x20 DUP2 DUP4 SUB SUB DUP2 MSTORE SWAP1 PUSH1 0x40 MSTORE DUP2 MSTORE PUSH1 0x20 ADD PUSH0 PUSH8 0xFFFFFFFFFFFFFFFF DUP2 GT ISZERO PUSH2 0x22E JUMPI PUSH2 0x22D PUSH2 0xEC7 JUMP JUMPDEST JUMPDEST PUSH1 0x40 MLOAD SWAP1 DUP1 DUP3 MSTORE DUP1 PUSH1 0x20 MUL PUSH1 0x20 ADD DUP3 ADD PUSH1 0x40 MSTORE DUP1 ISZERO PUSH2 0x267 JUMPI DUP2 PUSH1 0x20 ADD JUMPDEST PUSH2 0x254 PUSH2 0xABF JUMP JUMPDEST DUP2 MSTORE PUSH1 0x20 ADD SWAP1 PUSH1 0x1 SWAP1 SUB SWAP1 DUP2 PUSH2 0x24C JUMPI SWAP1 POP JUMPDEST POP DUP2 MSTORE PUSH1 0x20 ADD PUSH1 0x3 PUSH0 SWAP1 SLOAD SWAP1 PUSH2 0x100 EXP SWAP1 DIV PUSH20 0xFFFFFFFFFFFFFFFFFFFFFFFFFFFFFFFFFFFFFFFF AND PUSH20 0xFFFFFFFFFFFFFFFFFFFFFFFFFFFFFFFFFFFFFFFF AND DUP2 MSTORE PUSH1 0x20 ADD PUSH2 0x2CD PUSH1 0x40 MLOAD DUP1 PUSH1 0x40 ADD PUSH1 0x40 MSTORE DUP1 PUSH3 0x30D40 DUP2 MSTORE PUSH1 0x20 ADD PUSH1 0x1 ISZERO ISZERO DUP2 MSTORE POP PUSH2 0x916 JUMP JUMPDEST DUP2 MSTORE POP SWAP1 POP PUSH0 PUSH1 0x2 PUSH0 SWAP1 SLOAD SWAP1 PUSH2 0x100 EXP SWAP1 DIV PUSH20 0xFFFFFFFFFFFFFFFFFFFFFFFFFFFFFFFFFFFFFFFF AND PUSH20 0xFFFFFFFFFFFFFFFFFFFFFFFFFFFFFFFFFFFFFFFF AND PUSH4 0x20487DED DUP15 DUP5 PUSH1 0x40 MLOAD DUP4 PUSH4 0xFFFFFFFF AND PUSH1 0xE0 SHL DUP2 MSTORE PUSH1 0x4 ADD PUSH2 0x32F SWAP3 SWAP2 SWAP1 PUSH2 0x10C1 JUMP JUMPDEST PUSH1 0x20 PUSH1 0x40 MLOAD DUP1 DUP4 SUB DUP2 DUP7 GAS STATICCALL ISZERO DUP1 ISZERO PUSH2 0x34A JUMPI RETURNDATASIZE PUSH0 DUP1 RETURNDATACOPY RETURNDATASIZE PUSH0 REVERT JUMPDEST POP POP POP POP PUSH1 0x40 MLOAD RETURNDATASIZE PUSH1 0x1F NOT PUSH1 0x1F DUP3 ADD AND DUP3 ADD DUP1 PUSH1 0x40 MSTORE POP DUP2 ADD SWAP1 PUSH2 0x36E SWAP2 SWAP1 PUSH2 0x1103 JUMP JUMPDEST SWAP1 POP PUSH1 0x3 PUSH0 SWAP1 SLOAD SWAP1 PUSH2 0x100 EXP SWAP1 DIV PUSH20 0xFFFFFFFFFFFFFFFFFFFFFFFFFFFFFFFFFFFFFFFF AND PUSH20 0xFFFFFFFFFFFFFFFFFFFFFFFFFFFFFFFFFFFFFFFF AND PUSH4 0x70A08231 ADDRESS PUSH1 0x40 MLOAD DUP3 PUSH4 0xFFFFFFFF AND PUSH1 0xE0 SHL DUP2 MSTORE PUSH1 0x4 ADD PUSH2 0x3CA SWAP2 SWAP1 PUSH2 0xD49 JUMP JUMPDEST PUSH1 0x20 PUSH1 0x40 MLOAD DUP1 DUP4 SUB DUP2 DUP7 GAS STATICCALL ISZERO DUP1 ISZERO PUSH2 0x3E5 JUMPI RETURNDATASIZE PUSH0 DUP1 RETURNDATACOPY RETURNDATASIZE PUSH0 REVERT JUMPDEST POP POP POP POP PUSH1 0x40 MLOAD RETURNDATASIZE PUSH1 0x1F NOT PUSH1 0x1F DUP3 ADD AND DUP3 ADD DUP1 PUSH1 0x40 MSTORE POP DUP2 ADD SWAP1 PUSH2 0x409 SWAP2 SWAP1 PUSH2 0x1103 JUMP JUMPDEST DUP2 GT ISZERO PUSH2 0x4E7 JUMPI PUSH1 0x3 PUSH0 SWAP1 SLOAD SWAP1 PUSH2 0x100 EXP SWAP1 DIV PUSH20 0xFFFFFFFFFFFFFFFFFFFFFFFFFFFFFFFFFFFFFFFF AND PUSH20 0xFFFFFFFFFFFFFFFFFFFFFFFFFFFFFFFFFFFFFFFF AND PUSH4 0x70A08231 ADDRESS PUSH1 0x40 MLOAD DUP3 PUSH4 0xFFFFFFFF AND PUSH1 0xE0 SHL DUP2 MSTORE PUSH1 0x4 ADD PUSH2 0x46A SWAP2 SWAP1 PUSH2 0xD49 JUMP JUMPDEST PUSH1 0x20 PUSH1 0x40 MLOAD DUP1 DUP4 SUB DUP2 DUP7 GAS STATICCALL ISZERO DUP1 ISZERO PUSH2 0x485 JUMPI RETURNDATASIZE PUSH0 DUP1 RETURNDATACOPY RETURNDATASIZE PUSH0 REVERT JUMPDEST POP POP POP POP PUSH1 0x40 MLOAD RETURNDATASIZE PUSH1 0x1F NOT PUSH1 0x1F DUP3 ADD AND DUP3 ADD DUP1 PUSH1 0x40 MSTORE POP DUP2 ADD SWAP1 PUSH2 0x4A9 SWAP2 SWAP1 PUSH2 0x1103 JUMP JUMPDEST DUP2 PUSH1 0x40 MLOAD PUSH32 0x8F0F420600000000000000000000000000000000000000000000000000000000 DUP2 MSTORE PUSH1 0x4 ADD PUSH2 0x4DE SWAP3 SWAP2 SWAP1 PUSH2 0x113D JUMP JUMPDEST PUSH1 0x40 MLOAD DUP1 SWAP2 SUB SWAP1 REVERT JUMPDEST PUSH1 0x3 PUSH0 SWAP1 SLOAD SWAP1 PUSH2 0x100 EXP SWAP1 DIV PUSH20 0xFFFFFFFFFFFFFFFFFFFFFFFFFFFFFFFFFFFFFFFF AND PUSH20 0xFFFFFFFFFFFFFFFFFFFFFFFFFFFFFFFFFFFFFFFF AND PUSH4 0x95EA7B3 PUSH1 0x2 PUSH0 SWAP1 SLOAD SWAP1 PUSH2 0x100 EXP SWAP1 DIV PUSH20 0xFFFFFFFFFFFFFFFFFFFFFFFFFFFFFFFFFFFFFFFF AND DUP4 PUSH1 0x40 MLOAD DUP4 PUSH4 0xFFFFFFFF AND PUSH1 0xE0 SHL DUP2 MSTORE PUSH1 0x4 ADD PUSH2 0x564 SWAP3 SWAP2 SWAP1 PUSH2 0x1164 JUMP JUMPDEST PUSH1 0x20 PUSH1 0x40 MLOAD DUP1 DUP4 SUB DUP2 PUSH0 DUP8 GAS CALL ISZERO DUP1 ISZERO PUSH2 0x580 JUMPI RETURNDATASIZE PUSH0 DUP1 RETURNDATACOPY RETURNDATASIZE PUSH0 REVERT JUMPDEST POP POP POP POP PUSH1 0x40 MLOAD RETURNDATASIZE PUSH1 0x1F NOT PUSH1 0x1F DUP3 ADD AND DUP3 ADD DUP1 PUSH1 0x40 MSTORE POP DUP2 ADD SWAP1 PUSH2 0x5A4 SWAP2 SWAP1 PUSH2 0x11C0 JUMP JUMPDEST POP PUSH1 0x2 PUSH0 SWAP1 SLOAD SWAP1 PUSH2 0x100 EXP SWAP1 DIV PUSH20 0xFFFFFFFFFFFFFFFFFFFFFFFFFFFFFFFFFFFFFFFF AND PUSH20 0xFFFFFFFFFFFFFFFFFFFFFFFFFFFFFFFFFFFFFFFF AND PUSH4 0x96F4E9F9 DUP15 DUP5 PUSH1 0x40 MLOAD DUP4 PUSH4 0xFFFFFFFF AND PUSH1 0xE0 SHL DUP2 MSTORE PUSH1 0x4 ADD PUSH2 0x601 SWAP3 SWAP2 SWAP1 PUSH2 0x10C1 JUMP JUMPDEST PUSH1 0x20 PUSH1 0x40 MLOAD DUP1 DUP4 SUB DUP2 PUSH0 DUP8 GAS CALL ISZERO DUP1 ISZERO PUSH2 0x61D JUMPI RETURNDATASIZE PUSH0 DUP1 RETURNDATACOPY RETURNDATASIZE PUSH0 REVERT JUMPDEST POP POP POP POP PUSH1 0x40 MLOAD RETURNDATASIZE PUSH1 0x1F NOT PUSH1 0x1F DUP3 ADD AND DUP3 ADD DUP1 PUSH1 0x40 MSTORE POP DUP2 ADD SWAP1 PUSH2 0x641 SWAP2 SWAP1 PUSH2 0x1215 JUMP JUMPDEST SWAP4 POP DUP13 PUSH8 0xFFFFFFFFFFFFFFFF AND DUP5 PUSH32 0xDC760D575797BEC6428E86E510569B89B22D6B842B392FADD8FE46421E272362 DUP15 DUP7 PUSH1 0x3 PUSH0 SWAP1 SLOAD SWAP1 PUSH2 0x100 EXP SWAP1 DIV PUSH20 0xFFFFFFFFFFFFFFFFFFFFFFFFFFFFFFFFFFFFFFFF AND DUP7 PUSH1 0x40 MLOAD PUSH2 0x6A5 SWAP5 SWAP4 SWAP3 SWAP2 SWAP1 PUSH2 0x1240 JUMP JUMPDEST PUSH1 0x40 MLOAD DUP1 SWAP2 SUB SWAP1 LOG3 POP POP POP SWAP10 SWAP9 POP POP POP POP POP POP POP POP POP JUMP JUMPDEST PUSH1 0x1 PUSH0 SWAP1 SLOAD SWAP1 PUSH2 0x100 EXP SWAP1 DIV PUSH20 0xFFFFFFFFFFFFFFFFFFFFFFFFFFFFFFFFFFFFFFFF AND PUSH20 0xFFFFFFFFFFFFFFFFFFFFFFFFFFFFFFFFFFFFFFFF AND CALLER PUSH20 0xFFFFFFFFFFFFFFFFFFFFFFFFFFFFFFFFFFFFFFFF AND EQ PUSH2 0x74C JUMPI PUSH1 0x40 MLOAD PUSH32 0x8C379A000000000000000000000000000000000000000000000000000000000 DUP2 MSTORE PUSH1 0x4 ADD PUSH2 0x743 SWAP1 PUSH2 0x12E4 JUMP JUMPDEST PUSH1 0x40 MLOAD DUP1 SWAP2 SUB SWAP1 REVERT JUMPDEST PUSH0 DUP1 PUSH0 SWAP1 SLOAD SWAP1 PUSH2 0x100 EXP SWAP1 DIV PUSH20 0xFFFFFFFFFFFFFFFFFFFFFFFFFFFFFFFFFFFFFFFF AND SWAP1 POP CALLER PUSH0 DUP1 PUSH2 0x100 EXP DUP2 SLOAD DUP2 PUSH20 0xFFFFFFFFFFFFFFFFFFFFFFFFFFFFFFFFFFFFFFFF MUL NOT AND SWAP1 DUP4 PUSH20 0xFFFFFFFFFFFFFFFFFFFFFFFFFFFFFFFFFFFFFFFF AND MUL OR SWAP1 SSTORE POP PUSH0 PUSH1 0x1 PUSH0 PUSH2 0x100 EXP DUP2 SLOAD DUP2 PUSH20 0xFFFFFFFFFFFFFFFFFFFFFFFFFFFFFFFFFFFFFFFF MUL NOT AND SWAP1 DUP4 PUSH20 0xFFFFFFFFFFFFFFFFFFFFFFFFFFFFFFFFFFFFFFFF AND MUL OR SWAP1 SSTORE POP CALLER PUSH20 0xFFFFFFFFFFFFFFFFFFFFFFFFFFFFFFFFFFFFFFFF AND DUP2 PUSH20 0xFFFFFFFFFFFFFFFFFFFFFFFFFFFFFFFFFFFFFFFF AND PUSH32 0x8BE0079C531659141344CD1FD0A4F28419497F9722A3DAAFE3B4186F6B6457E0 PUSH1 0x40 MLOAD PUSH1 0x40 MLOAD DUP1 SWAP2 SUB SWAP1 LOG3 POP JUMP JUMPDEST PUSH0 DUP1 PUSH0 SWAP1 SLOAD SWAP1 PUSH2 0x100 EXP SWAP1 DIV PUSH20 0xFFFFFFFFFFFFFFFFFFFFFFFFFFFFFFFFFFFFFFFF AND SWAP1 POP SWAP1 JUMP JUMPDEST PUSH2 0x87B PUSH2 0x887 JUMP JUMPDEST PUSH2 0x884 DUP2 PUSH2 0x995 JUMP JUMPDEST POP JUMP JUMPDEST PUSH0 DUP1 SLOAD SWAP1 PUSH2 0x100 EXP SWAP1 DIV PUSH20 0xFFFFFFFFFFFFFFFFFFFFFFFFFFFFFFFFFFFFFFFF AND PUSH20 0xFFFFFFFFFFFFFFFFFFFFFFFFFFFFFFFFFFFFFFFF AND CALLER PUSH20 0xFFFFFFFFFFFFFFFFFFFFFFFFFFFFFFFFFFFFFFFF AND EQ PUSH2 0x914 JUMPI PUSH1 0x40 MLOAD PUSH32 0x8C379A000000000000000000000000000000000000000000000000000000000 DUP2 MSTORE PUSH1 0x4 ADD PUSH2 0x90B SWAP1 PUSH2 0x134C JUMP JUMPDEST PUSH1 0x40 MLOAD DUP1 SWAP2 SUB SWAP1 REVERT JUMPDEST JUMP JUMPDEST PUSH1 0x60 PUSH4 0x181DCF10 PUSH1 0xE0 SHL DUP3 PUSH1 0x40 MLOAD PUSH1 0x24 ADD PUSH2 0x931 SWAP2 SWAP1 PUSH2 0x13A6 JUMP JUMPDEST PUSH1 0x40 MLOAD PUSH1 0x20 DUP2 DUP4 SUB SUB DUP2 MSTORE SWAP1 PUSH1 0x40 MSTORE SWAP1 PUSH28 0xFFFFFFFFFFFFFFFFFFFFFFFFFFFFFFFFFFFFFFFFFFFFFFFFFFFFFFFF NOT AND PUSH1 0x20 DUP3 ADD DUP1 MLOAD PUSH28 0xFFFFFFFFFFFFFFFFFFFFFFFFFFFFFFFFFFFFFFFFFFFFFFFFFFFFFFFF DUP4 DUP2 DUP4 AND OR DUP4 MSTORE POP POP POP POP SWAP1 POP SWAP2 SWAP1 POP JUMP JUMPDEST CALLER PUSH20 0xFFFFFFFFFFFFFFFFFFFFFFFFFFFFFFFFFFFFFFFF AND DUP2 PUSH20 0xFFFFFFFFFFFFFFFFFFFFFFFFFFFFFFFFFFFFFFFF AND SUB PUSH2 0xA03 JUMPI PUSH1 0x40 MLOAD PUSH32 0x8C379A000000000000000000000000000000000000000000000000000000000 DUP2 MSTORE PUSH1 0x4 ADD PUSH2 0x9FA SWAP1 PUSH2 0x1409 JUMP JUMPDEST PUSH1 0x40 MLOAD DUP1 SWAP2 SUB SWAP1 REVERT JUMPDEST DUP1 PUSH1 0x1 PUSH0 PUSH2 0x100 EXP DUP2 SLOAD DUP2 PUSH20 0xFFFFFFFFFFFFFFFFFFFFFFFFFFFFFFFFFFFFFFFF MUL NOT AND SWAP1 DUP4 PUSH20 0xFFFFFFFFFFFFFFFFFFFFFFFFFFFFFFFFFFFFFFFF AND MUL OR SWAP1 SSTORE POP DUP1 PUSH20 0xFFFFFFFFFFFFFFFFFFFFFFFFFFFFFFFFFFFFFFFF AND PUSH0 DUP1 SLOAD SWAP1 PUSH2 0x100 EXP SWAP1 DIV PUSH20 0xFFFFFFFFFFFFFFFFFFFFFFFFFFFFFFFFFFFFFFFF AND PUSH20 0xFFFFFFFFFFFFFFFFFFFFFFFFFFFFFFFFFFFFFFFF AND PUSH32 0xED8889F560326EB138920D842192F0EB3DD22B4F139C87A2C57538E05BAE1278 PUSH1 0x40 MLOAD PUSH1 0x40 MLOAD DUP1 SWAP2 SUB SWAP1 LOG3 POP JUMP JUMPDEST PUSH1 0x40 MLOAD DUP1 PUSH1 0x40 ADD PUSH1 0x40 MSTORE DUP1 PUSH0 PUSH20 0xFFFFFFFFFFFFFFFFFFFFFFFFFFFFFFFFFFFFFFFF AND DUP2 MSTORE PUSH1 0x20 ADD PUSH0 DUP2 MSTORE POP SWAP1 JUMP JUMPDEST PUSH0 DUP1 REVERT JUMPDEST PUSH0 DUP1 REVERT JUMPDEST PUSH0 PUSH8 0xFFFFFFFFFFFFFFFF DUP3 AND SWAP1 POP SWAP2 SWAP1 POP JUMP JUMPDEST PUSH2 0xB11 DUP2 PUSH2 0xAF5 JUMP JUMPDEST DUP2 EQ PUSH2 0xB1B JUMPI PUSH0 DUP1 REVERT JUMPDEST POP JUMP JUMPDEST PUSH0 DUP2 CALLDATALOAD SWAP1 POP PUSH2 0xB2C DUP2 PUSH2 0xB08 JUMP JUMPDEST SWAP3 SWAP2 POP POP JUMP JUMPDEST PUSH0 PUSH20 0xFFFFFFFFFFFFFFFFFFFFFFFFFFFFFFFFFFFFFFFF DUP3 AND SWAP1 POP SWAP2 SWAP1 POP JUMP JUMPDEST PUSH0 PUSH2 0xB5B DUP3 PUSH2 0xB32 JUMP JUMPDEST SWAP1 POP SWAP2 SWAP1 POP JUMP JUMPDEST PUSH2 0xB6B DUP2 PUSH2 0xB51 JUMP JUMPDEST DUP2 EQ PUSH2 0xB75 JUMPI PUSH0 DUP1 REVERT JUMPDEST POP JUMP JUMPDEST PUSH0 DUP2 CALLDATALOAD SWAP1 POP PUSH2 0xB86 DUP2 PUSH2 0xB62 JUMP JUMPDEST SWAP3 SWAP2 POP POP JUMP JUMPDEST PUSH0 DUP1 REVERT JUMPDEST PUSH0 DUP1 REVERT JUMPDEST PUSH0 DUP1 REVERT JUMPDEST PUSH0 DUP1 DUP4 PUSH1 0x1F DUP5 ADD SLT PUSH2 0xBAD JUMPI PUSH2 0xBAC PUSH2 0xB8C JUMP JUMPDEST JUMPDEST DUP3 CALLDATALOAD SWAP1 POP PUSH8 0xFFFFFFFFFFFFFFFF DUP2 GT ISZERO PUSH2 0xBCA JUMPI PUSH2 0xBC9 PUSH2 0xB90 JUMP JUMPDEST JUMPDEST PUSH1 0x20 DUP4 ADD SWAP2 POP DUP4 PUSH1 0x1 DUP3 MUL DUP4 ADD GT ISZERO PUSH2 0xBE6 JUMPI PUSH2 0xBE5 PUSH2 0xB94 JUMP JUMPDEST JUMPDEST SWAP3 POP SWAP3 SWAP1 POP JUMP JUMPDEST PUSH0 DUP2 SWAP1 POP SWAP2 SWAP1 POP JUMP JUMPDEST PUSH2 0xBFF DUP2 PUSH2 0xBED JUMP JUMPDEST DUP2 EQ PUSH2 0xC09 JUMPI PUSH0 DUP1 REVERT JUMPDEST POP JUMP JUMPDEST PUSH0 DUP2 CALLDATALOAD SWAP1 POP PUSH2 0xC1A DUP2 PUSH2 0xBF6 JUMP JUMPDEST SWAP3 SWAP2 POP POP JUMP JUMPDEST PUSH0 DUP1 PUSH0 DUP1 PUSH0 DUP1 PUSH0 DUP1 PUSH0 PUSH1 0xC0 DUP11 DUP13 SUB SLT ISZERO PUSH2 0xC3D JUMPI PUSH2 0xC3C PUSH2 0xAED JUMP JUMPDEST JUMPDEST PUSH0 PUSH2 0xC4A DUP13 DUP3 DUP14 ADD PUSH2 0xB1E JUMP JUMPDEST SWAP10 POP POP PUSH1 0x20 PUSH2 0xC5B DUP13 DUP3 DUP14 ADD PUSH2 0xB78 JUMP JUMPDEST SWAP9 POP POP PUSH1 0x40 DUP11 ADD CALLDATALOAD PUSH8 0xFFFFFFFFFFFFFFFF DUP2 GT ISZERO PUSH2 0xC7C JUMPI PUSH2 0xC7B PUSH2 0xAF1 JUMP JUMPDEST JUMPDEST PUSH2 0xC88 DUP13 DUP3 DUP14 ADD PUSH2 0xB98 JUMP JUMPDEST SWAP8 POP SWAP8 POP POP PUSH1 0x60 PUSH2 0xC9B DUP13 DUP3 DUP14 ADD PUSH2 0xC0C JUMP JUMPDEST SWAP6 POP POP PUSH1 0x80 DUP11 ADD CALLDATALOAD PUSH8 0xFFFFFFFFFFFFFFFF DUP2 GT ISZERO PUSH2 0xCBC JUMPI PUSH2 0xCBB PUSH2 0xAF1 JUMP JUMPDEST JUMPDEST PUSH2 0xCC8 DUP13 DUP3 DUP14 ADD PUSH2 0xB98 JUMP JUMPDEST SWAP5 POP SWAP5 POP POP PUSH1 0xA0 DUP11 ADD CALLDATALOAD PUSH8 0xFFFFFFFFFFFFFFFF DUP2 GT ISZERO PUSH2 0xCEB JUMPI PUSH2 0xCEA PUSH2 0xAF1 JUMP JUMPDEST JUMPDEST PUSH2 0xCF7 DUP13 DUP3 DUP14 ADD PUSH2 0xB98 JUMP JUMPDEST SWAP3 POP SWAP3 POP POP SWAP3 SWAP6 SWAP9 POP SWAP3 SWAP6 SWAP9 POP SWAP3 SWAP6 SWAP9 JUMP JUMPDEST PUSH0 DUP2 SWAP1 POP SWAP2 SWAP1 POP JUMP JUMPDEST PUSH2 0xD1B DUP2 PUSH2 0xD09 JUMP JUMPDEST DUP3 MSTORE POP POP JUMP JUMPDEST PUSH0 PUSH1 0x20 DUP3 ADD SWAP1 POP PUSH2 0xD34 PUSH0 DUP4 ADD DUP5 PUSH2 0xD12 JUMP JUMPDEST SWAP3 SWAP2 POP POP JUMP JUMPDEST PUSH2 0xD43 DUP2 PUSH2 0xB51 JUMP JUMPDEST DUP3 MSTORE POP POP JUMP JUMPDEST PUSH0 PUSH1 0x20 DUP3 ADD SWAP1 POP PUSH2 0xD5C PUSH0 DUP4 ADD DUP5 PUSH2 0xD3A JUMP JUMPDEST SWAP3 SWAP2 POP POP JUMP JUMPDEST PUSH0 PUSH1 0x20 DUP3 DUP5 SUB SLT ISZERO PUSH2 0xD77 JUMPI PUSH2 0xD76 PUSH2 0xAED JUMP JUMPDEST JUMPDEST PUSH0 PUSH2 0xD84 DUP5 DUP3 DUP6 ADD PUSH2 0xB78 JUMP JUMPDEST SWAP2 POP POP SWAP3 SWAP2 POP POP JUMP JUMPDEST PUSH0 DUP2 MLOAD SWAP1 POP SWAP2 SWAP1 POP JUMP JUMPDEST PUSH0 DUP3 DUP3 MSTORE PUSH1 0x20 DUP3 ADD SWAP1 POP SWAP3 SWAP2 POP POP JUMP JUMPDEST PUSH0 JUMPDEST DUP4 DUP2 LT ISZERO PUSH2 0xDC4 JUMPI DUP1 DUP3 ADD MLOAD DUP2 DUP5 ADD MSTORE PUSH1 0x20 DUP2 ADD SWAP1 POP PUSH2 0xDA9 JUMP JUMPDEST PUSH0 DUP5 DUP5 ADD MSTORE POP POP POP POP JUMP JUMPDEST PUSH0 PUSH1 0x1F NOT PUSH1 0x1F DUP4 ADD AND SWAP1 POP SWAP2 SWAP1 POP JUMP JUMPDEST PUSH0 PUSH2 0xDE9 DUP3 PUSH2 0xD8D JUMP JUMPDEST PUSH2 0xDF3 DUP2 DUP6 PUSH2 0xD97 JUMP JUMPDEST SWAP4 POP PUSH2 0xE03 DUP2 DUP6 PUSH1 0x20 DUP7 ADD PUSH2 0xDA7 JUMP JUMPDEST PUSH2 0xE0C DUP2 PUSH2 0xDCF JUMP JUMPDEST DUP5 ADD SWAP2 POP POP SWAP3 SWAP2 POP POP JUMP JUMPDEST PUSH2 0xE20 DUP2 PUSH2 0xBED JUMP JUMPDEST DUP3 MSTORE POP POP JUMP JUMPDEST PUSH0 PUSH1 0xA0 DUP4 ADD PUSH0 DUP4 ADD MLOAD DUP5 DUP3 SUB PUSH0 DUP7 ADD MSTORE PUSH2 0xE40 DUP3 DUP3 PUSH2 0xDDF JUMP JUMPDEST SWAP2 POP POP PUSH1 0x20 DUP4 ADD MLOAD PUSH2 0xE55 PUSH1 0x20 DUP7 ADD DUP3 PUSH2 0xE17 JUMP JUMPDEST POP PUSH1 0x40 DUP4 ADD MLOAD DUP5 DUP3 SUB PUSH1 0x40 DUP7 ADD MSTORE PUSH2 0xE6D DUP3 DUP3 PUSH2 0xDDF JUMP JUMPDEST SWAP2 POP POP PUSH1 0x60 DUP4 ADD MLOAD DUP5 DUP3 SUB PUSH1 0x60 DUP7 ADD MSTORE PUSH2 0xE87 DUP3 DUP3 PUSH2 0xDDF JUMP JUMPDEST SWAP2 POP POP PUSH1 0x80 DUP4 ADD MLOAD PUSH2 0xE9C PUSH1 0x80 DUP7 ADD DUP3 PUSH2 0xE17 JUMP JUMPDEST POP DUP1 SWAP2 POP POP SWAP3 SWAP2 POP POP JUMP JUMPDEST PUSH0 PUSH1 0x20 DUP3 ADD SWAP1 POP DUP2 DUP2 SUB PUSH0 DUP4 ADD MSTORE PUSH2 0xEBF DUP2 DUP5 PUSH2 0xE26 JUMP JUMPDEST SWAP1 POP SWAP3 SWAP2 POP POP JUMP JUMPDEST PUSH32 0x4E487B7100000000000000000000000000000000000000000000000000000000 PUSH0 MSTORE PUSH1 0x41 PUSH1 0x4 MSTORE PUSH1 0x24 PUSH0 REVERT JUMPDEST PUSH2 0xEFD DUP2 PUSH2 0xAF5 JUMP JUMPDEST DUP3 MSTORE POP POP JUMP JUMPDEST PUSH0 DUP2 MLOAD SWAP1 POP SWAP2 SWAP1 POP JUMP JUMPDEST PUSH0 DUP3 DUP3 MSTORE PUSH1 0x20 DUP3 ADD SWAP1 POP SWAP3 SWAP2 POP POP JUMP JUMPDEST PUSH0 PUSH2 0xF27 DUP3 PUSH2 0xF03 JUMP JUMPDEST PUSH2 0xF31 DUP2 DUP6 PUSH2 0xF0D JUMP JUMPDEST SWAP4 POP PUSH2 0xF41 DUP2 DUP6 PUSH1 0x20 DUP7 ADD PUSH2 0xDA7 JUMP JUMPDEST PUSH2 0xF4A DUP2 PUSH2 0xDCF JUMP JUMPDEST DUP5 ADD SWAP2 POP POP SWAP3 SWAP2 POP POP JUMP JUMPDEST PUSH0 DUP2 MLOAD SWAP1 POP SWAP2 SWAP1 POP JUMP JUMPDEST PUSH0 DUP3 DUP3 MSTORE PUSH1 0x20 DUP3 ADD SWAP1 POP SWAP3 SWAP2 POP POP JUMP JUMPDEST PUSH0 DUP2 SWAP1 POP PUSH1 0x20 DUP3 ADD SWAP1 POP SWAP2 SWAP1 POP JUMP JUMPDEST PUSH2 0xF87 DUP2 PUSH2 0xB51 JUMP JUMPDEST DUP3 MSTORE POP POP JUMP JUMPDEST PUSH1 0x40 DUP3 ADD PUSH0 DUP3 ADD MLOAD PUSH2 0xFA1 PUSH0 DUP6 ADD DUP3 PUSH2 0xF7E JUMP JUMPDEST POP PUSH1 0x20 DUP3 ADD MLOAD PUSH2 0xFB4 PUSH1 0x20 DUP6 ADD DUP3 PUSH2 0xE17 JUMP JUMPDEST POP POP POP POP JUMP JUMPDEST PUSH0 PUSH2 0xFC5 DUP4 DUP4 PUSH2 0xF8D JUMP JUMPDEST PUSH1 0x40 DUP4 ADD SWAP1 POP SWAP3 SWAP2 POP POP JUMP JUMPDEST PUSH0 PUSH1 0x20 DUP3 ADD SWAP1 POP SWAP2 SWAP1 POP JUMP JUMPDEST PUSH0 PUSH2 0xFE7 DUP3 PUSH2 0xF55 JUMP JUMPDEST PUSH2 0xFF1 DUP2 DUP6 PUSH2 0xF5F JUMP JUMPDEST SWAP4 POP PUSH2 0xFFC DUP4 PUSH2 0xF6F JUMP JUMPDEST DUP1 PUSH0 JUMPDEST DUP4 DUP2 LT ISZERO PUSH2 0x102C JUMPI DUP2 MLOAD PUSH2 0x1013 DUP9 DUP3 PUSH2 0xFBA JUMP JUMPDEST SWAP8 POP PUSH2 0x101E DUP4 PUSH2 0xFD1 JUMP JUMPDEST SWAP3 POP POP PUSH1 0x1 DUP2 ADD SWAP1 POP PUSH2 0xFFF JUMP JUMPDEST POP DUP6 SWAP4 POP POP POP POP SWAP3 SWAP2 POP POP JUMP JUMPDEST PUSH0 PUSH1 0xA0 DUP4 ADD PUSH0 DUP4 ADD MLOAD DUP5 DUP3 SUB PUSH0 DUP7 ADD MSTORE PUSH2 0x1053 DUP3 DUP3 PUSH2 0xF1D JUMP JUMPDEST SWAP2 POP POP PUSH1 0x20 DUP4 ADD MLOAD DUP5 DUP3 SUB PUSH1 0x20 DUP7 ADD MSTORE PUSH2 0x106D DUP3 DUP3 PUSH2 0xF1D JUMP JUMPDEST SWAP2 POP POP PUSH1 0x40 DUP4 ADD MLOAD DUP5 DUP3 SUB PUSH1 0x40 DUP7 ADD MSTORE PUSH2 0x1087 DUP3 DUP3 PUSH2 0xFDD JUMP JUMPDEST SWAP2 POP POP PUSH1 0x60 DUP4 ADD MLOAD PUSH2 0x109C PUSH1 0x60 DUP7 ADD DUP3 PUSH2 0xF7E JUMP JUMPDEST POP PUSH1 0x80 DUP4 ADD MLOAD DUP5 DUP3 SUB PUSH1 0x80 DUP7 ADD MSTORE PUSH2 0x10B4 DUP3 DUP3 PUSH2 0xF1D JUMP JUMPDEST SWAP2 POP POP DUP1 SWAP2 POP POP SWAP3 SWAP2 POP POP JUMP JUMPDEST PUSH0 PUSH1 0x40 DUP3 ADD SWAP1 POP PUSH2 0x10D4 PUSH0 DUP4 ADD DUP6 PUSH2 0xEF4 JUMP JUMPDEST DUP2 DUP2 SUB PUSH1 0x20 DUP4 ADD MSTORE PUSH2 0x10E6 DUP2 DUP5 PUSH2 0x1039 JUMP JUMPDEST SWAP1 POP SWAP4 SWAP3 POP POP POP JUMP JUMPDEST PUSH0 DUP2 MLOAD SWAP1 POP PUSH2 0x10FD DUP2 PUSH2 0xBF6 JUMP JUMPDEST SWAP3 SWAP2 POP POP JUMP JUMPDEST PUSH0 PUSH1 0x20 DUP3 DUP5 SUB SLT ISZERO PUSH2 0x1118 JUMPI PUSH2 0x1117 PUSH2 0xAED JUMP JUMPDEST JUMPDEST PUSH0 PUSH2 0x1125 DUP5 DUP3 DUP6 ADD PUSH2 0x10EF JUMP JUMPDEST SWAP2 POP POP SWAP3 SWAP2 POP POP JUMP JUMPDEST PUSH2 0x1137 DUP2 PUSH2 0xBED JUMP JUMPDEST DUP3 MSTORE POP POP JUMP JUMPDEST PUSH0 PUSH1 0x40 DUP3 ADD SWAP1 POP PUSH2 0x1150 PUSH0 DUP4 ADD DUP6 PUSH2 0x112E JUMP JUMPDEST PUSH2 0x115D PUSH1 0x20 DUP4 ADD DUP5 PUSH2 0x112E JUMP JUMPDEST SWAP4 SWAP3 POP POP POP JUMP JUMPDEST PUSH0 PUSH1 0x40 DUP3 ADD SWAP1 POP PUSH2 0x1177 PUSH0 DUP4 ADD DUP6 PUSH2 0xD3A JUMP JUMPDEST PUSH2 0x1184 PUSH1 0x20 DUP4 ADD DUP5 PUSH2 0x112E JUMP JUMPDEST SWAP4 SWAP3 POP POP POP JUMP JUMPDEST PUSH0 DUP2 ISZERO ISZERO SWAP1 POP SWAP2 SWAP1 POP JUMP JUMPDEST PUSH2 0x119F DUP2 PUSH2 0x118B JUMP JUMPDEST DUP2 EQ PUSH2 0x11A9 JUMPI PUSH0 DUP1 REVERT JUMPDEST POP JUMP JUMPDEST PUSH0 DUP2 MLOAD SWAP1 POP PUSH2 0x11BA DUP2 PUSH2 0x1196 JUMP JUMPDEST SWAP3 SWAP2 POP POP JUMP JUMPDEST PUSH0 PUSH1 0x20 DUP3 DUP5 SUB SLT ISZERO PUSH2 0x11D5 JUMPI PUSH2 0x11D4 PUSH2 0xAED JUMP JUMPDEST JUMPDEST PUSH0 PUSH2 0x11E2 DUP5 DUP3 DUP6 ADD PUSH2 0x11AC JUMP JUMPDEST SWAP2 POP POP SWAP3 SWAP2 POP POP JUMP JUMPDEST PUSH2 0x11F4 DUP2 PUSH2 0xD09 JUMP JUMPDEST DUP2 EQ PUSH2 0x11FE JUMPI PUSH0 DUP1 REVERT JUMPDEST POP JUMP JUMPDEST PUSH0 DUP2 MLOAD SWAP1 POP PUSH2 0x120F DUP2 PUSH2 0x11EB JUMP JUMPDEST SWAP3 SWAP2 POP POP JUMP JUMPDEST PUSH0 PUSH1 0x20 DUP3 DUP5 SUB SLT ISZERO PUSH2 0x122A JUMPI PUSH2 0x1229 PUSH2 0xAED JUMP JUMPDEST JUMPDEST PUSH0 PUSH2 0x1237 DUP5 DUP3 DUP6 ADD PUSH2 0x1201 JUMP JUMPDEST SWAP2 POP POP SWAP3 SWAP2 POP POP JUMP JUMPDEST PUSH0 PUSH1 0x80 DUP3 ADD SWAP1 POP PUSH2 0x1253 PUSH0 DUP4 ADD DUP8 PUSH2 0xD3A JUMP JUMPDEST DUP2 DUP2 SUB PUSH1 0x20 DUP4 ADD MSTORE PUSH2 0x1265 DUP2 DUP7 PUSH2 0xE26 JUMP JUMPDEST SWAP1 POP PUSH2 0x1274 PUSH1 0x40 DUP4 ADD DUP6 PUSH2 0xD3A JUMP JUMPDEST PUSH2 0x1281 PUSH1 0x60 DUP4 ADD DUP5 PUSH2 0x112E JUMP JUMPDEST SWAP6 SWAP5 POP POP POP POP POP JUMP JUMPDEST PUSH0 DUP3 DUP3 MSTORE PUSH1 0x20 DUP3 ADD SWAP1 POP SWAP3 SWAP2 POP POP JUMP JUMPDEST PUSH32 0x4D7573742062652070726F706F736564206F776E657200000000000000000000 PUSH0 DUP3 ADD MSTORE POP JUMP JUMPDEST PUSH0 PUSH2 0x12CE PUSH1 0x16 DUP4 PUSH2 0x128A JUMP JUMPDEST SWAP2 POP PUSH2 0x12D9 DUP3 PUSH2 0x129A JUMP JUMPDEST PUSH1 0x20 DUP3 ADD SWAP1 POP SWAP2 SWAP1 POP JUMP JUMPDEST PUSH0 PUSH1 0x20 DUP3 ADD SWAP1 POP DUP2 DUP2 SUB PUSH0 DUP4 ADD MSTORE PUSH2 0x12FB DUP2 PUSH2 0x12C2 JUMP JUMPDEST SWAP1 POP SWAP2 SWAP1 POP JUMP JUMPDEST PUSH32 0x4F6E6C792063616C6C61626C65206279206F776E657200000000000000000000 PUSH0 DUP3 ADD MSTORE POP JUMP JUMPDEST PUSH0 PUSH2 0x1336 PUSH1 0x16 DUP4 PUSH2 0x128A JUMP JUMPDEST SWAP2 POP PUSH2 0x1341 DUP3 PUSH2 0x1302 JUMP JUMPDEST PUSH1 0x20 DUP3 ADD SWAP1 POP SWAP2 SWAP1 POP JUMP JUMPDEST PUSH0 PUSH1 0x20 DUP3 ADD SWAP1 POP DUP2 DUP2 SUB PUSH0 DUP4 ADD MSTORE PUSH2 0x1363 DUP2 PUSH2 0x132A JUMP JUMPDEST SWAP1 POP SWAP2 SWAP1 POP JUMP JUMPDEST PUSH2 0x1373 DUP2 PUSH2 0x118B JUMP JUMPDEST DUP3 MSTORE POP POP JUMP JUMPDEST PUSH1 0x40 DUP3 ADD PUSH0 DUP3 ADD MLOAD PUSH2 0x138D PUSH0 DUP6 ADD DUP3 PUSH2 0xE17 JUMP JUMPDEST POP PUSH1 0x20 DUP3 ADD MLOAD PUSH2 0x13A0 PUSH1 0x20 DUP6 ADD DUP3 PUSH2 0x136A JUMP JUMPDEST POP POP POP POP JUMP JUMPDEST PUSH0 PUSH1 0x40 DUP3 ADD SWAP1 POP PUSH2 0x13B9 PUSH0 DUP4 ADD DUP5 PUSH2 0x1379 JUMP JUMPDEST SWAP3 SWAP2 POP POP JUMP JUMPDEST PUSH32 0x43616E6E6F74207472616E7366657220746F2073656C66000000000000000000 PUSH0 DUP3 ADD MSTORE POP JUMP JUMPDEST PUSH0 PUSH2 0x13F3 PUSH1 0x17 DUP4 PUSH2 0x128A JUMP JUMPDEST SWAP2 POP PUSH2 0x13FE DUP3 PUSH2 0x13BF JUMP JUMPDEST PUSH1 0x20 DUP3 ADD SWAP1 POP SWAP2 SWAP1 POP JUMP JUMPDEST PUSH0 PUSH1 0x20 DUP3 ADD SWAP1 POP DUP2 DUP2 SUB PUSH0 DUP4 ADD MSTORE PUSH2 0x1420 DUP2 PUSH2 0x13E7 JUMP JUMPDEST SWAP1 POP SWAP2 SWAP1 POP JUMP INVALID LOG2 PUSH5 0x6970667358 0x22 SLT KECCAK256 MULMOD 0xE8 PUSH0 STATICCALL TSTORE PREVRANDAO 0x4D SUB DUP8 GASLIMIT 0xC4 MOD MSTORE LOG4 ISZERO MOD 0xDC EQ PUSH22 0xB3B9EBD7B6E7936687911A5E2F64736F6C6343000818 STOP CALLER "
				},
				"gasEstimates": {
					"creation": {
						"codeDepositCost": "1042600",
						"executionCost": "infinite",
						"totalCost": "infinite"
					},
					"external": {
						"acceptOwnership()": "54533",
						"owner()": "2537",
						"sendMessage(uint64,address,string,uint256,string,string)": "infinite",
						"transferOwnership(address)": "30689"
					}
				},
				"methodIdentifiers": {
					"acceptOwnership()": "79ba5097",
					"owner()": "8da5cb5b",
					"sendMessage(uint64,address,string,uint256,string,string)": "3bd0a821",
					"transferOwnership(address)": "f2fde38b"
				}
			},
			"storageLayout": {
				"storage": [
					{
						"astId": 152,
						"contract": "docs.chain.link/samples/CCIP/Sender.sol:Sender",
						"label": "s_owner",
						"offset": 0,
						"slot": "0",
						"type": "t_address"
					},
					{
						"astId": 154,
						"contract": "docs.chain.link/samples/CCIP/Sender.sol:Sender",
						"label": "s_pendingOwner",
						"offset": 0,
						"slot": "1",
						"type": "t_address"
					},
					{
						"astId": 480,
						"contract": "docs.chain.link/samples/CCIP/Sender.sol:Sender",
						"label": "s_router",
						"offset": 0,
						"slot": "2",
						"type": "t_contract(IRouterClient)42"
					},
					{
						"astId": 483,
						"contract": "docs.chain.link/samples/CCIP/Sender.sol:Sender",
						"label": "s_linkToken",
						"offset": 0,
						"slot": "3",
						"type": "t_contract(LinkTokenInterface)433"
					}
				],
				"types": {
					"t_address": {
						"encoding": "inplace",
						"label": "address",
						"numberOfBytes": "20"
					},
					"t_contract(IRouterClient)42": {
						"encoding": "inplace",
						"label": "contract IRouterClient",
						"numberOfBytes": "20"
					},
					"t_contract(LinkTokenInterface)433": {
						"encoding": "inplace",
						"label": "contract LinkTokenInterface",
						"numberOfBytes": "20"
					}
				}
			},
			"userdoc": {
				"kind": "user",
				"methods": {
					"acceptOwnership()": {
						"notice": "Allows an ownership transfer to be completed by the recipient."
					},
					"owner()": {
						"notice": "Get the current owner"
					},
					"transferOwnership(address)": {
						"notice": "Allows an owner to begin transferring ownership to a new address."
					}
				},
				"version": 1
			}
		}
	}
}